:020000040100F9
:10000000980D0021D9120001613D0001C5120001C7
:10001000C5120001C5120001C51200010000000058
:10002000000000000000000000000000A11300011B
:10003000C512000100000000C5120001C512000138
:10004000D9140001D9140001D9140001D9140001F8
:10005000D9140001D9140001D9140001D9140001E8
:10006000D9140001D9140001D9140001D9140001D8
:10007000D9140001D9140001D9140001D9140001C8
:10008000D9140001D9140001D9140001D9140001B8
:10009000D9140001D9140001D9140001D9140001A8
:1000A000D9140001D9140001D9140001D914000198
:1000B000D9140001D9140001000000000000000064
:1000C0000000000000000000000000000000000030
:1000D0000000000000000000000000000000000020
:1000E0000000000000000000000000000000000010
:1000F0000000000000000000000000000000000000
:1001000000000000000000000000000000000000EF
:1001100000000000000000000000000000000000DF
:1001200000000000000000000000000000000000CF
:1001300000000000000000000000000000000000BF
:1001400000000000000000000000000000000000AF
:10015000000000000000000000000000000000009F
:10016000000000000000000000000000000000008F
:10017000000000000000000000000000000000007F
:10018000000000000000000000000000000000006F
:10019000000000000000000000000000000000005F
:1001A000000000000000000000000000000000004F
:1001B000000000000000000000000000000000003F
:1001C000000000000000000000000000000000002F
:1001D000000000000000000000000000000000001F
:1001E000000000000000000000000000000000000F
:1001F00000000000000000000000000000000000FF
:10020000DEE61E284CBBCE8F023500003C0000000D
:1002100094550000010000000000000100000001F2
:10022000FFFF02910000000000000000000000003D
:1002300000000000000000000000000030B44FF09B
:10024000000310F8014B11F8015B013A84EA050440
:1002500043EA0403F5D1A3F101034FEAD37030BCA4
:10026000704700BF4FF0000310F8012B013943EA3B
:100270000203F9D1A3F101034FEAD370704700BF25
:1002800030B411F8014B12F8015B6C4000F8014BDF
:10029000013BF6D130BC70472DE9F04F90E8F00FEC
:1002A00000F140004FF0040E59E0F0B4826BC36BD4
:1002B00004680525242687593C444FEA724787EA9B
:1002C000F24787EA92273C4442684FEAF21787EAEE
:1002D000B24787EAD2073C4440F8044B032D08BFDD
:1002E0006FF01B0687593A444FEA734787EAF34792
:1002F00087EA93273A4443684FEAF31787EAB347FC
:1003000087EAD3073A4440F8042B87593B444FEA25
:10031000744787EAF44787EA94273B4444684FEAE6
:10032000F41787EAB44787EAD4073B4440F8043B14
:10033000013DC0D1A0F13C00076A3C444FEA72473E
:1003400087EAF24787EA92273C4402684FEAF217AD
:1003500087EAB24787EAD2073C44C463F0BC4FF057
:10036000020288EA781C8CEAF84C0BEBBC1C8AEA87
:10037000090303EA080383EA0A039C4450F8043B98
:100380009C4451F8043B9C44674444EA050B0BEA47
:10039000060B04EA05034BEA030BE34484EAF42367
:1003A00083EA34530BEBB30B87EA771C8CEAF74CE8
:1003B0000AEBBC1C89EA080303EA070383EA090382
:1003C0009C4450F8043B9C4451F8043B9C446644D4
:1003D0004BEA040A0AEA050A0BEA04034AEA030A9A
:1003E000E2448BEAFB2383EA3B530AEBB30A86EA37
:1003F000761C8CEAF64C09EBBC1C88EA070303EA7E
:10040000060383EA08039C4450F8043B9C4451F8DB
:10041000043B9C4465444AEA0B0909EA04090AEAD8
:100420000B0349EA0309E1448AEAFA2383EA3A53CF
:1004300009EBB30985EA751C8CEAF54C08EBBC1C8A
:1004400087EA060303EA050383EA07039C4450F89E
:10045000043B9C4451F8043B9C44644449EA0A0828
:1004600008EA0B0809EA0A0348EA0308E04489EAB3
:10047000F92383EA395308EBB30884EA741C8CEA45
:10048000F44C07EBBC1C86EA050303EA040383EA89
:1004900006039C4450F8043B9C4451F8043B9C44A4
:1004A000E34448EA090707EA0A0708EA090347EAB2
:1004B0000307674488EAF82383EA385307EBB30756
:1004C0008BEA7B1C8CEAFB4C06EBBC1C85EA040324
:1004D00003EA0B0383EA05039C4450F8043B9C4465
:1004E00051F8043B9C44E24447EA080606EA090640
:1004F00007EA080346EA0306664487EAF72383EA25
:10050000375306EBB3068AEA7A1C8CEAFA4C05EB01
:10051000BC1C84EA0B0303EA0A0383EA04039C4439
:1005200050F8043B9C4451F8043B9C44E14446EAA7
:10053000070505EA080506EA070345EA03056544D9
:1005400086EAF62383EA365305EBB30589EA791C7C
:100550008CEAF94C04EBBC1C8BEA0A0303EA09039E
:1005600083EA0B039C4450F8043B9C4451F8043B41
:100570009C44E04445EA060404EA070405EA06034D
:1005800044EA0304644485EAF52383EA355304EB23
:10059000B304013A7FF4E5AEA0F14000BEF1010ED4
:1005A0007FF483AEA0F1400C9CE80F0000194919BC
:1005B0009219DB19ACE80F009CE80F004044494455
:1005C00052445B44ACE80F00BDE8F08F2DE9F043E6
:1005D00085B0304803F09CFD30B92F4803F0CEFAC7
:1005E000002005B0BDE8F0834FF408414FF0807063
:1005F00003F0E2FC28B1294803F0C0FA01F096FFAD
:10060000EEE701F08DFF054601F098FFE8B903F031
:100610004BFD04460146284603F00AFD10B9214669
:100620001F4805E01B4801F0A5FF014618B11D4811
:1006300003F0A4FAE2E72946284603F0F9FC10B1DA
:1006400001F0D4FFFEE72946EAE74FF45E31164891
:1006500003F0B2FC014608B11448E9E70446DFF8AC
:100660005090DFF8508001AF59F8046B98E807000C
:100670002E4487E807000C223946304603F075FD0A
:1006800000B91EB90134052CEED10026304601F028
:1006900087FDA5E7C44200011C4600013446000165
:1006A000624600018C46000100880001AB46000153
:1006B0005844000110440001B2F5802F2DE9F041AB
:1006C0000CD2042A20D83D494FF4F9723C4803F07B
:1006D0006BFA4FF4F971394803F05DFA0823D21A26
:1006E000CC1D114424F0070421F00701091B172930
:1006F0004FEAD1060AD8314940F2FB12304803F0E4
:1007000053FA40F2FB11E6E70423E8E70027046010
:1007100031463046A660E76003F0E0F90121421D52
:100720008046304603F0D1F99200D51DED082844EB
:10073000B0423AD8B8F1FF3F3946A2F1100204F1B5
:100740001000B8BF3A4603F08FFD2A4639462046CE
:1007500003F0B7F93B463A463946204603F088F99C
:10076000A6EB050820463946012203F092F94246DD
:10077000294603F0A6F92B463A462946204603F0BF
:1007800077F93146204603F09CF943463A46314614
:10079000204603F06DF931462046012203F079F935
:1007A0002946BDE8F04103F0A5B904494FF40372AE
:1007B000034803F0F9F94FF403718CE7CD460001CB
:1007C000F0460001014B1B68184700BF00000021E4
:1007D00030B585B004460D4610220021684603F06E
:1007E00043FD02238DF80230044B2A462146684619
:1007F000019302F0D7FE05B030BD00BFC507000170
:100800002DE9F0471646028B0446100712D4022940
:1008100002F007025BD1204603F0D3F988B101381A
:10082000042800F21081DFE810F052000E0174007D
:10083000B300E00001290CBF42F0100242F0200298
:10084000228386F31188BFF36F8FBDE8F08703F032
:100850000701481F01281ED8002006292768C4E97F
:10086000000014D1394603E0608B013060830968D1
:100870000029F9D123F0070343F002012046218328
:1008800003F09FF990B341F0200121832EE023F083
:10089000070399B2F2E7042930D123F0070399B294
:1008A0002046218303F08DF910B141F0200121830E
:1008B000238B03F00709914540F0CE80228BD106AF
:1008C00040F1F48022F01003238302F00702D4F8F1
:1008D0001480238BB8F1000FB9DA0021276823F0C8
:1008E0000703C4E9001143F001032383238B03F0C2
:1008F0000709914500F0E380002536E07B4940F28E
:100900001B127B4803F050F940F21B11774803F0AB
:1009100042F942B175494FF4AB72754803F044F99E
:100920004FF4AB71F2E7236843B9704940F25712B4
:100930006F4803F039F940F25711E7E723691D6862
:1009400045B96A494FF4AD72694803F02DF94FF487
:10095000AD71DBE7174690464FF00609238B23F075
:10096000070343F006039BB22383A268002A76D1D3
:10097000002F40F0A880002DA0D043F0080323836F
:1009800086F31188BFF36F8F20465A49A84781E04C
:10099000022A08D0554940F25D12554803F004F987
:1009A00040F25D11B2E7678B47B150494FF4AF7227
:1009B0004F4803F0F9F84FF4AF71A7E723695D687A
:1009C00045B94A4940F26112494803F0EDF840F256
:1009D00061119BE7238BB84623F0070343F0040320
:1009E0009BB24FF004092383BFE7012A08D03F4997
:1009F0004FF4B2723E4803F0D7F84FF4B27185E776
:100A0000236843B9394940F26512394803F0CCF8FC
:100A100040F265117AE723699D6845B933494FF47F
:100A2000B472334803F0C0F84FF4B4716EE7002796
:100A3000238BB84623F0070343F005039BB24FF026
:100A40000509238391E7294940F26B12284803F0F6
:100A5000ABF840F26B1159E700273D4685E743F0BC
:100A60000803238386F31188BFF36F8FA16889B3CE
:100A70000E6879B343464A462046D1F804A0D047D1
:100A80001EB1336831461E46F3E73346FAE7002DC0
:100A90007FF47AAFEFF31186202383F31288BFF33C
:100AA0006F8F238B23F00803238307E793067FF5DB
:100AB000C8AE22F02003238302F00702ABE6002F2A
:100AC0003FF4FCAE002543F00803238386F311882E
:100AD000BFF36F8F002FDAD03E68394643464A464F
:100AE000204603F09AF83746F4E700BF19470001A3
:100AF000F0460001473C000170B505460E4603F084
:100B00007CF8041E14DBEFF31182202383F3128898
:100B1000BFF36F8F4FF6FF716B8B2C8B8B4204F002
:100B2000070407D182F31188BFF36F8F6FF00A04B7
:100B3000204670BD022C0CD101336B8382F31188E7
:100B4000BFF36F8F002322463146284603F065F835
:100B5000EEE7062C11D8DFE804F0041E101004257F
:100B60000400002333606B6893B9C5E9006604BBD9
:100B700002212846FFF744FEDAE7104910484FF4F7
:100B8000E47203F011F84FF4E4710C4803F003F839
:100B90001E606E60EBE782F31188BFF36F8F6FF01A
:100BA0000404C5E782F31188BFF36F8F6FF08504EB
:100BB000BEE782F31188BFF36F8FB9E719470001D1
:100BC000F046000108B54268034602F00302032A1A
:100BD000816002D02AB1002000E0006800225A6043
:100BE00008BD04490448452202F0DEFF45210148C2
:100BF00002F0D1FF3E470001F046000110B5436806
:100C00000A680C469A4207D90548452103F04DF879
:100C100000231846636010BD4A6801201344F9E7B9
:100C2000644700017FB50546C06801AA03F08DF94D
:100C3000044638B1024645210D4803F036F82046F7
:100C400004B070BD01992B6A8B42F8D0E868029A13
:100C500083689B689847064630B10246452105489F
:100C600003F023F83446EAE7019B2B62E7E700BF75
:100C700089470001AF470001F8B5816805460029A2
:100C80003CD0D0E9043601391E443144FFF7CAFF95
:100C9000041E07DA3346224645212A4803F005F8A8
:100CA0002046F8BDE86803F00DF8AC68B4FBF0F33B
:100CB00000FB13445CB1041BE8688368DB68984759
:100CC0002F68AB6801792246F81803F0CDFAAB68BB
:100CD000E8682A68234481684C683146A047044686
:100CE00020B10246334645211748D7E7EB695BB987
:100CF0002B69AA6813442B610023AB600024CFE763
:100D0000135DDB4313550134AB682A689C42F7D36B
:100D1000E86881680C683146A047044628B145213F
:100D200002460A4802F0C1FFBAE73246EB69A968F9
:100D30002868984704460028DAD00246452104482E
:100D4000F0E700BFD0470001034800012C48000134
:100D5000474800012DE9F7430D46DDE90A86914633
:100D60001F46044680B179B172B100930023084652
:100D7000019302F0A7FFB7FBF0F303FB107040B143
:100D80004521194802F091FF6FF00D0003B0BDE856
:100D9000F0836A462846154903F0DBF8019B002BD7
:100DA000F2D008EB0602934202D245211048E9E74F
:100DB000284602F087FFB8FBF0F303FB1080002801
:100DC000F3D1C4E90097E5602061A060C4F8148005
:100DD00016B9019EA6EB08060C9B0020E3614FF0BC
:100DE000FF33A6612362D1E760480001FD0B0001DB
:100DF0009C48000108B5044802F0C0FEBDE8084068
:100E0000024802F0BBBE00BFC2480001F748000123
:100E100037B505460C46C9B18B6814480093D1E933
:100E20000023452102F041FF636945210093D4E985
:100E300003230F4802F039FF4521E2690D4802F013
:100E400034FF4521A2690C4802F02FFF012D06D185
:100E5000EFF3058245210948103A02F026FF2146AA
:100E6000284603B0BDE8304001F048BF25490001E5
:100E7000594900018D490001A1490001D4490001EF
:100E800030BFFFF7FDBF00BF10B5244C45212448FB
:100E900002F00BFFA36A99013ED52248452102F0DA
:100EA00004FF1E20A36ADA0104D51F48452102F081
:100EB000FCFE1F20194CA36ADB0204D51B48452108
:100EC00002F0F3FE0220A36A1C0304D51848452152
:100ED00002F0EBFE2120114CA36A590304D51548FA
:100EE000452102F0E2FE2220A36A9A0304D51248AB
:100EF000452102F0DAFE2320084CA36ADB0304D567
:100F00000E48452102F0D1FE2420A36A6FEA034374
:100F10006FEA1343A36210BD1D20C3E700ED00E09C
:100F2000EC490001094A0001214A0001404A000140
:100F30006F4A0001924A0001BC4A0001DB4A0001ED
:100F400070B5244C06460D462348452102F0ADFEFF
:100F5000A36AD9043BD52148452102F0A6FE1720FB
:100F6000A36A1A0504D51E48452102F09EFE1820EA
:100F7000184CA36A9B0511D545211A4802F095FE2D
:100F8000A26BA36A190408D54521174802F08DFE0B
:100F90001EB1A36A23F40043A36219200D4CA36A77
:100FA0005A0504D51148452102F07FFE1A20A36A94
:100FB000DB0504D50E48452102F077FE1B20054ACB
:100FC000936A43F47F43936200232B7070BD162015
:100FD000C6E700BF00ED00E00B4B0001264B00010F
:100FE0003C4B0001544B0001724B00018C4B000143
:100FF000AC4B000170B52A4C06460D4629484521E8
:1010000002F053FEA36AD80640D52748452102F0D6
:101010004CFE1120A36A190704D52448452102F08B
:1010200044FE12201E4CA36A9A0711D54521204880
:1010300002F03BFE626BA36A1B0608D545211D48E2
:1010400002F033FE1EB1A36A23F08003A3621320D3
:10105000134CA36ADE0704D51748452102F025FE8C
:101060001420A36AD90602D4A36A9A0710D50C4BA0
:101070009B6ADB060CD51149114840F2631202F05D
:1010800093FD40F263110D4802F085FD1020C1E789
:10109000034A936A43F0FF03936200232B7070BDF1
:1010A00000ED00E0C94B0001E44B00013C4B0001A6
:1010B0001C4C0001394C0001544C0001784C0001DB
:1010C000F0460001F0B56C4B0446586800258BB023
:1010D000C0F3080385F31188BFF36F8F02F07F46DA
:1010E000B6F17F4F07D102F00C06082E0ED1452134
:1010F000624802F0DAFD62494FF48B62614802F007
:1011000053FD4FF48B615E4802F045FD16074CBF5E
:101110000C460125002CEED00026DA1E8DF8076063
:10112000092A00F29880DFE802F0058B8F76969608
:10113000969696934521544802F0B7FD8DF80760C6
:101140004D4EF36A9A0705D54521504802F0ADFD92
:10115000002329E0F36A002B02DA45214C48F5E729
:10116000F36A5B0063D545214A4802F09EFD73692E
:10117000A26943F480737361BFF34F8FBFF36F8F26
:10118000736932F8022C23F480737361BFF34F8FBD
:10119000BFF36F8F4DF602739A4224D14521226826
:1011A0003D4802F082FD23689DF80720CAB902AECF
:1011B00004F12007324620686168083403C2BC424B
:1011C0001646F7D1099A002D51D0C2F3080121B972
:1011D0006FEA52226FEA42220992184602A9FFF7EB
:1011E00017FE0BB0F0BDB36ADBB233B101200DF1D5
:1011F0000701FFF7FFFE0346D6E7B36A13F47F4FFC
:1012000005D001200DF10701FFF79AFEF3E7B36A5D
:10121000B3F5803F02D3FFF737FEECE7184940F201
:101220002A32184802F0C0FC40F22A316BE7144918
:1012300040F22E32134802F0B7FC40F22E3162E742
:1012400000200DF10701D4E700200DF10701DBE7D5
:10125000452112487AE7124910F4F87F114A1248E2
:1012600008BF0A46103B452102F01FFD70E722F43B
:10127000FF7222F00102AFE700ED00E0D84C000160
:10128000784C0001F0460001084D0001244D00019A
:101290004A4D00015D4D0001814D0001A24D00014C
:1012A000AA4C0001BF4C0001CB4D0001044B5A6910
:1012B00042F010025A615A6942F480625A617047E2
:1012C00000ED00E0EFF30880EFF3098101B572460D
:1012D000FFF7F8FE01BD00BF002080F31488BFF3C4
:1012E0006F8F002080F30A8880F30B8801F046FAA4
:1012F00000200E490860BFF34F8F0D4880F3088827
:1013000000F02CF8202080F311880A484FF4006187
:10131000401880F30988EFF314800221084380F31A
:101320001488BFF36F8F00F08DF8000094ED00E09B
:10133000980D002198010021BFF34F8F0549064BFE
:10134000CA6802F4E0621343CB60BFF34F8F00BF63
:10135000FDE700BF00ED00E00400FA0572B60023CF
:1013600083F313884FF0FF300C4A03F1200101335F
:10137000102B42F82100F8D100234FF0FF30074A2C
:1013800003F160010133102B42F82100F8D162B65D
:10139000BFF34F8FBFF36F8F704700BF00E100E0D6
:1013A0001EF0040F0CBFEFF30880EFF30980816992
:1013B00011F8021C0229FFD001B502F0CDFC01BDDD
:1013C00040B2002807DB01234109034A00F01F0057
:1013D000834042F82130704700E100E0054B4209AC
:1013E00053F82220012300F01F0003FA00F0104000
:1013F000704700BF00E100E00131072908B508D9B6
:101400000D490E48582202F0CFFB58210A4802F03D
:10141000C2FB40B20028ACBF00F16040084B4FEA6D
:101420004111C9B2ABBF00F5614000F00F0080F878
:101430000013195408BD00BFE34D0001F046000140
:1014400014ED00E008B5084B084A23F07F039360D1
:10145000BFF34F8FBFF36F8F01F0CEFC01F010FD93
:1014600000F02EF801F0D4FC0000000100ED00E0D7
:101470001E4680B50C4607461546002383F30B88AD
:10148000DFF824C0ACF5806E8EF30B888CF30988EE
:101490004FF0000005498847204629463246B847A4
:1014A00003488047FEE700BF980D0021793D000109
:1014B000873D00011022014B1A61704700ED00E0EA
:1014C000002320210348C21801331E2B82F8001389
:1014D000F9D1704700E100E008B5EFF30583064A53
:1014E000103B02EBC30152F8330049688847BDE85E
:1014F000084002F03CBC00BFD842000108B50649D4
:10150000064821F00701C1F1045202F58032FFF7CD
:10151000D3F8002008BD00BF9F0D0021C0000021AE
:10152000064AD2F8AC3123F00043C2F8AC310022B5
:10153000034BC3F84C21D3F84C31704700200141D4
:10154000006001410122024B0020C3F84025704792
:10155000000008415023142213B51F4C0DF1070061
:10156000C4F80C351D4BC3F820214FF400621C4B0E
:10157000C3F8BC254FF48062C3F8382502F0A6FDFD
:10158000184B984225D118499DF8070001F084F9BD
:1015900016499DF8070001F093F915499DF80700D9
:1015A00001F07AF921469DF8070001F089F9012040
:1015B0009DF80730984001F069F94FF400220020AF
:1015C0000C4BC3F84423C3F84C01D3F84C3102B0A0
:1015D00010BD6FF00B00FAE700B000410030204171
:1015E000002001410000AD0B4C6101412820014168
:1015F0002C2101410060014173B5354BD3E84F3FC9
:1016000000233449CDE90033334BD3F80445BFF30D
:101610005F8FD1F80465BFF35F8FD3F80425944240
:10162000F3D16B46224601212B4802F0D2FB324611
:1016300005460F21274801AB02F0CBFBE0B1019B2F
:101640000DB9009302E0009A9342FAD3009B22481E
:101650001C44013CD0F84C3524F07F449C421F4987
:1016600032D0FFF75DFFC0F84C451D4B009A9A42FF
:1016700018D901230B7001E0002DE7D1194AD2F8E7
:10168000AC3143F00043C2F8AC31134BD3F84C21DA
:1016900032B90121144A5160D3F84C3103B11160C1
:1016A00001230DE0BFF35F8FD0F80435E41A24F076
:1016B0007F440E4B033C9C42DBD900230B7000237C
:1016C0000B4A137002B070BD0B78002BF7D0D5E732
:1016D0009001002100100141006001418E010021B4
:1016E000FEFF7F000020014100B00041FBFF7F00B2
:1016F0008F010021F8B51E490023C1E8423F52BBCB
:101700001C4B1D783DB305231B4E1C4F3478013410
:10171000B4FBF3F303EB8303E41A02F049FC184A29
:10172000137823B157F82430C01A072813D9154B62
:10173000D3F8141141B10021C3F81411D3F81431B6
:1017400034700CB901231370347802F031FC47F87F
:1017500024002846F8BD0C4A0025D2F8AC3123F00D
:101760000043C2F8AC310122084B5A60F1E700BFD8
:10177000900100218F0100218D010021CC0000216A
:101780008C010021005000410020014100B00041C7
:1017900020B1034B800143F001031847704700BF9D
:1017A00050440001402373B50B4C0093041B0B46BF
:1017B0000D460A49A41061430646094A094802F049
:1017C00039FB011E05DA30462B4602B0BDE87040F9
:1017D000184702B070BD00BFF4000021B76DDBB642
:1017E000A33E0001B0420001C9B2012908B508D9E1
:1017F000084909487A2202F0D7F97A21054802F00F
:10180000CAF90C22036901FB0233186C00F00700CF
:1018100008BD00BF1E4E0001F046000170B5C9B200
:10182000012903690AD91849184840F25D1202F0EB
:10183000BBF940F25D11144802F0ADF9EFF31185E8
:10184000202484F31288BFF36F8F0C2606FB01342B
:10185000246C14F0C00408D0A24206D085F311888D
:10186000BFF36F8F4FF0FF3070BD012271430B4407
:101870001A6485F31188BFF36F8F43680B445B686C
:1018800098470020F0E700BF1E4E0001F04600011F
:10189000084B70B5C31A0D4607499B1004465943BF
:1018A00040220648FFF7BAFF2B4601462046BDE816
:1018B00070401847F4000021B76DDBB6B04200015C
:1018C00070B50022012104460520FFF795FD0F4861
:1018D00001F078F80E4B984215D101F083F8266993
:1018E0000C49304602F0BCF900280BDB01253564B9
:1018F0002469084904F11C0002F0B2F9002801DB58
:101900000020E56470BD6FF00400FBE79919000149
:101910000000AD0B6C44000110B5EFF311842023DF
:1019200083F31288BFF36F8F074A136823F0020115
:10193000DB07116002D4012001F0F0F884F3118874
:10194000BFF36F8F10BD00BF440100210C22104B6C
:10195000014602FB0033002030B4D3E90E529863F5
:10196000EFF31180202484F31288BFF36F8F1C6C77
:1019700004F0C00444F002041C6480F31188BFF337
:101980006F8F1DB12B4630BC0248184730BC7047E2
:10199000F4000021B0420001012808B506D0042857
:1019A00008D090B90E4B1B6C5B0717D1BDE80840FF
:1019B000FFF7CCBF0B4940F26E220B4802F0F4F85F
:1019C00040F26E21074802F0E6F8064940F2722222
:1019D000054802F0E9F840F27221F3E708BD00BFC4
:1019E000F40000211E4E0001F046000110B4EFF398
:1019F0001182202383F31288BFF36F8F1748016889
:101A000041F002040460C80707D482F31188BFF3D1
:101A10006F8F012010BC01F00DB81149D1F80C04F2
:101A2000D1F80C14C907F0D5EFF3118083F31288B5
:101A3000BFF36F8F0B490B6C03F0C00343F002033D
:101A40000B6480F31188BFF36F8F82F31188BFF3AB
:101A50006F8F002010BCFFF779BF00BF4401002149
:101A600000500041F40000212DE9F8430122064610
:101A70003D49D1E8EF3FC1E8E02F0028F9D19BB9FB
:101A80003A493B484B60CB608A60FFF735F8002845
:101A90000ADA38494FF40C72374802F085F84FF4EF
:101AA0000C71344802F077F86EB3731E012B52D8D4
:101AB000012E06D1314BD3F81C3403F00303022B63
:101AC00021D002F04CFB0546F8B92D4B1B78E3B151
:101AD00002220746294BC3F808234FF00008274C81
:101AE000DFF8A090D4F81824D4F81834D20315D510
:101AF00003F00303022B01D0012E0FD135B387F37E
:101B00001188BFF36F8FBDE8F883EFF311872023AF
:101B100083F31288BFF36F8F0125DEE7384602F0AA
:101B20003AF9D4F81835DBB2012BDBD1D4F8042113
:101B3000002AD7D0C4F80481D4F804210222C4F8C2
:101B400018252022C9F88021A360CBE702220B4B85
:101B5000C3F80423D7E7074940F24222064802F0BF
:101B600023F840F242219CE7F0000021E000002130
:101B7000100100211E4E0001F046000100500041FE
:101B80009101002100E100E0024B0B600123136092
:101B9000704700BF4801002100487047C044000161
:101BA00010B502F0AFFA034C206002F0A8FA6060B2
:101BB000002010BD4801002170B50C46154602F00A
:101BC0009EFA29460646204602F07DF910B3B4FB82
:101BD000F6F306FB134323B9B5FBF6F306FB1353E9
:101BE00043B12B46224645210D4802F05EF86FF0C6
:101BF000150002E0AE4201D9002070BD02F07FFA6C
:101C0000064604F18074204600F0E6FFAD1B344424
:101C1000F9D1F1E72B46224645210248E5E700BF0E
:101C2000844E0001A84E0001F8B50C461946204626
:101C300016461D4602F047F950B104F180772C4357
:101C400014F003040DD02B463A4645210E4803E01C
:101C50002B46224645210D4802F027F86FF015006B
:101C6000F8BD4DB12B19032BA7EB040006D8084A89
:101C7000D2F80034DB07FBD50020F1E7331B1968ED
:101C800000F0DAFF043CEDE7CA4E0001A84E000167
:101C90000000084170B50D461946284616461C46F8
:101CA00002F011F940B12CB12246304605F18071A5
:101CB00002F0CDFA002007E0044823462A464521D9
:101CC00001F0F3FF6FF0150070BD00BFA84E0001DA
:101CD0000D4B1868010A0006BFF35F8F0B4BD3F85A
:101CE0000435181841F10001B3F5801F0AD2084BE2
:101CF000D3E90023904271EB030303D210F180700B
:101D000041F10001704700BF58010021006001410E
:101D1000300000212DE9F74302F08AF82E4BD3F86A
:101D2000042390070BD5D3F8042142B10022C3F855
:101D300004212A4AD3F80431136801331360264A78
:101D4000D2F80433D90326D5254BD3E8EF1F21F071
:101D50000100C3E8E40F002CF7D1CB0702D4D2F87E
:101D60004031C3B100251C4CC4F84051D4F8403177
:101D7000FFF7AEFFEFF31182202383F31288BFF346
:101D80006F8F184BD3E90267B042B94106D282F394
:101D90001188BFF36F8F03B0BDE8F0834FF0FF38B9
:101DA000D3E900104FF0FF391D60C3E902894FF4F9
:101DB0008033C4F84833C4F84051D4F8403182F33A
:101DC0001188BFF36F8F0029E5D0009032463B4663
:101DD00028468847DFE700BF006001415801002125
:101DE00050010021180000212DE9F74F4FF00108A4
:101DF00008FA00F8144606461D466FEA0802DFF8A6
:101E000030A1DAE8EF3F03EA0201CAE8E01F002848
:101E1000F7D14FF48037DFF81C91B740C9F8087349
:101E2000BFF35F8FBFF36F8F08EA03030093FFF7E1
:101E30004FFFA04271EB05034BD23F4B201A65EBDD
:101E40000101984271F1000156D23C4B03EB06139D
:101E5000D3E902239D4208BF944243D04FF0000BC8
:101E600024F07F4EF446032006F150039B009BB202
:101E700003F1824303F5B033C9F84873C3F800B0E7
:101E80001A6806F5A872019201992CF07F4249F870
:101E900021206FF00202C9F84473D9F80415521AD0
:101EA0006244DFF89CC022F07F4262451AD91A686A
:101EB0005AB1D9F80415A1EB0E0222F07F42B2F517
:101EC000000F0FD9C3F800B01A6800EB010C013005
:101ED000DAE71C4BD3E8EF1F41EA0801C3E8E21F31
:101EE000002AF7D1154918483301C850002301EBE7
:101EF0000612C2E902455360009BABB1DAE8EF3F3E
:101F000043EA0803CAE8E23F002AF7D1094BC3F8C5
:101F100004730C4BD3E8AF3FF340DB0742BF4FF4F1
:101F200080020A4BC3F8002103B0BDE8F08F00BF68
:101F300054010021006001410100800018000021CF
:101F4000FDFF7F0050010021D11F000100E100E0F2
:101F500070B54FF0FF3000254FF0FF31174C184B94
:101F60000226C4F80833C4F84833164BC4F80855A1
:101F7000C3E902014FF480334FF48002C4F8043304
:101F8000114B0121C4F804631620C3F880212A46AE
:101F9000FFF732FA1620FFF713FA01230B4AA3606A
:101FA0002846236013604FF480720023FFF71CFF64
:101FB0003046FFF759FD284670BD00BF0060014163
:101FC00003000F001800002100E100E0540100218F
:101FD000F8B5144922F07F45D1E90063921B140A39
:101FE00022F0FF02921943F10003C1E90023A5F595
:101FF0000011B1F5400F0AD20B4909684FEA112CC4
:1020000009064E1909494CF10007C1E9006712F5AC
:10201000807243F10003FFF7E7FE2046BDE8F84079
:1020200000F08EBF2800002158010021300000215F
:1020300030B5024600240B490B4D0B6805EB03102D
:10204000D0F80808C0B218B904B10B60002007E04E
:102050000133072B4FF00104F0D96FF01B000B6028
:10206000136030BD5C01002100000841F7B5434D0D
:102070000646D5F820320C46B3F5006F174608D057
:102080003F494048212201F08FFD21213C4801F0C9
:1020900082FD01A8FFF7CCFF002867D1D5F82022E8
:1020A000B6FBF2F302FB1363002B61D1D5F82022BB
:1020B000B4FBF2F302FB1343002B59D1D5F82022D5
:1020C000D5F824325343A34252D3002C50D0019B65
:1020D000072B07D92C4977222A4801F065FD772183
:1020E0002948D4E7D5F82012B6FBF1F201FB1262C1
:1020F00032B125497822234801F056FD7821EFE7D7
:10210000D5F82022D5F824124A43944206D91E4914
:1021100079221C4801F048FD7921E1E7D5F8201229
:10212000B4FBF1F201FB124232B117497B22154890
:1021300001F03AFD7B21D3E71B0103F1824101F558
:102140000021C1F80068C1F80448C1F80878D1F846
:10215000002896420FD1D1F8042894420BD1D1F82F
:102160000838DBB29F4218BF6FF00D0003B0F0BD1E
:102170006FF01500FAE76FF00D00F7E70000FF01C0
:10218000114F0001F04600013D4F00010348452179
:1021900008B501F08AFD0020FFF7CEF86F4F00016F
:1021A00038B504468169294801F0E8FC4FF0FF3258
:1021B000274BC3F80823BFF36F8F72B6002325495E
:1021C00003F120000133102B41F82020F8D1002327
:1021D0004FF0FF301F4A03F160010133102B42F82A
:1021E0002100F8D14FF0E02300221A61D3F8042D2A
:1021F00003F5506342F000725A605A6A22F4E022FA
:102200005A62EFF31482920707D5EFF3148222F09B
:10221000020282F31488BFF36F8FBFF34F8FBFF3B7
:102220006F8FA26901219A602046A56900F036FAF5
:1022300058B1002383F30B8883F30A882A6882F35A
:10224000088883F309886B68984738BD914F00016F
:102250000050004100E100E01FB50446074A01AB11
:1022600007CA83E807000C221946204601F07DFFCB
:1022700000280CBF2046002004B010BD1C44000103
:1022800070B505460024054E56F8040B2844FFF7A8
:10229000E3FF10B90134052CF6D170BDC84400012C
:1022A0002DE9F04F814687B010460E4614461D4674
:1022B000D768D2F81080FFF7CFFF38B915B96E484C
:1022C00001F05CFC002007B0BDE8F08FA069484534
:1022D00003D0002DF6D16948F2E71DB9B0420BD00A
:1022E0006748EDE73046FFF7CBFF8442EAD1226A28
:1022F000644B9A42E6D109E0FFF7C2FF844201D065
:102300006148DDE7216A5F4B994232D1E3192CBF66
:10231000012700270DF10A0018EB060A2CBF4FF029
:10232000010B4FF0000B019301F070FE01460028F5
:1023300036D015BB554801F021FC554801F01EFC74
:10234000ADF80A50002F41D1BBF1000F3ED1B4428D
:102350003CD354453AD2019B5F1EBE4233D8BA45A6
:1023600031D918EB0908E36932D3002DAAD14948C5
:10237000A6E7494801F002FCA4E70022ADF80A20D4
:10238000002F9FD1BBF1000F9CD1B4429AD354458A
:1023900098D2019B5F1EBE4294D8BA45E1D891E71E
:1023A0006169BDF80A20914205D2002D8AD13B48CF
:1023B00001F0E4FB86E737B9BBF1000F03D1B4426B
:1023C00001D35445C7D3002D7FF47CAF344877E761
:1023D0004B45CAD34345C8D2321DA2EB0902D3589C
:1023E000994504D9002D7FF46DAF2E4868E79845D4
:1023F000F8D9D4F81090DFF8B0A009EB060707F180
:10240000050B0DF10C089AE8070088E807000C227C
:102410004146384601F0A9FE00B9FFB90137BB4576
:10242000F1D1002D7FF44EAF204849E7002D7FF415
:1024300049AF1F4844E74946304607F1100201F012
:10244000C9FD014620B1002D7FF43CAF194891E74A
:1024500015B9194801F092FB012034E7FA68A36925
:102460009A42E3D101F0AFFD01460028E3D0002DF0
:102470007FF428AF11487DE7A34F0001C34F00014F
:10248000F64F0001FFFF029123500001735000013D
:102490009A5000014A5100014C500001DD500001EA
:1024A0001D5100017651000128440001A351000193
:1024B000D45100012752000153520001075200017C
:1024C00014222DE9F041144B144DD3F8B0350746D2
:1024D00002FB0355284600F0DDFB012803D0002451
:1024E0002046BDE8F0814FF000082C1DAE1C3046A0
:1024F00000F0D0FB4045F2D9A01C00F0CBFB054614
:10250000204600F0C7FBB842EAD0023504EB450490
:1025100008F10108EBE700BF00800001B48500016D
:10252000014BD3F8A8057047008000014FF000531D
:10253000014A1A60704700BF15FCBA254FF00053DE
:1025400018680A4B98420DD003F11C53A3F58B1366
:10255000A3F6CC53984207D0054B98420CBF0120FC
:10256000022070470020704703207047B6B3B4B50F
:102570005DCE03F130B54FF00055184B2A68014687
:102580009A42ADF50F7D26D10023CDE90133EB68EA
:102590000EAA009305A84FF40073FEF7DBFB044678
:1025A00040B1452102460E4801F07FFB20460DF563
:1025B0000F7D30BD0123D5E9011205A801F088FB8C
:1025C000044618B1024645210648EDE74921064870
:1025D00001F06BFBEAE76FF00D04E7E7B6B3B4B5C3
:1025E0006D5200018F520001B95200014FF00053AB
:1025F000014A1A60704700BF5DCE03F12DE9F04338
:10260000224885B001F054FD002604461F4B204FA0
:10261000D3F83880DFF87C90B04503D8002005B0AF
:10262000BDE8F083636A97E807001D6801AB83E8A3
:1026300007000C221946284601F097FD78B975B1BC
:1026400022692B699A420AD1AB69A2699A4206D8DB
:10265000E2699A4203D963696A6993430CD0256A97
:1026600075B10D4801F08AFA002383F31188BFF396
:102670006F8F0423184602DFE36801361C44CBE762
:10268000484601F07BFA636A1D60F5E7000200012D
:1026900034440001F9520001D05200012DE9F04FFD
:1026A00087B00646009198B301F002FD002704466A
:1026B000B36BBB424ED94FF00008DFF8ACA04FF02F
:1026C00000095AF8043BDFF8A4B05BF8045B0193FF
:1026D0001D44274B93E8070003AB83E80700194626
:1026E0000C22284601F041FD019B00B9A5B909F172
:1026F0000109B9F1050FE8D11E4B08F10108984511
:10270000DDD3009B13B10022636A1A60236A3BB3D6
:10271000002007B0BDE8F08F2B6A174A9342EBD137
:10272000AE42E9D0696B05F13C038842E4D02569EB
:102730001A6995420AD19A69A569954206D8E56950
:10274000954203D962695D69AA4305D0DA68013010
:102750001344EAE70120DCE7009A0AB1626A1360D9
:10276000E36801371C44A3E778550001DC4400010D
:102770004044000101000000FFFF02910022D3004D
:1027800003F1FF7303F58033D3F80013013107D051
:10279000D3F800130132D3F80433202A0B60EED1B2
:1027A000224BD3E94C32072B26D1023A032A204B85
:1027B00028D9D3F80024D10732D41C4BD3F83021C8
:1027C000072A19D1D3F83431023B032B02D8194A16
:1027D000D35C8BB17F23184A1849C2F81831002303
:1027E000C1F8043EC1F8083EC2F82431C2F82C31C9
:1027F00002F57F22C2F81031114B1A68114BC3F851
:102800004425704710498A5C002AD2D0D3F80024AE
:10281000D207CED50022C3F81421C3F81821C8E787
:102820006FF00102C3F80024C7E700BF0000FF01FA
:10283000005000412C5300010020004100000841DD
:102840000080FF01006000413053000130B5046892
:10285000ACB1B4FA84F30122C3F11F03DBB29A4096
:1028600024EA0202D0E8EF5FA54204D1C0E8EC2FD1
:10287000BCF1000FF6D1EAD102480B7030BD02481E
:10288000FCE700BF0000AD0B0200AD0B014BC3F82D
:102890000405704700F0004108B541B906490748F2
:1028A000442201F081F94421034801F074F940F019
:1028B0000040C1F8800008BD67530001F0460001E8
:1028C00008B541B9064907484A2201F06DF94A2185
:1028D000034801F060F940F00040C1F8800008BDF5
:1028E00067530001F0460001F7B5324B044650B182
:1028F000012825D030493148DC2201F055F9DC218E
:102900002D4801F048F90222C3F8082301220646A7
:10291000DA60C3F80401D3F80431012342F21075E0
:10292000244F8DF807306CB3012C1AD0244923486A
:102930004FF4747201F038F94FF474712048E0E7F5
:102940000022C3F808035860C3F80021D3F800310F
:102950000DF10706E1E70BB3012001F0B5FB013DE6
:102960001CD0D7F80C3403F48033002EF3D0D7F802
:102970000C2402F001020FE083B1012001F0A4FB5E
:10298000013D0BD0D7F8183403F48033002EF3D078
:10299000D7F8182402F0030232700BB903B0F0BD6F
:1029A0009DF807000128F9D101F08EFB013DBAD155
:1029B000F4E700BF00500041A4530001F0460001BD
:1029C000E1530001044B1A7922B9012218601A71EF
:1029D0000248704702487047600100210000AD0BBB
:1029E0000C00AD0B08B50F4B1A7952B90E490F48C0
:1029F0004FF4987201F0D8F84FF498710A4801F03A
:102A0000CAF81B6833B10520FEF7E8FC10B90520B1
:102A1000FEF7D6FC0122064BC3F81825C3F814258F
:102A200008BD00BF60010021A4530001F046000171
:102A30000050004138B5354C237953B934494FF42F
:102A4000BD72344801F0B0F84FF4BD71304801F068
:102A5000A2F850B101284ED02D494FF4DF722D4815
:102A600001F0A2F84FF4DF71F0E72B4BD3F8181404
:102A7000D3F81824C90323D502F00303022B05D091
:102A8000012B02D00020FFF72FFF0123224A022052
:102A9000C2F8183508224FF48273002103F18243F3
:102AA00003F5A04319601D68012502F1824202F579
:102AB000A0421560226812B3174BC3F804030FE05D
:102AC000D3F81424D207E0D5D3F81C2402F0030273
:102AD000013A012AD6D822681AB10222C3F8042387
:102AE00038BDD3F80421002AFBD00022C3F804210A
:102AF000D3F80431F4E700224FF48073CDE71A686D
:102B0000002AFCD019601B68EAE700BF60010021C1
:102B1000A4530001F04600010050004108B5094BE4
:102B20001B7953B9084909484FF4EC7201F03CF89D
:102B30004FF4EC71044801F02EF8BDE80840FFF7AF
:102B4000D3BE00BF60010021A4530001F046000184
:102B500010B5164BD3F8002152B10020C3F8000184
:102B6000D3F800210122C3F80823114B1B689847B2
:102B70000E4BD3F8042182B10022C3F80421D3F80C
:102B80000421D3F81824D3F81824022102F00302F8
:102B9000012A03D1C3F818159A6010BDC3F80813B1
:102BA000034B0120BDE810401B681847005000414E
:102BB0006001002101460148FFF748BE04000021E2
:102BC000044AD2F80034DB07FBD50160BFF35F8F06
:102BD000704700BF0000084108B500F17F43B3F51E
:102BE000802F04D2C0F30A0363B10E4819E00E49E6
:102BF0000E4840F2071200F0D7FF40F207110A48D2
:102C000000F0C9FF02220A4BC3F804254FF0FF323F
:102C10000260D3F80024D207FBD500220548C3F890
:102C2000042508BD0A00AD0B15540001F046000153
:102C3000000008410000AD0BF8B50D460121044627
:102C400001F046FA50B9104940F295120F4800F0D1
:102C5000ABFF40F295110C4800F09DFF14F0030704
:102C600008D009494FF4CB72084800F09DFF4FF49B
:102C7000CB71F0E7064E2046C6F804152946FFF74B
:102C80009FFFC6F80475F8BD15540001F046000119
:102C900000000841C10708B50AD5094909484FF4A1
:102CA000F67200F081FF4FF4F671054800F073FFF3
:102CB00020F003031B6882070CBF98B2180C08BDF4
:102CC00015540001F046000108B5084A084B93422C
:102CD0000AD908490848172200F066FF172105485D
:102CE00000F059FF1433F2E7FCD308BDD8420001CD
:102CF000B042000151540001F046000173B5044692
:102D00000D46EFF31186202383F31288BFF36F8FF4
:102D1000194A042898BF194B127C94BF53F82030ED
:102D2000174B009245210246164800F0BEFF3DB108
:102D3000EB69C3F308031BB14521134800F0B5FF4D
:102D400000224521114B124800F0AFFF29462046D2
:102D5000FFF71CFA042C08D10E490F48862200F018
:102D600023FF86210B4800F016FF86F31188BFF37E
:102D70006F8F02B070BD00BF68010021F0440001F8
:102D80007454000182540001AF540001D554000175
:102D9000DD540001FA540001F046000138B5094B3A
:102DA00053F82040013053F82050A54200D838BDD8
:102DB000636823B1204601F0B6F90834F5E72368CB
:102DC0009847FAE704450001012208B5084B0320A3
:102DD0001A70FFF7E3FFFEF70DF80420FFF7DEFFA0
:102DE000FDF7F4FB034A137B23F00103137308BDC3
:102DF000910100213800002108B50348034A002151
:102E0000121A01F0A8F908BD180000219401002150
:102E100008B50020FFF7C2FF164B03F5006282F3EE
:102E2000088883F30A880025E023134C84F82230B5
:102E3000E57725766576A57684F82050636A43F4B5
:102E4000E023636284F82350FEF730FAFEF732FB8A
:102E50004FF0FF33A362E362FFF736FF0120FFF775
:102E60009DFF0220FFF79AFF2B462A46294603487A
:102E7000FEF7FEFA9801002100ED00E0C92D0001E7
:102E800008B50648064A0749121A01F066F9BDE876
:102E90000840054A0549064801F05FB900000021D5
:102EA000140000217C550001000000007C55000149
:102EB00000000021034B1B680BB901F077B800201C
:102EC000704700BF8801002130B570B10B4B5B68C3
:102ED00098420AD0036843B1D3E90421D0E90445FC
:102EE000121941EB0501C3E90421D0E90032136056
:102EF0005A600023C0E9003330BD00BF0800002144
:102F000010B50E4B1C689C4204D1FFF7D3FF6FF045
:102F1000004010BDFFF7CEFF002CF8D0D4E90432FA
:102F20001B1A62EBE072B3F1004F72F10001EEDAAE
:102F3000002AACBF18460020EBE700BF08000021C4
:102F40002DE9F84FEFF3118C202383F31288BFF3A0
:102F50006F8FDFF8ACA0DFF8AC900024C9F8000058
:102F6000DAF800000025504508BF0020264FE04653
:102F7000D7E90021D9F8003078B3D0E9046C4FEAE2
:102F8000E37EB3427EEB0C0B05DAF61A6CEB0E0413
:102F9000C0E9046421E0B21841EBE671C0E90445E0
:102FA000C7E90021FFF790FF88F31188BFF36F8F07
:102FB00083689847EFF31188202383F31288BFF3C7
:102FC0006F8FD9F80030DAF800009B1B5045C446DB
:102FD000C9F80030CBD1D7E9002100249A1841EB81
:102FE000E373C7E90023C9F80040FFF789FF2146D2
:102FF00000F0DBFF88F31188BFF36F8FBDE8F88F17
:103000000800002188010021B80000213F2A2DE995
:10301000F041904652D905460C46A2F1400626F0F2
:103020003F064036274F0E44236840341BBA2B64BA
:1030300054F83C3C39461BBA6B6454F8383C28467B
:103040001BBAAB6454F8343C1BBAEB6454F8303C04
:103050001BBA2B6554F82C3C1BBA6B6554F8283C02
:103060001BBAAB6554F8243C1BBAEB6554F8203C02
:103070001BBA2B6654F81C3C1BBA6B6654F8183C00
:103080001BBAAB6654F8143C1BBAEB6654F8103C00
:103090001BBA2B6754F80C3C1BBA6B6754F8083CFE
:1030A0001BBAAB6754F8043C1BBAEB67FDF7F4F8A6
:1030B000B442B9D108F03F00BDE8F0811046BDE848
:1030C000F08100BF1C4500010A4610B514681A497A
:1030D00024BA0464546824BA4464946824BA8464A6
:1030E000D46824BAC464146924BA0465546924BA3F
:1030F0004465946924BA8465D46924BAC465146AA1
:1031000024BA0466546A24BA4466946A24BA84666B
:10311000D46A24BAC466146B24BA0467546B24BA04
:103120004467946B24BA8467D26B12BAC267FDF706
:10313000B3F8002010BD00BF1C4500012DE9F0418F
:103140000027B54CB54BB2B0CDE90043B44BB54EFA
:103150000293B54B1446CDE90363B44B0546059382
:10316000B34B3097069303F17453A3F52303A3F6EF
:10317000924331920793002A40F0848080224FF0DE
:103180003A0C01236E460DEB02078DF880200020DB
:103190004FEA9C0203F1800E012A06EB0E0146F86D
:1031A0000E0024D0022A486021D0032A88601ED055
:1031B000042AC8601BD0052A086118D0062A486175
:1031C00015D0072A886112D0082AC8610FD0092AB1
:1031D00008620CD00A2A486209D00B2A886206D0FD
:1031E0000C2AC86203D00E2A086308BF48631CF08B
:1031F000030F16D02CF0030C6344002103F1C80226
:103200006A443A2B02F8481C0BD003F1C9026A4405
:10321000392B02F8481C04D0CA330DEB030202F824
:10322000481C0023620F62F30703620D62F30F2351
:10323000620B62F317436209394662F31F6330463B
:10324000E400CDF8BB308DF8BF40FFF73DFFDDE96E
:103250000001DDE9022306BA14BA18BA09BADDE999
:10326000042312BA69602A6119BADDE9062312BA89
:103270001BBA2E60AC60E8606961AA61EB6132B094
:10328000BDE8F0816E4630468846FFF7BFFE241A3F
:1032900008EB0403002800F0F580421E022A53D9EF
:1032A00058F8042020928208012A00F0E68059682C
:1032B000022A219100F0BE809968032A229100F031
:1032C000E780D968042A239100F0E7801969052A6C
:1032D000249100F0E7805969062A259100F0E780E3
:1032E0009969072A269100F0E780D969082A279171
:1032F00000F0E780196A092A289100F0ED80596AE8
:103300000A2A299100F0B180996A0B2A2A9100F0CB
:10331000F480D96A0C2A2B9100F00381196B0D2AD5
:103320002C9100F00981596B0E2A2D9106D00F2A9D
:10333000996B18BFDA6B2E9118BF2F9220F00307FC
:1033400082073B4400F0DE80197807F1C8026A4426
:1033500002F8481C7A1C90420FD9591C0978C832CF
:1033600002376A44B84202F8481C06D99B7807F134
:10337000C8020DEB020707F8483C8021431C00F10E
:10338000C8026A44382B309002F8481C6AD93F2B97
:103390002CD80022C8336B443E2803F8482C25D093
:1033A00000F1CA030DEB03013D2801F8482C1DD0A4
:1033B00000F1CB036B443C2803F8482C16D000F1F5
:1033C000CC036B443B2803F8482C0FD000F1CD030D
:1033D0006B443A2803F8482C08D000F1CE036B4424
:1033E000382803F8482C01D18DF8BF2020AF39468A
:1033F0003046FFF769FE3A2803463CD8319CC3F1BA
:103400003A02022A7FF6F9AE5A1C3B2AC3F13B0C62
:1034100088BF4FF0010CBAE667E6096A85AE67BB64
:1034200072F36E3C3AF54FA57F520E518C68059BA6
:10343000ABD9831F082854D008273B4419467A1C6F
:1034400011F801CB07F1C8046C44904204F848CC51
:1034500084D8802100F1C8030DEB03023090431C97
:1034600002F8481C319C20AFC9E7282800F088806A
:1034700028273B44E2E7319CD3E6042826D00427E2
:103480003B44DBE78022012330908DF88020E9E780
:103490000C282CD00C273B44D0E710283BD0102719
:1034A0003B44CBE7142841D014273B44C6E71828F7
:1034B00047D018273B44C1E71C2849D01C273B4470
:1034C000BCE7202850D020273B44B7E780220523C3
:1034D00030908DF88420C5E724283FD024273B4432
:1034E000ACE78022092330908DF88820BAE780224B
:1034F0000D2330908DF88C20B4E72C283AD02C275F
:103500003B449BE7802100F1C8026A443090431C91
:1035100002F8481C3BE78022112330908DF8902060
:10352000A0E7302832D030273B4487E7802215239C
:1035300030908DF8942095E734282DD034273B44E3
:103540007CE718218022192330918DF8982089E793
:1035500080221D2330908DF89C2083E78022252334
:1035600030908DF8A4207DE78022212330908DF8C3
:10357000A02077E780222D2330908DF8AC2071E7D2
:103580008022292330908DF8A8206BE780223123F8
:1035900030908DF8B02065E78022352330908DF88B
:1035A000B4205FE72DE9F04F43688DB015468046A3
:1035B000029383789A0740F10D8100240E78002E43
:1035C00000F00A81252E0BD04B1C03930134414699
:1035D0003046029B98470028C0F2F6800399EDE739
:1035E0004E788B1C252E0393F0D00027B946BB469E
:1035F000BBF11F0F38D8A6F12003102B0AD8DFE843
:1036000003F02A0909300909092109090928092DA6
:1036100009091F00A6F13003092B33D92A2E37D10F
:103620001BF0400F55F8043B40F08280002BA7BFF1
:103630004BF0200B9946C3F100094BF0280B01E039
:103640004BF0010B039B13F8016B0393002ECFD1BA
:1036500030E04BF0020B4BF0040BF3E74BF0080BA0
:10366000F0E74BF0100BEDE7BBF17F0F19D8A6F197
:103670003003092BD2D81BF0400F03D00A2101FBE5
:103680000737DFE70A214BF0200B01FB0939D9E7A7
:103690002E2E06D11BF0400F40F09E804BF0400BC9
:1036A000D0E76C2E31D02BD8682E36D06A2E3CD085
:1036B0004C2E3AD0002F46F02003B8BF2BF040022A
:1036C000A3F16501BCBF00271FFA82FB022901D9C3
:1036D000612B2FD107350727DFF8ACA225F00705AE
:1036E00008351BF0080F66D00AEB070B56465E45FF
:1036F00063D1A4EB0A0AA9EB070906EB0A026FE102
:10370000742E9FD07A2E9DD0D4E71BF0800F18BF67
:103710004BF4007B4BF0800B94E71BF4807F18BFC9
:103720004BF4007B4BF4807B8CE74BF4207B89E7E8
:103730001F4687E7A6F16301122900F2F080DFE857
:1037400011F013004F00EE00EE00EE00EE004F000F
:10375000EE00EE00EE00EE00EE00FE00E900EE00EE
:10376000EE001B00EE00AF0055F8043B01270DF101
:10377000180A8DF81830B4E755F804AB834BBAF14A
:10378000000F08BF9A461BF0400F504614BF394641
:103790004FF0FF3100F0F9FC0746A2E74146202038
:1037A000029B984700280FDB013EB742F6D34C44FA
:1037B000B146A41B98E74E46F7E7414616F8010BC1
:1037C000029B9847002892DA98F8023043F00403ED
:1037D00088F802304FF0FF3420460DB0BDE8F08F7E
:1037E0001BF0800F34D01BF4007F2CD0073525F060
:1037F0000705AA4669685AF8080B2BF0100500293E
:10380000ADB237DA404245F4806561EB41010DF11C
:10381000180B0A235A4600F0C4FCA0EB0B030193DB
:103820006B0662D5019B25F001019F4289B240F3EE
:10383000A180002E00F0998015F0100240F09C80CD
:10384000BB460D4623E0AA465AF8040BC117D4E73D
:10385000AA461BF4807F5AF8041B01D10846F5E7FD
:103860001BF4007F19BF48B241F3C01108B241F305
:10387000C031C2E750EA0103C9D11BF0400FC6D0E6
:10388000002FC4D12BF01102BB46019795B240F234
:10389000064115EA01021CBF0BF1010B00222CE0CE
:1038A0002BF010020A231FFA82FB1BF0800C49D078
:1038B0001BF4007115BF0735AA4625F007055AF815
:1038C000040B1EBFAA4669685AF8080B50EA0105A6
:1038D00045D12BF016051BF0400FADB242D0002FA2
:1038E00040D12BF01702019795B215F0100248D085
:1038F000019B002E42D103F1010B29075AD4EB079B
:1039000006D5D9456FDDA9EB0B030199CB465F18AE
:103910005B4649E04BF0100B10237826C5E7782B67
:1039200004D1C6F1780343F01003BEE741462520D9
:10393000029B98470028FFF647AF023447E608236A
:103940000026B2E7AA461BF480715AF8040BBDD0DA
:103950001BF400711ABFC0B2614680B2B6E72BF00B
:10396000060295B20DF1180B54E725F01105BB4680
:10397000ADB28CE70D46B8E73B460D4603F1020BAE
:10398000BBE7DDF804B082E770550001695500011E
:10399000CDE9043241462020029B98470028FFF6DB
:1039A00013AF049B059A01339945F1DCA4EB0B019D
:1039B0009B46CC180AB341463020029B984700280A
:1039C000FFF602AF8EB901342744391B019B99429F
:1039D00024DC1D4655BB019AA9EB0B095546224430
:1039E0001446914433E0019F92E702344146304649
:1039F000029B98470028E7DAE6E640F206410D42CE
:103A0000E2D015F0020F04F10104414614BF2B204F
:103A1000202015F4806F18BF2D20E9E741463020A3
:103A2000029B013498470028CFDACDE606AB013D72
:103A30004146585D029B98470028CBDAC4E64146D0
:103A40002020029B013498470028FFF6BDAEA9EB69
:103A50000403002BF3DCC1E57047836800EBC10170
:103A6000B3F5004F2CBF51F8220031F81200704717
:103A700000EBC1018068B0F5004F2CBF41F8223047
:103A800021F812307047012208B5FFF7E6FFD04059
:103A900008BD836800EBC101B3F5004F08D34B6844
:103AA0001AB143F001034B60704723F00103FAE7BA
:103AB0004B881AB143F001034B80704723F0010398
:103AC000FAE753000122FFF7D3BFB0F5004F34BF30
:103AD000042308230731C818C00870470A4608B5F0
:103AE0000121FFF7F2FF0132121AB2FA82F0C0F19F
:103AF0001F0008BD2DE9F0410D4686680446FFF71A
:103B0000C2FFB6F5004F014601D3012832D030463E
:103B1000FFF7E4FF04EB80010E6996B90122E36828
:103B200082401343E36002220D612B462946204662
:103B3000FFF79EFF032229462046BDE8F041FFF72C
:103B400097BF022231462046FFF787FF074603460C
:103B500029462046FFF78CFF03223346294620469C
:103B6000FFF786FF39462B462046FFF781FF0222EA
:103B70003146E1E7BDE8F081002070470FB407B59A
:103B800004A951F8040B0191FCF722FE03B05DF883
:103B900004EB04B07047002383F31188BFF36F8FE9
:103BA0000423184602DF70470FB407B504A951F883
:103BB000040B0191FCF70CFE03B05DF804EB04B0BC
:103BC0007047038B13F0070305D10368002B0CBF6C
:103BD000002003207047022B05D1408BB0FA80F003
:103BE000400980007047012B05D10368002B0CBFF2
:103BF0000020052070470020704710B50C4600B12A
:103C000011B96FF0150010BD081D00F03CF8002838
:103C1000F9D1A368032BF6D9F3E72DE9F0410D465E
:103C200007461946281D90461E46FCF7CBFF044662
:103C300038B13346424629463846A446BDE8F041ED
:103C40006047BDE8F08110B4EFF31182202484F3C3
:103C50001288BFF36F8F416110BC0121FCF7D0BD0A
:103C600038B50C46054658B151B10B6843B14B68A5
:103C700033B11C22002100F0F7FA00202C6138BD7E
:103C80006FF01500FBE7034658B1426802F00302EB
:103C9000012A03D0032A04D1026812B100209860DF
:103CA00070476FF01500704770470FB407B504A94F
:103CB00051F8040B0191FCF78BFD03B05DF804EBA8
:103CC00004B0704708B58368DB689847006808BD92
:103CD0002DE9F047894616469846044698B382680F
:103CE0000369134482693344934230D80025D4E9F0
:103CF0000170A6EB050A3F1ABA4515D2B54209D2A2
:103D000023685246184409EB050100F0A0FAA368A5
:103D10005344A360B8F1000F1CD0A068A8B120469E
:103D2000BDE8F047FCF7A8BF23683A46184409EB02
:103D3000050100F08CFA63682046A360FCF79CFF45
:103D400018B93D44D3E76FF00D00BDE8F0876FF080
:103D50000B00FAE74046F8E701460068FDF758B85F
:103D600008B5FDF78DF8BDE8084000F000B87047D1
:103D700000210120FDF74CB861B662B680F31188CE
:103D8000BFF36F8F7047EFF31180202383F3128806
:103D9000BFF36F8F704710B50446FDF72DFC72B668
:103DA000002383F31188BFF36F8FFDF7A3FC50B19D
:103DB000BFF34F8F20BF00BF00BF00BF00BF00BFD9
:103DC00000BF00BF00BF84F31188BFF36F8F62B6DE
:103DD00010BDF0B5D0F80473064617F002001CBF02
:103DE000C2F1807018604FF0000518BF01204FF03D
:103DF000010C4FF4803E0CFA05F40C4214D00EFA7C
:103E000005F43C4210D005F5A87456F82440A41AD5
:103E100034F07F4408BF4FF0807408B91C6002E0A2
:103E20001868A042FAD801200135042DE3D1F0BD75
:103E3000FDF776BBF8B5069F0469C9B2EFF31186AA
:103E4000202585F31288BFF36F8F0C2569430C443E
:103E5000256C05F0070CBCF1010F0BD1276486F32C
:103E60001188BFF36F8FC4E90E2343685B589847EE
:103E70000020F8BD05F0C005AF4286F31188BFF3FE
:103E80006F8F0CBF6FF077004FF0FF30F1E713B585
:103E900080240094FFF7CEFF02B010BD6FF08500C4
:103EA000704710B41C240069CBB203FB040000214E
:103EB00010BC10470020FEF7BDBD0020FEF72EBE4F
:103EC0008022FDF7ABBC38B505460C4600F014F96E
:103ED000002D07DBA84205D9401B84428CBF00207F
:103EE000012038BD0020FCE7F7B51C46002316462C
:103EF00082682360A3600D461369694601AA98474A
:103F0000019B5A1E01921BB96FF0150003B0F0BD62
:103F10000098A26847682168676085B9B31AD0F82D
:103F200000C0634528BF634603FB07111A442160A4
:103F3000A26002689A4206D808300090E0E76B1A47
:103F4000B3FBF7F3EBE70020E0E713460022FFF7AF
:103F5000CBBF2DE9F0470024836886B088469146A0
:103F60001B6902AA01A99847A2462546029BAB42BB
:103F700002D806B0BDE8F0870026019F07EBC50711
:103F80007B6804933A680AEB0603B24202D89A4669
:103F90000135EBE749460394059303A8C047002881
:103FA000E7D0049B01361C44ECE7704700207047C3
:103FB00008B5FDF78DFE08BD0222FEF757B80020B8
:103FC00070470020704708B5FFF7F9FF08B9FFF701
:103FD000F8FF08BD30B589B0154601230A460146F1
:103FE000684600F00EF8044640B92022694628468B
:103FF000FCF724F9002808BF6FF06404204609B0DC
:1040000030BD08B5FFF79AF8002008BD13B5044687
:1040100058B101200DF1060100F043F818B9BDF8C0
:1040200006305B08238002B010BD6FF01500FAE780
:1040300070B5054608460C46FEF722F921460246B1
:1040400001232846BDE87040FEF72AB92DE9F84360
:104050000D461646FEF734FA0446F8B1F5B10230C3
:10406000FEF718FE00278146B8460434B94507D844
:10407000002406B134600020A5F80080BDE8F88374
:104080002046FEF707FEC3439BB2A21C002BF0D0D4
:10409000984538BF984614460137E7E76FF015009A
:1040A000ECE70022FFF7D2BF4FF00053586870478B
:1040B00003465A6B00233C309A4200D17047C168D6
:1040C00001330844F8E7004700F01EB8FEF772BD60
:1040D000034603F17F42B2F5802F08460AD351B15F
:1040E00003F17E4000F50040B0F5607F2CBF00205A
:1040F00001207047012070474FF4802070474FF433
:10410000006070478020704708B1FDF741BB7047E1
:1041100040B1C368587810F001001EBF1878B0FA9B
:1041200080F04009704710B5D0E9003433B9002061
:10413000E268537843F00103537010BD204698475E
:104140000028F4D00028B8BF4042FF28A8BFFF20B5
:10415000E3681870ECE700F087B800F078B8EFF388
:104160000580003818BF012070470139024410B59E
:10417000904201D1002005E0037811F8014FA342DD
:1041800001D0181B10BD0130F2E70246014410B502
:104190008A42134603D01C780132002CF8D1181A39
:1041A00010BDF0B5C3F13707044603F01F031046F6
:1041B000FFB2082BE6B232D0102B3DD06508A40820
:1041C00045EAC17544EA81748A082D1942EB51020F
:1041D000290941EA02716D1842EB1212290A41EADB
:1041E00002616D1842EB1222290C41EA02416D185E
:1041F00042EB1242AD1842F10002EC0844EA42746C
:10420000D10804EB8402A6EB4205EDB2092D0CD9CE
:104210000134A5F10A0541F10001EDB212E0E40814
:1042200006F0070544EA4174C908303554EA010232
:1042300000F8015BBDD1F0BD240906F00F0544EA8A
:1042400001740909092D84BFED19EDB2EDE70A44A7
:10425000431E914200D1704710B511F8014B9142B5
:1042600003F8014FF9D110BD02440346934200D137
:10427000704703F8011BF9E7451500010000000035
:10428000C1180001B0420001511F000100000000F0
:104290005515000100000000FD14000100000000A1
:1042A000A11B0001C4420001FD2500010000000027
:1042B0005B4E000178440001904400011000002191
:1042C000F4000021ED4E000100000000AC440001AC
:1042D000120000210000000000000000713D0001FC
:1042E00000000000713D000100000000713D000170
:1042F00000000000713D000100000000713D000160
:10430000512B0001C740000100000000713D000179
:1043100000000000713D000100000000713D00013F
:1043200000000000713D000100000000713D00012F
:1043300000000000713D000100000000713D00011F
:1043400000000000713D000100000000713D00010F
:1043500000000000713D000100000000713D0001FF
:1043600000000000713D000100000000713D0001EF
:1043700000000000713D000100000000713D0001DF
:1043800000000000713D000100000000151D00014B
:1043900000000000713D000100000000713D0001BF
:1043A00000000000713D000100000000713D0001AF
:1043B00000000000713D000100000000713D00019F
:1043C00000000000713D0001B5480001030000003D
:1043D0000847000103000000764E000103000000C2
:1043E000854F000103000000074F0001030000009B
:1043F0006655000103000000CC52000103000000DC
:104400001A4E000103000000FFFFFFFFFFFFFFFF48
:10441000DEE61E284CBBCE8F02350000DEE61E28ED
:104420004CBBCE8F02350000DEE61E288384518609
:1044300002350100DEE61E28EAAC45B80235000070
:10444000DEE61E284CBBCE8F0235000000000000C7
:104450000338FDD870470000000000000002000093
:10446000000400000008000000100000A517000173
:104470009118000100000000ED1900011919000158
:104480006A4E0001B53E0001BB3E0001704E0001C6
:104490009D3E0001C13E00018F3E00010000000072
:1044A000E91700010000000000000000951C000159
:1044B000291C0001B91B0001991B0001891B000187
:1044C00004000000FF0000000000000000020000E7
:1044D00000040000000800000010000000000000C0
:1044E00000020000000400000008000000100000AE
:1044F0001C5500012A5500013E5500014D55000193
:1045000059550001784200017842000188420001BB
:1045100090420001B0420001B0420001982F8A424F
:1045200091443771CFFBC0B5A5DBB5E95BC2563905
:10453000F111F159A4823F92D55E1CAB98AA07D81D
:10454000015B8312BE853124C37D0C55745DBE7240
:10455000FEB1DE80A706DC9B74F19BC1C1699BE4C0
:104560008647BEEFC69DC10FCCA10C246F2CE92D50
:10457000AA84744ADCA9B05CDA88F97652513E9874
:104580006DC631A8C82703B0C77F59BFF30BE0C67B
:104590004791A7D55163CA0667292914850AB72709
:1045A00038211B2EFC6D2C4D130D385354730A65A6
:1045B000BB0A6A762EC9C281852C7292A1E8BFA27D
:1045C0004B661AA8708B4BC2A3516CC719E892D1E5
:1045D000240699D685350EF470A06A1016C1A41968
:1045E000086C371E4C774827B5BCB034B30C1C3967
:1045F0004AAAD84E4FCA9C5BF36F2E68EE828F7426
:104600006F63A5781478C8840802C78CFAFFBE903F
:10461000EB6C50A4F7A3F9BEF27871C6466C6173D7
:104620006820646576696365206E6F7420726561C9
:1046300064790A004661696C656420746F20707249
:104640006F746563742062306E20666C6173682CD1
:104650002063616E63656C20737461727475700A97
:104660000D00556E61626C6520746F2066696E6422
:104670002076616C6964206669726D77617265206D
:10468000696E736964652025700A0D004661696C66
:10469000656420746F207472616E73666572206940
:1046A0006D6167653A2025640A0D004661696C6595
:1046B0006420746F2070726F746563742061707011
:1046C00020666C6173683A2025640A0D00574553D3
:1046D000545F544F504449522F7A65706879722F55
:1046E0006C69622F686561702F686561702E630068
:1046F000415353455254494F4E204641494C204066
:104700002025733A25640A0063627072696E7466CC
:104710005F7061636B61676500574553545F544F29
:10472000504449522F7A65706879722F6C69622FF4
:104730007574696C732F6F6E6F66662E63005745D4
:1047400053545F544F504449522F7A6570687972C0
:104750002F6C69622F7574696C732F6E6F74696644
:10476000792E630025633A20427566666572207370
:10477000697A652069732062696767657220746869
:10478000616E20706167650A0025633A2045727288
:104790006F72202564207768696C65206765747482
:1047A000696E67207061676520696E666F0A002513
:1047B000633A204572726F72202564207768696CB5
:1047C000652065726173696E6720706167650A00B4
:1047D00025633A2073747265616D5F666C617368FE
:1047E0005F65726173655F706167652065727220D5
:1047F0002564206F66667365743D30782530387A9D
:10480000780A0025633A20666C6173685F77726985
:104810007465206572726F72202564206F666673FE
:1048200065743D30782530387A780A0025633A205F
:10483000666C6173682072656164206661696C658D
:10484000643A2025640A0025633A2063616C6C6237
:1048500061636B206661696C65643A2025640A00B7
:1048600025633A204275666665722073697A652011
:104870006973206E6F7420616C69676E6564207463
:104880006F206D696E696D616C2077726974652D3A
:10489000626C6F636B2D73697A650A0025633A2039
:1048A000496E636F727265637420706172616D65C9
:1048B0007465720A0053545245414D5F464C415352
:1048C00048002A2A2A20426F6F74696E67206E5250
:1048D0004620436F6E6E6563742053444B207632DE
:1048E0002E372E302D3563623835353730636134DD
:1048F00033202A2A2A0A002A2A2A205573696E6739
:10490000205A6570687972204F532076332E362EE8
:1049100039392D3130306265666337306337342082
:104920002A2A2A0A0025633A2072302F61313A2060
:1049300020307825303878202072312F61323A20AB
:1049400020307825303878202072322F61333A2099
:10495000203078253038780A0025633A2072332FCA
:1049600061343A2020307825303878207231322F67
:1049700069703A2020307825303878207231342F11
:104980006C723A20203078253038780A0025633A56
:104990002020787073723A20203078253038780AD9
:1049A0000025633A204661756C74696E6720696EF4
:1049B000737472756374696F6E2061646472657379
:1049C0007320287231352F7063293A2030782530D2
:1049D00038780A0025633A20556E68616E646C650C
:1049E00064204952516E3A2025640A0025633A201A
:1049F0002A2A2A2A2A205553414745204641554C08
:104A000054202A2A2A2A2A0A0025633A20202044F0
:104A100069766973696F6E206279207A65726F0AB0
:104A20000025633A202020556E616C69676E6564CD
:104A3000206D656D6F7279206163636573730A0021
:104A400025633A202020537461636B206F76657272
:104A5000666C6F772028636F6E746578742061725E
:104A60006561206E6F742076616C6964290A002587
:104A7000633A2020204E6F20636F70726F636573FE
:104A8000736F7220696E737472756374696F6E737D
:104A90000A0025633A202020496C6C6567616C2010
:104AA0006C6F6164206F66204558435F52455455D2
:104AB000524E20696E746F2050430A0025633A20DD
:104AC0002020496C6C6567616C20757365206F668A
:104AD0002074686520455053520A0025633A20200F
:104AE00020417474656D707420746F2065786563FF
:104AF00075746520756E646566696E656420696E9F
:104B0000737472756374696F6E0A0025633A202AA4
:104B10002A2A2A2A20425553204641554C54202AFD
:104B20002A2A2A2A0A0025633A2020205374616326
:104B30006B696E67206572726F720A0025633A2096
:104B40002020556E737461636B696E6720657272A5
:104B50006F720A0025633A202020507265636973E2
:104B600065206461746120627573206572726F7272
:104B70000A0025633A2020204246415220416464C5
:104B8000726573733A20307825780A0025633A20DD
:104B90002020496D7072656369736520646174617A
:104BA00020627573206572726F720A0025633A2065
:104BB0002020496E737472756374696F6E2062751C
:104BC00073206572726F720A0025633A202A2A2ABE
:104BD0002A2A204D5055204641554C54202A2A2A35
:104BE0002A2A0A0025633A202020537461636B69E6
:104BF0006E67206572726F722028636F6E746578BD
:104C0000742061726561206D696768742062652037
:104C10006E6F742076616C6964290A0025633A20FE
:104C20002020446174612041636365737320566979
:104C30006F6C6174696F6E0A0025633A2020204D05
:104C40004D46415220416464726573733A20307856
:104C500025780A0025633A202020496E7374727506
:104C60006374696F6E204163636573732056696F67
:104C70006C6174696F6E0A00574553545F544F500E
:104C80004449522F7A65706879722F617263682F78
:104C900061726D2F636F72652F636F727465785FD9
:104CA0006D2F6661756C742E630052657365727644
:104CB000656420457863657074696F6E20280053C1
:104CC000707572696F757320696E74657272757034
:104CD000742028495251200025633A2053505345EF
:104CE0004C20696E20746872656164206D6F646524
:104CF00020646F6573206E6F7420696E64696361F0
:104D00007465205053500A0025633A202A2A2A2A23
:104D10002A2048415244204641554C54202A2A2AF0
:104D20002A2A0A0025633A202020427573206661F2
:104D3000756C74206F6E20766563746F7220746179
:104D4000626C6520726561640A0025633A20202048
:104D50004465627567206576656E740A0025633A5E
:104D60002020204661756C7420657363616C6174EA
:104D7000696F6E20287365652062656C6F77290AFC
:104D80000025633A20415243485F455843455054FB
:104D9000207769746820726561736F6E2025780AC8
:104DA0000A0025633A202A2A2A2A2A2044656275A5
:104DB00067206D6F6E69746F7220657863657074BB
:104DC000696F6E202A2A2A2A2A0A0025633A202A95
:104DD0002A2A2A2A20257320256429202A2A2A2AD9
:104DE0002A0A00574553545F544F504449522F7A72
:104DF00065706879722F617263682F61726D2F63BD
:104E00006F72652F636F727465785F6D2F69727151
:104E10005F6D616E6167652E6300736F6300574558
:104E200053545F544F504449522F7A6570687972D9
:104E30002F647269766572732F636C6F636B5F6347
:104E40006F6E74726F6C2F636C6F636B5F636F6EEA
:104E500074726F6C5F6E72662E6300636C6F636B4F
:104E6000403431303035303030006866636C6B0070
:104E70006C66636C6B00636C6F636B5F636F6E7407
:104E8000726F6C0025633A20756E616C69676E65A0
:104E90006420616464726573733A20307825303819
:104EA0006C783A257A750A0025633A20696E766136
:104EB0006C696420616464726573733A203078258C
:104EC00030386C783A257A750A0025633A206E6F7F
:104ED0007420776F72642D616C69676E65643A2027
:104EE00030782530386C783A257A750A00666C611E
:104EF00073682D636F6E74726F6C6C6572403431C1
:104F000030383030303000666C6173685F6E7266C6
:104F100000574553545F544F504449522F6E7266A8
:104F20002F6C69622F6670726F746563742F667080
:104F3000726F746563745F61636C2E6300574553D1
:104F4000545F544F504449522F6D6F64756C6573B4
:104F50002F68616C2F6E6F726469632F6E72667852
:104F60002F68616C2F6E72665F61636C2E6800251E
:104F7000633A20526573657474696E672073797340
:104F800074656D0A00666174616C5F6572726F7240
:104F900000426F6F74696E67202830782578292E5B
:104FA0000D0A00496E76616C6964206669726D77DE
:104FB00061726520696E666F20666F726D61742E16
:104FC0000A0D00546865206669726D77617265200C
:104FD000646F65736E27742062656C6F6E67206105
:104FE000742064657374696E6174696F6E206164A6
:104FF00064722E0A0D0073726320616E6420647304
:1050000074206D75737420626520657175616C2004
:10501000666F72206C6F63616C2063616C6C732EC1
:105020000A0D004669726D7761726520696E666F60
:1050300020646F65736E277420706F696E742074BE
:105040006F20697473656C662E0A0D00466972776D
:105050006D61726520686173206265656E20696E9E
:1050600076616C6964617465643A20307825782EC5
:105070000A0D0043616E6E6F742072656164207466
:105080006865206669726D776172652076657273F6
:10509000696F6E2E2025640A0D00576520617373B9
:1050A000756D652074686973206973206475652067
:1050B000746F20746865206669726D77617265200F
:1050C00076657273696F6E206E6F74206265696EAB
:1050D0006720656E61626C65642E0A0D0046697218
:1050E0006D776172652076657273696F6E20282511
:1050F000752920697320736D616C6C65722074680A
:10510000616E206D6F6E6F746F6E696320636F7573
:105110006E74657220282575292E0A0D0046697265
:105120006D7761726520696E666F206973206E6F9E
:10513000742077697468696E207369676E6564208E
:10514000726567696F6E2E0A0D00426F6F74206181
:10515000646472657373206973206E6F742077695D
:105160007468696E207369676E656420726567692B
:105170006F6E2E0A0D0052657365742068616E644F
:105180006C6572206973206E6F742077697468692A
:105190006E207369676E656420726567696F6E2E35
:1051A0000A0D00436F756C64206E6F742066696E23
:1051B000642076616C6964206669726D77617265DE
:1051C0002076616C69646174696F6E20696E666FC8
:1051D0002E0A0D0056616C69646174696F6E2069F6
:1051E0006E666F20646F65736E27742062656C6FE6
:1051F0006E6720746F2074686973206669726D77BA
:105200006172652E0A0D00626C5F63727970746F53
:105210005F696E697428292072657475726E6564A1
:105220002025642E0A0D004669726D776172652033
:1052300076616C69646174696F6E206661696C6522
:10524000642077697468206572726F722025642EFD
:105250000A0D004669726D77617265206861736836
:105260002076657269666965642E0A0D0025633AC9
:105270002073747265616D5F666C6173685F696EDF
:105280006974206661696C65643A2025640A0025AA
:10529000633A2073747265616D5F666C6173685FF9
:1052A00062756666657265645F77726974652066AB
:1052B00061696C3A2025640A0025633A20547261C2
:1052C0006E7366657220646F6E650A0070636400B9
:1052D0004552524F523A2043616E6E6F742066758C
:1052E0006C66696C6C204558545F4150492072656A
:1052F00071756573742E0D0A005741524E494E4721
:105300003A204F7074696F6E616C204558545F414C
:1053100050492072657175657374206E6F742066D4
:10532000756C66696C6C65642E0D0A0000000001E6
:1053300001000000574553545F544F504449522FC9
:105340006D6F64756C65732F68616C2F6E6F72641E
:1053500069632F6E7266782F68616C2F6E72665F5C
:10536000647070692E6800574553545F544F504421
:1053700049522F6D6F64756C65732F68616C2F6E69
:105380006F726469632F6E7266782F68656C7065E2
:1053900072732F6E7266785F677070695F64707089
:1053A000692E6300574553545F544F504449522F60
:1053B0006D6F64756C65732F68616C2F6E6F7264AE
:1053C00069632F6E7266782F647269766572732FC7
:1053D0007372632F6E7266785F636C6F636B2E639C
:1053E00000574553545F544F504449522F6D6F64DA
:1053F000756C65732F68616C2F6E6F726469632FB3
:105400006E7266782F68616C2F6E72665F636C6F68
:10541000636B2E6800574553545F544F50444952B4
:105420002F6D6F64756C65732F68616C2F6E6F7272
:105430006469632F6E7266782F6472697665727321
:105440002F7372632F6E7266785F6E766D632E6354
:1054500000574553545F544F504449522F7A65705A
:105460006879722F6B65726E656C2F6465766963FF
:10547000652E6300556E6B6E6F776E206572726F6E
:10548000720025633A203E3E3E205A45504859520C
:1054900020464154414C204552524F522025643AF7
:1054A000202573206F6E204350552025640A002567
:1054B000633A204661756C7420647572696E67206A
:1054C000696E746572727570742068616E646C695F
:1054D0006E670A0A00756E6B6E6F776E0025633A11
:1054E0002043757272656E74207468726561643AE7
:1054F00020257020282573290A00574553545F54EE
:105500004F504449522F7A65706879722F6B6572DB
:105510006E656C2F666174616C2E6300435055207C
:10552000657863657074696F6E00556E68616E644E
:105530006C656420696E7465727275707400537462
:1055400061636B206F766572666C6F77004B657276
:105550006E656C206F6F7073004B65726E656C20AA
:1055600070616E6963006F7300286E756C6C290042
:105570002A666C6F61742A0000000001793B00010B
:10558000FFFFFFFF080000210800002100000000CD
:0455900015E015E02D
:1085A800008800010088000101000000FFFFFA5068
:1085B800A7759A4611158508260650749D2F5D905B
:1085C800010001000100F000FFFFFFFFFFFFFFFFB8
:1085D800FFFFFFFFFFFFFFFFFFFFFFFFFFFFFFFFA3
:1085E800FFFFFFFFFFFFFFFFFFFFFFFFFFFFFFFF93
:1085F800FFFFFFFFFFFFFFFFFFFFFFFFFFFFFFFF83
:10860800FFFFFFFFFFFFFFFFFFFFFFFFFFFFFFFF72
:10861800FFFFFFFFFFFFFFFFFFFFFFFFFFFFFFFF62
:10862800FFFFFFFFFFFFFFFFFFFFFFFFFFFFFFFF52
:10863800FFFFFFFFFFFFFFFFFFFFFFFFFFFFFFFF42
:10864800FFFFFFFFFFFFFFFFFFFFFFFFFFFFFFFF32
:10865800FFFFFFFFFFFFFFFFFFFFFFFFFFFFFFFF22
:10866800FFFFFFFFFFFFFFFFFFFFFFFFFFFFFFFF12
:10867800FFFFFFFFFFFFFFFFFFFFFFFFFFFFFFFF02
:10868800FFFFFFFFFFFFFFFFFFFFFFFFFFFFFFFFF2
:10869800FFFFFFFFFFFFFFFFFFFFFFFFFFFFFFFFE2
:1086A800FFFFFFFFFFFFFFFFFFFFFFFFFFFFFFFFD2
:1086B800FFFFFFFFFFFFFFFFFFFFFFFFFFFFFFFFC2
:1086C800FFFFFFFFFFFFFFFFFFFFFFFFFFFFFFFFB2
:1086D800FFFFFFFFFFFFFFFFFFFFFFFFFFFFFFFFA2
:1086E800FFFFFFFFFFFFFFFFFFFFFFFFFFFFFFFF92
:1086F800FFFFFFFFFFFFFFFFFFFFFFFFFFFFFFFF82
:10870800FFFFFFFFFFFFFFFFFFFFFFFFFFFFFFFF71
:10871800FFFFFFFFFFFFFFFFFFFFFFFFFFFFFFFF61
:10872800FFFFFFFFFFFFFFFFFFFFFFFFFFFFFFFF51
:10873800FFFFFFFFFFFFFFFFFFFFFFFFFFFFFFFF41
:10874800FFFFFFFFFFFFFFFFFFFFFFFFFFFFFFFF31
:10875800FFFFFFFFFFFFFFFFFFFFFFFFFFFFFFFF21
:10876800FFFFFFFFFFFFFFFFFFFFFFFFFFFFFFFF11
:10877800FFFFFFFFFFFFFFFFFFFFFFFFFFFFFFFF01
:10878800FFFFFFFFFFFFFFFFFFFFFFFFFFFFFFFFF1
:10879800FFFFFFFFFFFFFFFFFFFFFFFFFFFFFFFFE1
:0887A800FFFFFFFFFFFFFFFFD1
:00000001FF
