:020000021000EC
:10C00000E8CC002091DC0100B15F02007DDC010082
:10C010007DDC01007DDC01007DDC01007DDC0100B8
:10C0200000000000000000000000000055DE0100DC
:10C030007DDC0100000000000DDE01007DDC010060
:10C04000DDDF0100DDDF0100DDDF0100DDDF0100FC
:10C05000DDDF0100DDDF0100DDDF0100DDDF0100EC
:10C06000DDDF0100DDDF0100DDDF0100DDDF0100DC
:10C07000DDDF0100DDDF0100DDDF0100DDDF0100CC
:10C08000DDDF0100DDDF0100DDDF0100DDDF0100BC
:10C09000DDDF0100DDDF0100DDDF0100DDDF0100AC
:10C0A000DDDF0100DDDF0100DDDF0100DDDF01009C
:10C0B000DDDF0100DDDF0100DDDF0100DDDF01008C
:10C0C000DDDF0100DDDF0100DDDF0100DDDF01007C
:10C0D000DDDF0100DDDF0100DDDF0100DDDF01006C
:10C0E000DDDF0100DDDF0100DDDF0100DDDF01005C
:10C0F000DDDF0100DDDF0100DDDF0100DDDF01004C
:10C10000DDDF0100DDDF0100DDDF0100DDDF01003B
:10C11000DDDF0100DDDF0100DDDF0100DDDF01002B
:10C12000DDDF0100DDDF0100DDDF0100DDDF01001B
:10C13000DDDF0100DDDF0100DDDF0100DDDF01000B
:10C14000DDDF0100DDDF0100DDDF0100DDDF0100FB
:04C15000DDDF01002E
:10C1540053B94AB9002908BF00281CBF4FF0FF316A
:10C164004FF0FF3000F00CB8ADF1080C6DE904CECF
:10C1740000F008F8DDF804E0DDE9022304B07047BC
:10C18400704700BF2DE9F04786468C460846089E56
:10C19400154674461946002B40F0C1808542B2FA18
:10C1A40082F245D94AB1C2F1200300FA02FC95405B
:10C1B40094402EFA03F343EA0C0C4FEA154EA8B24E
:10C1C400230CBCFBFEF80EFB18CC08FB00F943EA79
:10C1D4000C43994528D9EB1808F1FF3704D2994547
:10C1E40002D9A8F102072B44A3EB0903A4B2B3FBC1
:10C1F400FEFC0EFB1C330CFB00F044EA0344A0429B
:10C2040014D92C190CF1FF3304D2A04202D9ACF199
:10C2140002032C44241A43EA07401EB1D4400023ED
:10C2240034607360BDE8F0874746DDE76346F1E7B5
:10C2340092BB431B01214FEA154EAFB2200CB3FB56
:10C24400FEFC0EFB1C330CFB07F840EA0343984545
:10C2540061D9EB180CF1FF3004D2984502D9ACF146
:10C2640002002B44A3EB0803A4B2B3FBFEFC0EFBB9
:10C274001C330CFB07F744EA0344A7424DD92C199D
:10C284000CF1FF3304D2A74202D9ACF102032C44CF
:10C29400E41B43EA0040C0E7C2F120039540944008
:10C2A40020FA03F12EFA03F34FEA154E9040AFB291
:10C2B4000343B1FBFEFC0EFB1C10190C0CFB07F82E
:10C2C40041EA0041884522D969180CF1FF3004D2B3
:10C2D400884502D9ACF102002944A1EB08019BB2C4
:10C2E400B1FBFEFC0EFB1C110CFB07F743EA0143F8
:10C2F4009F420ED9EB180CF1FF3104D29F4202D9B0
:10C30400ACF102012B44DB1B41EA004193E7604698
:10C31400E3E76146F7E76046A4E76346B8E783428C
:10C3240006D916B9002108467CE7C6E900E0F9E71A
:10C33400B3FA83F78FB9834201D3724508D8BEEBB1
:10C34400020460EB030301209C461EB9002169E747
:10C354003846FAE7C6E9004CF8E7C7F1200CBB40C1
:10C364000EFA07F522FA0CF42EFA0CF1BA401C432B
:10C3740020FA0CF3B8404FEA144901431FFA84FE33
:10C38400B3FBF9F809FB18300B0C08FB0EFA43EA6F
:10C3940000439A4540D9E31808F1FF3004D29A4586
:10C3A40002D9A8F102002344A3EB0A0389B2B3FB28
:10C3B400F9F809FB183308FB0EFE41EA03418E45E8
:10C3C4002CD9611808F1FF3304D28E4502D9A8F1A3
:10C3D4000203214443EA0040A1EB0E01A0FB0298B2
:10C3E4004145CE46434602D306D14D4504D20138D9
:10C3F400B9EB020E68EB0403002EA7D0B5EB0E02D6
:10C4040061EB030101FA0CFC22FA07F3F9404CEA50
:10C414000303C6E9003199E74046C5E74346D9E737
:10C42400034613F8012B002AFBD1181A0138704770
:10C434002DE9F0438DB03E4C20460AF041FD002822
:10C444006CD042F64123ADF8083002AB06930223C8
:10C4540007938DF82030A36801229D682046382375
:10C4640006A9A84720B141223821324809F0E4FA4C
:10C4740041F24203ADF80C3003AB06930223079359
:10C484008DF82030A36801229D682948382306A925
:10C49400A84720B142223821264809F0CDFA244F7A
:10C4A400DFF89480254E00230493ADF814308DF802
:10C4B400203004AB099306230DF1070250250692A0
:10C4C4000A93012207238DF8075007928DF82C3028
:10C4D400A3680222D3F808903846382306A9C8472F
:10C4E40020B12A463821404609F0A6FA304609F020
:10C4F400A3FABDF81010124809F09EFABDF8121004
:10C50400104809F099FABDF814100F4809F094FA8C
:10C5140000214FF4004007F0ABFBC4E721680B484F
:10C5240009F08AFA4FF0FF300DB0BDE8F08300BF88
:10C53400B07A0200E38302001C84020054840200E7
:10C54400758402008584020097840200C883020077
:10C55400014B1B68184700BFB0A0002030B585B060
:10C5640004460D461022002168460BF046F90223CA
:10C574008DF80230044B2A4621466846019307F0A1
:10C584003BFF05B030BD00BF55C50100014B18602D
:10C59400704700BFB0A0002080B505460E46174680
:10C5A400984607F0A1FB03460BF0EEF90446DFF8CA
:10C5B4001890424649F8003039463046A84754F8A6
:10C5C400090001F0CBFB00BF080000002DE9F04793
:10C5D400058B04462807904611D4022905F0070567
:10C5E40040F0CC80204609F04FFA78B10138218B15
:10C5F400042811D8DFE800F0C2106D8595000129E8
:10C604000CBF45F0100545F02005258388F31188FB
:10C61400BFF36F8FBDE8F08701F0070AAA4500F069
:10C62400A5800027B9463E46A368002B00F0BC80D5
:10C6340041F00801218388F31188BFF36F8FA1684B
:10C64400002900F0BA800D68002900F0B680334656
:10C6540052462046D1F80480C047002D76D02B687E
:10C6640029461D46F0E701F007035A1F012A1BD88B
:10C67400002221F00701062B276889B2C4E90022B1
:10C6840009D13B4603E0628B013262831B68002BB5
:10C69400F9D141F002012046218309F0F5F900287F
:10C6A4007AD041F0200176E0042B0AD121F0070171
:10C6B40089B22046218309F0E7F910B141F0200145
:10C6C4002183218B01F0070AAA454FD00027B946E0
:10C6D400AAE7236921F0070141F00601062DD3F8EA
:10C6E400009021832DD1B9F1000F3FD041F0080112
:10C6F400218388F31188BFF36F8F20463949C847D7
:10C7040029E021F00701236941F0040189B2042DD5
:10C71400D3F804902183E6D000274FF0040A3E4664
:10C7240082E721F00701236941F0050189B2052D53
:10C73400D3F808902183D6D000274FF0050A3E464F
:10C7440072E700274FF0060A3E466DE72B4687E75F
:10C75400B9F1000FD1D1EFF31188202383F31288AC
:10C76400BFF36F8F238B23F008032383258BEA0603
:10C774002ED525F01003238305F007056669218B68
:10C78400002EBFF670AF00232768C4E9003321F000
:10C79400070141F001012183218B4FF0000901F0D1
:10C7A400070AAA457FF440AF002F9CD041F008014E
:10C7B400218388F31188BFF36F8F002FC8D03D68A1
:10C7C400394633465246204609F08AF92F46F4E7A3
:10C7D400AB067FF51BAF25F02003238305F0070587
:10C7E40000E700BF115B0200014B036000207047AB
:10C7F400E87F0200F0B40C4B0C4E5F6A0C4BB34262
:10C8040003D36FF08500F0BC70475D68BD4209D367
:10C814001C693CB195F802C00579AC4502D12346A8
:10C82400F0BC18472433EAE760A80020C0A4002025
:10C834009CA400202DE9F04705460E461746124CED
:10C84400DFF84880DFF84890444503D36FF0850053
:10C85400BDE8F0876268D9F824309A4212D3A369FC
:10C8640083B190782979884205D13A4631462846E1
:10C87400BDE8F04718475279012A03D13A463146B8
:10C88400284698472434DFE79CA40020C0A4002055
:10C8940060A800202DE9F04105460E4617460A4CD3
:10C8A400DFF82880444502D36FF0850009E063690E
:10C8B4000BB92434F6E73A4631462846984700280F
:10C8C400F7D1BDE8F08100BF9CA40020C0A40020E3
:10C8D40010B5044609F04DFC10F1780F00D050B9A2
:10C8E400204609F08AFA044AD2F8C43023EA000345
:10C8F4000020C2F8C43010BD60A800200022024B02
:10C904001A605A60704700BF1BA9002070B50B4B1A
:10C914000B4CA34201D3002070BD0022196A1E7F74
:10C924000439D5B2AE4201D82433F2E7013211F80A
:10C9340032508542F5D10120EEE700BF9CA40020CF
:10C94400C0A4002008B509480378C3F341130A338F
:10C9540050F823303BB100F1080200F11001984770
:10C96400C043C00F08BD1846FCE700BF60A8002004
:10C9740004282DE9F14F04460F46DFF8949016D0B1
:10C9840001282DD1DFF88C8098F8B93043B300F03A
:10C99400D9FD214D4D4520D24FF0000AD5F820B0E5
:10C9A4002B7F5FFA8AF6B34204D82435F2E7FFF707
:10C9B400A5FFE7E70BEBC606307909F0DAFB024680
:10C9C400307909F01AFAD8F8C430002A23EA0003AF
:10C9D400C8F8C4300AF1010AE2DA002388F8B93051
:10C9E4000D4D4D4508D30B4B1B6A6BB139462046A0
:10C9F40001B0BDE8F04F1847EB681BB13A46214639
:10CA0400284698472435ECE701B0BDE8F08F00BF15
:10CA1400C0A4002060A800209CA4002073B5C4B268
:10CA240063060D468DF8074007D02046FFF76EFFDA
:10CA340078B10D4B93F8BA0058B120460A4E55B15F
:10CA440002F0D6F9F3691BB108200DF107019847EC
:10CA5400012002B070BD02F0F3F9F369002BF7D0A6
:10CA640009200DF10701F2E760A8002073B586786C
:10CA74001E4C8DF800600379427943EA0223ADF835
:10CA84000230C378304603F003038DF8043009F014
:10CA9400B4F9D4F8C430054618420BD0304600F03F
:10CAA40033FD3046FFF714FF0AF07DFB10B99620E2
:10CAB40007F0FCF8684602F077F910F1780F03D01C
:10CAC40010B1002002B070BD9DF8000002F0F4F92E
:10CAD40010F1780F01D00028F3D10120D4F8C4302C
:10CAE40084F8B9002B43C4F8C430EBE760A80020F5
:10CAF4002DE9F047924D0446AB690E461746C3B97B
:10CB0400207800F01F00012876D0022800F0DC8095
:10CB140000BB94F900103A68002963782EDA062BDA
:10CB24000CD0082B25D0ABB953700123137002230A
:10CB340003E198470028E3D100200DE06388190A37
:10CB44000A1F012A8C4605D9072903D8DAB26B6A71
:10CB54001C781CB96FF01500BDE8F0875D78654559
:10CB640003D1824200F0E48001302344F0E71B78D3
:10CB7400E3E095F8BA3013700123DEE0052B11D001
:10CB8400092BE7D163886E6A002B32D1FFF7B6FE1A
:10CB9400638885F8BA30EB69002BCDD0032069494E
:10CBA4009847C9E7A07802F0EDF80028C4D0D1E78F
:10CBB4007378042B10D0052B11D0022B04D1777974
:10CBC4006388BB4208BF012033781E443378002BAE
:10CBD400EED10028BED0D9E796F80380F4E7638845
:10CBE400BB42F1D1B8F1000FEED13046FFF73EFF62
:10CBF400EAE7FF27B846E9E795F8BA30D7F800C066
:10CC0400002BA7D06F6AA2883B4694F804E01878FA
:10CC140000289FD05978022904D193F80480F04564
:10CC240000F292800344F2E78CF800308CF8013073
:10CC3400316081E71F4493E00B2B8BD100264FF02A
:10CC4400FF08B246C14606E07B78042B0FD0052BC3
:10CC540021D03B781F443B78002BF5D1EB6913B10D
:10CC6400514607209847002E7FF466AF72E797F885
:10CC74000280A38897F803909845EAD16388994580
:10CC8400E7D1B8F1070F1CD805EB0803BA46012613
:10CC940083F8BB90DDE7A3884345DAD1A3784B45FD
:10CCA4000AD0BE78304600F02FFC3046FFF710FE65
:10CCB400B0FA80F67609CCE73846FFF7D7FE064689
:10CCC400C7E7BA460026C4E794F900206378002A2F
:10CCD40018DA002B7FF43EAF24793F6863060AD04C
:10CCE4002046FFF713FE00283FF434AF95F8BA301E
:10CCF400002B3FF42FAF3946204602F0C1F8002341
:10CD04007B7014E7012B08D0032B7FF423AF6388D7
:10CD1400002B7FF41FAF012103E0618800297FF419
:10CD240019AFA088FFF77AFE00287FF405AF11E75A
:10CD340002293B607FF41BAF5B883360FCE600BFD5
:10CD440060A800201AA9002094F900006378002844
:10CD5400BFF672AF002B3FF467AF0A2B7FF4FAAE35
:10CD64003B78002B3FF4F6AE797804297FF462AF68
:10CD7400B9788A427FF45EAF072A8EBF0023521926
:10CD840092F8BB308CF80030F6E600BF13B5164CB1
:10CD9400237DF3B9E26801AB8020A168019209F018
:10CDA4003BF8019AA3681344A360E3689B1AE36009
:10CDB4006BB962B12369E2889A4208DD94F8C8200D
:10CDC40093FBF2F102FB11330BB90123237502B07B
:10CDD40010BD002380201A461946237502B0BDE811
:10CDE400104002F093B800BF60A80020002330B5C3
:10CDF40085B002460D460193002858D1002935D14B
:10CE040008220B460DEB020109F0CCF9002804DAE4
:10CE1400802001F0EDFF05B030BD2A4C029AC4E930
:10CE240003552260039ABDF80E30626004F13802A3
:10CE3400A2609DF908202575002A0ADB802B04D9FD
:10CE4400802001F0D5FF0020E3E713B1C4E90333E8
:10CE5400E1E7FFF777FD0028DAD0E28823699A42F8
:10CE6400D4BFE260E360FFF791FFD4E7154C01AB58
:10CE7400D4E90215002D04DC09F094F90028CADA7B
:10CE8400C6E72A4609F08EF90028D9DB019AA3687F
:10CE94001344A360E3689B1AE360002BBBD104F145
:10CEA4003803A360FFF74EFD0028DCD1B0E78028EB
:10CEB400B1D1044BDA68002AD5D11B7D002BD2D125
:10CEC400A9E700BF60A80020054B064A58629A6291
:10CED400054A0020DA62054A1A63054A9A617047D6
:10CEE40060A80020F5CA0100F9C7010099C8010033
:10CEF40039C801002DE9F3410446474D4FF0FF3393
:10CF04004FF0FF32454806F017F995F8B830002B7A
:10CF14007BD16B6A83B142482C62E8616E6A02F08D
:10CF24000FF901F0FDFE041E10DA3C4806F07CF90E
:10CF3400204602B0BDE8F08100F0BEF8FFF7C4FF60
:10CF44006B6A002BE7D14FF0FF34EEE700F01CFBD7
:10CF5400041EEADB7378012B5AD1F379002B57D0E6
:10CF64000026684685F8C830ADF802308DF80460B4
:10CF74008DF8006001F018FF041ED6DB8027684698
:10CF84008DF8007001F010FF041ECEDB30462549F9
:10CF940002F0C2F8041EC8DB3846224902F0BCF88D
:10CFA400041EC2DB204CDFF8848044451AD30020E1
:10CFB40001F082FF041EB8DBD5F8C430802043F0B2
:10CFC4000103C5F8C43001F077FF041EADDBD5F8CA
:10CFD400C430002443F48033C5F8C430012385F8F9
:10CFE400B830A2E70026276A227FF3B29A4201D81A
:10CFF4002434DAE707EBC30257F83310107902F050
:10D004008BF801360028EFD09DE76FF077048CE7AA
:10D014006FF0150489E700BF60A80020A8A30020D2
:10D0240075C90100F1CD01009CA40020C0A400201A
:10D0340030B51F4B8BB005AA03F1100514461868D0
:10D044005968083303C4AB422246F7D11B78102237
:10D054002370002101A80AF0D0FB122200211548F8
:10D064000AF0CBFB102101A803F070F900281BDDA6
:10D074000828B8BF082001AB09381A1800200D4948
:10D0840012F8013F0AAC04EB131403F00F03283326
:10D094006B4414F8144C13F8143C013008280C7039
:10D0A4004B7001F10201EBD102480BB030BD00BF5F
:10D0B400A884020055B700202DE9F04F734B87B0C8
:10D0C40093F800B0BBF1000F03D0714807B0BDE87E
:10D0D400F08F6F4C00264FF0011AB0463546B1462A
:10D0E40023783BB96B4B02349C42F3D10123674A4A
:10D0F4001370EAE76378052B1BD8DFE803F08C0391
:10D10400C48C1D39402304A88DF810B0ADF812303A
:10D114008DF814B009F018F840B1082304A8ADF84C
:10D12400123009F011F808B1ADF812B0BDF81230A0
:10D13400E37123781C44D3E7E378002BF9D1A37877
:10D144006BB108F101085FFA88F8F2E76B689C425A
:10D1540007D02435504B9D42F8D30020B6E74F4DFD
:10D16400F8E7AB68002BECD0414620469847E8E747
:10D17400002DF2D000222B7F9A42EED2296AA078A9
:10D1840001EBC2010B79984201D00132F3E7012788
:10D19400E078FBB200F003008DF81400207994F8D5
:10D1A40005C040EA0C20ADF8120094F902000028F2
:10D1B40026DA4FF0010C07F110000CFA00F010EA27
:10D1C4000A0F24D143F080008DF8100004A8CDE9A3
:10D1D4000213019208F0B8FFDDE90121039BB0B905
:10D1E4009DF8102012F0800FA2700A714FF0010216
:10D1F4001DBF1033DBB29A40BA404AEA020A98E7EC
:10D204000120B84010EA0A0F01D11846DCE70137C3
:10D21400102FBDD1B9E7032E1DD1FFF709FF074633
:10D2240068B1FFF7FDF8102809D13846A31C07F1AF
:10D23400100250F8041B904243F8041BF9D16FF01C
:10D2440002012378091BE21804EB5303D14213D5DE
:10D254000136F6B26DE7002EF1D1B9F1000F3FF4BB
:10D264007CAFA4EB090389F80230C3F3072389F8E0
:10D27400033089F80480EBE702F801BC13F80109D4
:10D2840002F8020DE2E7A14653E700BF54B70020BD
:10D29400DCA300209BA40020C0A400209CA40020A8
:10D2A400094B00211A4610B51C78844204D15C68ED
:10D2B40014B102EB811010BD0131042903F14003C4
:10D2C400F2D10020F7E700BF2CA900202DE9F3419B
:10D2D40050F8283C0446103310F82C6C0AD103692A
:10D2E40050F8202C980736D5D2B9590715D5002304
:10D2F40044F8283C54F8283C10330BD054E9077503
:10D3040054F8148C09F04FFF00284FD021462E48C2
:10D3140009F02DFF02B0BDE8F08143F0040323615E
:10D32400304654F8241C01AB08F076FD10B16FF0C0
:10D334001503DDE7019A54F8243C134444F8243CD3
:10D3440054F8203C9B1A44F8203C54F81C3C1344E9
:10D3540044F81C3CCEE7304654F8241C01AB01F0E1
:10D3640051FE0028E3D1019D54F8243C2B4444F899
:10D37400243C54F8203C5B1B44F8203C54F81C3CEF
:10D384002B4444F81C3C002DB1D0304601F0DEFEA5
:10D39400B5FBF0F303FB1055002DA8D154F8203C45
:10D3A400002BA4D0304601F075FEA3E744F8180C16
:10D3B400A4F1100005F0A6FF002DABD0424639467B
:10D3C4003046A847A6E700BFC0A400204B1E012B8F
:10D3D40073B506460D460FD8FFF762FF044668B9D9
:10D3E400012D09D101AB012230460DF1030101F0F9
:10D3F40009FE019B002BF5D102B070BD09F0D3FEEC
:10D4040004F12C0108B1012D05D1084602B0BDE894
:10D414007040FFF75BBF034802B0BDE8704009F0FD
:10D42400A6BE00BFC0A400202DE9F74F064615464E
:10D434009846019108F039FD044600285BD1EFF3CA
:10D44400118A202383F31288BFF36F8FDFF8ACB007
:10D4540000220023584605F079FF70B9DFF8A09048
:10D46400A70109EB8414636813F1100F14D101931D
:10D47400584605F047FF019B06E00134042C0BF1EC
:10D48400400BE5D16FF00B038AF31188BFF36F8F64
:10D49400184603B0BDE8F08F019B2061C4E9023552
:10D4A4000C9B304663610D9B09F80760A3616FF024
:10D4B4000F03C4F83C80636001F048FE58B1304665
:10D4C40001F044FEB5FBF0F303FB10551DB1E36B13
:10D4D40043F00403E36318F0020F07D007F12C01B3
:10D4E4000848494409F043FE0023CDE7304601F0E3
:10D4F400D1FD0346C8E76FF00F03C9E748A9002030
:10D504002CA90020C0A4002010B5EFF3118420231F
:10D5140083F31288BFF36F8FFFF7C2FE50B14368E5
:10D52400103307D16FF08B0300F12C0143600448E2
:10D5340009F01DFE84F31188BFF36F8F10BD00BF87
:10D54400C0A40020F8B5042520270D4CEFF3118664
:10D5540087F31288BFF36F8F6368103307D16FF0BE
:10D564008B030848636004F12C0109F000FE86F384
:10D574001188BFF36F8F013D04F14004E6D1F8BD7B
:10D584002CA90020C0A4002070B50025094C0A4E27
:10D594003146204609F0CFFD0122A4F110001146C6
:10D5A400013509F08CFD042D04F14004F0D1002074
:10D5B40070BD00BF58A90020D1D2010070B5044647
:10D5C4000E4601791548154608F04CFC10B394F941
:10D5D40000206378002A16DB202B04D0222B0ED0E7
:10D5E4006FF085000AE02B681A6840F8102C9A88BE
:10D5F40020F80C2C9B7900F80A3C002070BD63884D
:10D6040000F8093CF9E7212BEAD1072310382860F8
:10D614003360F2E76FF01200F0E700BF2CAA00209D
:10D62400014608B5034808F02AFC10B1012300F8AC
:10D63400073C08BD2CAA00200123016981F84B3066
:10D644000B6833B191F849301BB10248083109F035
:10D654008EBD7047C0A400200123016981F84A30BF
:10D664000B6833B191F848301BB10248083109F016
:10D674007EBD7047C0A40020012370B582F84830F5
:10D6840013680D4614463BB192F84A3023B10E4854
:10D6940002F1080109F06BFDD4F890309A681B6917
:10D6A4009A4205D17DB904F1180140F6CD4204E057
:10D6B40004F11801002DF8D00022BDE870400023C9
:10D6C400014805F0BFBF70BDC0A4002038B505698E
:10D6D40095F89E0088B195F89F307BB985F848305D
:10D6E400D5F8900008F018FB0446002200230448F3
:10D6F40005F1180105F0A6FF204638BD0020FCE71F
:10D70400C0A40020002103460C4AA0F84810106869
:10D7140083F89C10C3F8940090889279A3F8980039
:10D7240083F89A2083F89B104022A3F89E1083F874
:10D73400A01003F14C000AF060B800BF487D02005D
:10D74400F0B5D0F88C3004465B6885B01B6A1F7D49
:10D75400384608F0AAFB0646F8B994F88630E3B1D7
:10D764004FF48062A06F03A908F0F5FA0546A0B152
:10D774008306A4F1180384F830600193084B08BFB2
:10D7840000F1FF35039900932A4602233846FFF738
:10D794004BFE2946A06F08F0FAFA05B0F0BD00BFB1
:10D7A4007DD60100002310B50469C4F8A8300C4BE1
:10D7B400C4F8A400596804F1A80269B9C3E90022B5
:10D7C40004F10800074909F0B6FC04F11800064901
:10D7D40009F0DDFC002010BD0A605A60F0E700BFCC
:10D7E4002CAA0020D95E020045D70100002313B5FE
:10D7F40004698DF8071084F848300122D4F89000A9
:10D804000DF1070108F088FA10B909F0CCFC40B119
:10D814002122002304F11801064805F013FF02B089
:10D8240010BD94F8A130002BF2D00021212006F085
:10D834001FFAE2E7C0A4002037B514460A1E0546C5
:10D8440020DDD4F88C0004F14C0108F065FA0123C2
:10D8540084F8493023683BB194F84B3023B1114824
:10D8640004F1080109F083FCD4F88C104B684A6970
:10D874009A1ACB699B1A3F2B04D8012384F8A03051
:10D8840003B030BD94F89E30002BF9D0064B4022F3
:10D89400009328460123019404F14C01FFF7C4FDD1
:10D8A400EEE700BFC0A400203DD80100F7B50D4647
:10D8B40001461D4808F0CBFA044610B3064656F854
:10D8C400A439691E5F6805291BD8DFE801F01C1A1A
:10D8D400031C222610F8061C99B9012300F8063C03
:10D8E4003B6A3246187BFFF7A7FF14F85C2C42B959
:10D8F4003B6A1146187D0D4B019600930223FFF7F6
:10D9040093FD03B0F0BD304603B0BDE8F040FFF72F
:10D91400F9BE012304F8053CF3E710F8053C002B9D
:10D92400EFD00023F6E700BF2CAA00207DD601002B
:10D9340037B50024084D4FF0FF334FF4806228467A
:10D944000649009405F040FE0549284609F031FCDB
:10D95400204603B030BD00BFC0A40020A8B70020FB
:10D96400C684020008B5044808F066F8BDE808401B
:10D97400024808F061B800BFCF84020004850200A9
:10D9840030BFFFF7FDBF00BF2DE9F04105460B4E48
:10D99400DFF82C80324606EB0807CC1B20460949E9
:10D9A40009F01EFFA01942460021083C09F025FF9A
:10D9B4002C6707F10800BDE8F08100BF00000000FB
:10D9C400040000003C7D0200074A936893F90E109E
:10D9D400002907DB526993421FBF044A536843F08E
:10D9E40080535360704700BF1CB7002000ED00E077
:10D9F400154B9A6A12F0007F9A6A14BF1E201D20EC
:10DA040012F0807F9A6A18BF1F2012F4801F9A6A4E
:10DA140018BF022012F4002F9A6A18BF212012F4B2
:10DA2400802F9A6A18BF222012F4003F9A6A18BF06
:10DA3400232012F4803F9A6A18BF24206FEA02421E
:10DA44006FEA12429A62704700ED00E010B5194B7C
:10DA54000246986A9C6A10F4805F14BF172016204F
:10DA640014F4006F9C6A18BF1820A40509D5986B9C
:10DA7400986A000404D51AB19A6A22F400429A62A0
:10DA840019200C4B9A6A12F4806F9A6A18BF1A20F4
:10DA9400D2050CD49B6A13F4005F18BF1C20054AFE
:10DAA400936A43F47F43936200230B7010BD1B20E1
:10DAB400F5E700BF00ED00E010B51C4B0246986A84
:10DAC4009C6A10F0100F14BF1120102014F0080FDE
:10DAD4009C6A18BF1220A40709D5586B986A0006DF
:10DAE40004D51AB19A6A22F080029A6213200F4B6D
:10DAF4009A6A12F0010F9A6A18BF142012F0200FCC
:10DB04009A6A18BF1520D40658BF9B6A074B9A6AB5
:10DB1400920642BF5A6A22F400525A629A6A42F04A
:10DB2400FF029A6200230B7010BD00BF00ED00E0FD
:10DB3400F0B54A4B04465B6800258BB0C3F3080379
:10DB440085F31188BFF36F8F02F07F40B0F17F4FF0
:10DB540016D1D60714D4550603D4100704D40125CE
:10DB640004E012F0040200D00C4600250022033B1E
:10DB74008DF80720032B05D8DFE803F02462665FE5
:10DB84002C46F3E700239DF80720CAB902AE04F13E
:10DB94002007324620686168083403C2BC42164636
:10DBA400F7D1099A002D53D0C2F3080121B96FEAC5
:10DBB40052226FEA42220992184602A908F0ECF9AF
:10DBC4000BB0F0BD254BDA6A9107DBD4DA6A002A80
:10DBD400D8DBDA6A5200D5D55A69A16942F4807259
:10DBE4005A61BFF34F8FBFF36F8F5A6931F8021C2C
:10DBF40022F480725A61BFF34F8FBFF36F8F4DF6DB
:10DC04000272914201D12368BDE79A6AD2B232B15D
:10DC140001200DF10701FFF74FFF0346B3E79A6AAE
:10DC240012F47F4F05D001200DF10701FFF70EFF1D
:10DC3400F3E79B6AB3F5803FA4D3FFF7D9FEECE783
:10DC440000200DF10701E6E700200DF10701EDE7E3
:10DC540022F4FF7222F00102ADE700BF00ED00E004
:10DC6400044B5A6942F010025A615A6942F48062C4
:10DC74005A61704700ED00E0EFF30880EFF309818B
:10DC840001B57246FFF754FF01BD00BF002080F3C9
:10DC94001488BFF36F8F002080F30A8880F30B8809
:10DCA40008F0F5FE00200E490860BFF34F8F0D48C1
:10DCB40080F3088800F02CF8202080F311880A48AB
:10DCC4004FF40061401880F30988EFF314800221B7
:10DCD400084380F31488BFF36F8F00F00FF900003E
:10DCE40094ED00E0E8CC0020A8BF002000231846F3
:10DCF4000649D1F89020C2F30722934200DB704713
:10DD0400C1F89830C1F8A0000133F6E700ED00E057
:10DD140010B572B6002484F31388FFF7E7FF234697
:10DD24004FF0FF300C4A03F120010133102B42F86D
:10DD34002100F8D100234FF0FF30074A03F16001BE
:10DD44000133102B42F82100F8D162B6BFF34F8F94
:10DD5400BFF36F8F10BD00BF00E100E0084B9B686C
:10DD640083420BD1EFF3058343B1064B5A6842F06B
:10DD740080525A605A6A22F400425A6209F0F9BA8F
:10DD84001CB7002000ED00E06FF00A01084A936818
:10DD94009967084958674B6843F080534B600023E8
:10DDA40083F31188BFF36F8F9368986F704700BF38
:10DDB4001CB7002000ED00E0104A936883F87D0052
:10DDC400EFF31183202383F31288BFF36F8F4FF097
:10DDD4000061536920F0FF009360094A5160196F94
:10DDE400084A1160002193F87D2010435A6F596747
:10DDF40082F31188BFF36F8F704700BF1CB70020F8
:10DE040000ED00E034AA002010498A6882F87DE021
:10DE14004FF030001044EFF3098C80E8F01F744693
:10DE24007046FFF7C9FFA64608498A68864602F18C
:10DE3400300090E8F01F8CF3098802F1000004B56B
:10DE440008F0C1F8BDE80440704700001CB700208A
:10DE54001EF0040F0CBFEFF30880EFF30980816913
:10DE640011F8021C0229FFD001B508F09BF801BD8E
:10DE740040B2002807DB01234109034A00F01F00D8
:10DE8400834042F82130704700E100E040B20028AE
:10DE94000CDB01220649430900F01F0082402033B5
:10DEA40041F82320BFF34F8FBFF36F8F704700BF3C
:10DEB40000E100E0054B420953F82220012300F061
:10DEC4001F0003FA00F01040704700BF00E100E0BB
:10DED40040B2002801F10101ACBF00F16040064BE3
:10DEE4004FEA4111C9B2ABBF00F5614000F00F0029
:10DEF40080F800131954704714ED00E00B4A08B57C
:10DF04000B4B22F07F029A60BFF34F8FBFF36F8FEA
:10DF1400D3F8882022F47002C3F8882005F01EF894
:10DF240005F080FF00F04CF805F058F800C001003F
:10DF340000ED00E042F8203C009B0C4942F81C3CF8
:10DF4400019B21F0010142F8183C029B42F8081C95
:10DF540042F8143C4FF0807342F8043C00234367BA
:10DF64004FF43C43203A0265C36770479DC50100E6
:10DF74000C4B15469860026F0B4B0E461A60036EED
:10DF840083F30B882C4686F309884FF00000074B77
:10DF9400984720464FF000014FF000024FF0000375
:10DFA400034C20471CB7002034AA0020D35F020092
:10DFB4009DC501001022014B1A61704700ED00E07D
:10DFC400002320210348C2180133452B82F8001393
:10DFD400F9D1704700E100E008B5EFF30583064A84
:10DFE400103B02EBC30152F8330049688847BDE88F
:10DFF4000840FFF7E9BC00BF147B02001FB5094CC1
:10E00400094A23460121094800F0FAF80023039342
:10E01400074B0121E41A01A80193029400F0FAF8D5
:10E0240004B010BD0000072000A000202C800200D6
:10E03400C0A4002010B50C7A0B6804F01F0223F072
:10E044001F031A43CB68640923F01F03054943EAFD
:10E05400440343F00103C1F89800C1F89C20C1F8BF
:10E06400A03010BD00ED00E010B5074BD3F89030A0
:10E07400C3F30723013B984202D8FFF7DBFF10BD2F
:10E084006FF01500FBE700BF00ED00E02DE9F04F55
:10E094000F46144606464FF000084D4D85B0B8456E
:10E0A40080F29280D6F80490B9F1000F36D0B9F11D
:10E0B4001F0F40F2878019F01F0F40F08380D6F8BD
:10E0C40000A01AF01F0F7DD1504607F0BCFF834615
:10E0D40009EB0A00013807F0B6FF834572D11BF142
:10E0E400160F6FD05C456DDDC5F898B0D5F89C105F
:10E0F400C5F898B0D5F8A03021F01F0143F01F0AED
:10E10400D6E900321A44994202F1FF391ED1CA45B8
:10E1140008D131465FFA8BF007F09EFF08F1010841
:10E124000C36BCE73146C5F898B0D5F89C3022F0DF
:10E134001F0203F01F031343C5F89C30E0B207F03D
:10E144008BFF10F1160F3DD0441CE7E7C5F898B0DB
:10E15400D5F8A020013B23F01F0302F01F02134354
:10E16400CA453146E0B2C5F8A030E8D007F074FFE4
:10E1740010F1160F26D0C5F898B0D5F89C209DF85C
:10E1840008300AF1FF3A62F304038DF80830D5F839
:10E19400A0309DF808205B0863F347128DF808202F
:10E1A400D6E900321344009323F01F035344A3EB36
:10E1B4000903013023F01F036946C0B20393FFF73C
:10E1C40053FFBEE76FF01504204605B0BDE8F08F9D
:10E1D40000ED00E00522044BC3F89420BFF34F8FF9
:10E1E400BFF36F8F704700BF00ED00E0BFF35F8F98
:10E1F4000022024BC3F89420704700BF00ED00E0FA
:10E2040010B5034C2278FFF741FF207010BD00BF0A
:10E2140067B700202DE9F74F294D8A4606464FF08F
:10E224000008AB46274FD0451BDAD6F80490B9F165
:10E23400000F3FD031680846019107F004FF0199AF
:10E24400044609EB0100013807F0FDFE84424FF05B
:10E2540014021D4B08D002FB08F36FF015024BF8B3
:10E26400032003B0BDE8F08F14F1160F2C60F8D032
:10E274001978A142F5DD02FB08B0C7F89840C7F849
:10E284009840D7F89C4000F10801007B64F3040037
:10E294000871D7F8A0000C79400860F347140C719A
:10E2A400D7F89C1021F01F016960D7F8A01021F065
:10E2B4001F01296108F1010814350C36B3E700BFCA
:10E2C40038AA002000ED00E067B70020F0B541490E
:10E2D400414CD1F890302568C3F307239D4287B0A1
:10E2E40075D80020FFF782FF3C4BC1F8C03085424F
:10E2F40016D13B4C01A82570FEF776FA0025064698
:10E30400384FAE4213D1002023783249D1F89020FF
:10E31400C2F30722934254DBFFF75CFF00202FE097
:10E32400616801EB0011FFF785FE0130DFE7019919
:10E33400280101EB0513DA683A40B2F5001F21D039
:10E34400B2F5800F2BD0B2F5801F38D15A689B6884
:10E354000958013B22F01F0003440120844623F0A6
:10E364001F0340EA4C10CDE902218DF8100002A9E8
:10E3740020780593FFF778FE00281DDA6FF015006A
:10E3840007B0F0BD5A689B680958013B22F01F0092
:10E3940003444FF0020C012023F01F03E1E75A6805
:10E3A4009B680958013B22F01F0003444FF0000C06
:10E3B400062023F01F03D4E72378013323700135AB
:10E3C4009FE7C1F89830C1F8A00001339EE74FF0F1
:10E3D400FF30D5E700ED00E038800200AAFF4400DA
:10E3E40067B700200000F0FF08B5024B1B68984790
:10E3F400002008BD4CAA0020034B044A18609378FF
:10E4040043F00203937070474CAA00200CA1002033
:10E4140008B50649064821F00701C1F1005202F58A
:10E42400E02207F0AFFA002008BD00BF6FDB002038
:10E4340050AA002007B50DF1070008F036FB114B78
:10E4440098421CD14FF480620F4B1049C3F8B82591
:10E454004FF40062C3F83C259DF8070008F020FB48
:10E464000B499DF8070008F016FB01209DF80730C2
:10E47400984002F043FF002003B05DF804FB6FF006
:10E484000B00F9E70000AD0B00A002402CA00240F5
:10E4940028A10240052370B5144D154E2C78013483
:10E4A400B4FBF3F303EB8303E41A08F092FA114A82
:10E4B400137823B156F82430C01A072813D90E4B09
:10E4C400D3F8141141B10021C3F81411D3F8143155
:10E4D4002C700CB9012313702C7808F07AFA46F8E2
:10E4E4002400012070BD0020FCE700BF69B70020B4
:10E4F4005CAA002068B700200050004048B1054BDA
:10E50400054A1B68B3FBF2F35843044B43F0010381
:10E514001847704714A2002040420F00507D0200AB
:10E524000B460121024AC2F814160021184700BF05
:10E53400005000400149024807F0F5BA608002002B
:10E5440070AA00202DE9F047174B0546D3F8302177
:10E554000C46072AD3F8343121D1023B032B02D8CD
:10E56400124AD35CDBB14FF0010800264FF050296A
:10E574000F4F0520C9F81886C7F8146608F089FA01
:10E584004046C7F8148608F084FAC7F81466C9F838
:10E59400186628462346BDE8F047002118470022A4
:10E5A400034BC3F81426F4E700F00720418502006A
:10E5B40000500040F8B5144BD3F83021D3F834316F
:10E5C400072A1CD1023B032B02D8104AD35CB3B1F7
:10E5D400012600244FF050270D4D0520C7F818667A
:10E5E400C5F8144608F055FA3046C5F8146608F024
:10E5F40050FAC5F81446C7F818460020F8BD0022A2
:10E60400034BC3F81426F8E700F007204585020001
:10E61400005000400146014808F046BDCCA300204C
:10E624000149024808F0A3BDB4AA002060A5002057
:10E63400020600F07F0312D5082B05D1010700F074
:10E644000F0306D50E48704710F0780F12D100F072
:10E654000F034C2000EB43100A4B18447047082B5F
:10E6640005D1020700F00F0306D50748704710F0E4
:10E67400780FF6D000207047044800EB4310704731
:10E68400D8AB00208CAA0020F8AC0020F8AB002006
:10E6940000220023014804F003BE00BFCCA30020E5
:10E6A40013B5002201213720FFF712FC3720FFF7B2
:10E6B400DFFB124800F0F6FD114B98421AD10024FA
:10E6C400104803F03DFC104804F0FEFA4FF0FF330D
:10E6D4004FF480620D490E48009404F075FF0D4913
:10E6E4000B4808F066FD0C480C4908F024FD204650
:10E6F40002B010BD6FF00400FAE700BF31E9010079
:10E704000000AD0B548502006C800200A8BB002001
:10E7140060A5002049850200B4AA00204DEA01004A
:10E72400002310B50B49D1E8EF2F012A03D1C1E82A
:10E73400E03F0028F7D10CD151F8044C143920469D
:10E7440007F07FFA783004D12046BDE8104007F086
:10E7540054BA10BDACAA002038B5002464F07F0080
:10E76400C0B2FFF765FF013407F0D4FC082CF5D1E3
:10E7740000240E4DE0B2FFF75BFF036903B90561A6
:10E78400013407F0C7FC082C05F14005F2D1084814
:10E7940007F0C0FC074BD3F87C2212B9064AC3F831
:10E7A4007C22064807F0B6FC002038BD1CB10020CE
:10E7B400D8AB00208CAA00201CAD0020F8AC0020AF
:10E7C40010B5054CFFF764FF20B14168204608F0FE
:10E7D400BFFBF7E710BD00BF78A3002007B50023F7
:10E7E40000220E4801A904F079FC90B1FFF7E8FF7C
:10E7F40000220023094801A904F070FC38B904235D
:10E80400019840600374FFF705FFFFF709FF00203C
:10E8140001E00198406003B05DF804FB78A3002098
:10E8240010B50446FFF7DAFF60B1002204720274E7
:10E83400FFF7F0FE044B93F824301BB1BDE8104001
:10E84400FFF7EEBE10BD00BF8CAA0020012807B55B
:10E854000FD002280ED048B9002200230848CDE981
:10E86400002345F69A12002305F0A6FC03B05DF8D8
:10E8740004FB002003B05DF804EBFFF7D1BF00BF39
:10E8840040A30020F8B5877806463846FFF7D0FE47
:10E894003B060446F57812D5002D43D1FFF79EFFC1
:10E8A400034600283ED00122A57702740322027396
:10E8B4009C60FFF7AFFEBDE8F840FFF7B1BE4DB175
:10E8C400012D2FD1FFF78AFF034658B365770574EE
:10E8D4000573EDE7FFF782FF20B3B278124B12F015
:10E8E400800F02F0080111D041B1D3F8A836E360DB
:10E8F40001230374022384600373DAE7142102F012
:10E904000F0201FB0233D3F80836F0E711B1D3F854
:10E91400A837ECE7142102F00F0201FB0233D3F80D
:10E924000837E4E7F8BD00BF00600340F0B50646D1
:10E9340089B01422002103A808F05FFF3378013B5B
:10E94400052B21D8DFE803F07A0314146A16032395
:10E9540000248DF81430FFF741FF0346A0B100F105
:10E9640008020474DDE9050182E8030018461DE08D
:10E974000423EDE7B7783846FFF75AFE837A044656
:10E9840023B1013B022B43D909B0F0BD3B06F57816
:10E9940013D5002DF8D1FFF721FF03460028F3D04B
:10E9A4000122A5770274032202739C60FFF732FEF2
:10E9B40009B0BDE8F040FFF733BE55B1012DE3D1F6
:10E9C400FFF70CFF03460028DED065770574057356
:10E9D400EBE7FFF703FF07460028D5D001230374B4
:10E9E40002238460037304F10C01B07807F0F6FB92
:10E9F400134AE168B2F88C328B4206D95B1AA2F84A
:10EA04008C3200F09DFF3846D0E7A2F88C52FAE72A
:10EA1400304609B0BDE8F040FFF734BF01A800F06C
:10EA24006DFF9DF80530052B04D19DF8043013F0DB
:10EA3400600FA9D0034B012405938CE702248AE7D5
:10EA44008CAA0020F8AB00202DE9F0438046AC4CA2
:10EA5400DFF8B09285B0FFF71BFE074610B905B08A
:10EA6400BDE8F08394F825303A7C3BB9002A00F0E5
:10EA740086807968A34808F06BFAECE7042A42D848
:10EA8400DFE812F07D000500FC0012012D013B7B44
:10EA9400BD68032B37D8DFE803F0023D5A5F00223C
:10EAA4006E69994B32607260D3F880143170D3F878
:10EAB40084147170D3F88814D3F88C0441EA0021CB
:10EAC4007180D3F89014D3F8940441EA0021B18002
:10EAD400D3F89814D3F89C3441EA0323F380082331
:10EAE400EB6030687168894B03C311462B68687A00
:10EAF400984796F90030002B08DBF38833B1A4F86B
:10EB04008C3200F01DFF48467968B4E70023A4F86E
:10EB14008C32F8E76B7F002BF5D02B7F002BF2D0E3
:10EB240000264FF0FF326E774FF0FF3378482E7790
:10EB340007F003FB6B6901A901936B68CDE9023609
:10EB4400687A00F005FC724807F0F9FADBE7012166
:10EB54002B68687A9847D6E7AB7A6BB9EB7F5BB9D9
:10EB64006B484FF0FF324FF0FF3307F0E6FA00F046
:10EB7400EDFE674807F0E3FA02212B68E9E73A7AE9
:10EB8400042AC0D8DFE802F055031F636F0000F0C9
:10EB940057FB05460028B6D100F004FB01235D496C
:10EBA400D1E8EF2F002A03D1C1E8E03F0028F7D1D4
:10EBB400A9D141F8085C41F8105CE069143963613B
:10EBC40006F0C4FF9FE7002565F07F00C0B2FFF7A1
:10EBD4002FFD037A13B1407A01F01AF80135082D9C
:10EBE400F2D194F854311BB194F8550101F010F8A6
:10EBF4000025E8B2FFF71CFD037A13B1407A01F057
:10EC040007F80135082DF4D194F874321BB194F847
:10EC1400750200F0FDFF002000F0F6FA012384F8ED
:10EC240025302368002B3FF46EAF00210220984763
:10EC340069E7002584F8255000F052FFFFF770FDC6
:10EC44002368002B3FF45FAF29460420EFE7002B35
:10EC54003FF459AF00F0FEFA2368002B3FF453AFA2
:10EC640000210520E3E72268002A3FF44CAF002B83
:10EC74003FF449AF00210620904744E708F110050E
:10EC84004FF0FF334FF0FF32284607F056FAFFF7F4
:10EC940063FD284607F053FA58F8283C002B3FF44C
:10ECA40032AF00210120C2E794F874327BB1012510
:10ECB40084F8895284F88852FFF790FD38B1164AD7
:10ECC400057405738260FFF7A5FCFFF7A9FC58F8EB
:10ECD400283C002B3FF417AF00210A20A7E703F0DC
:10ECE400DBFF00F0FDFE00F053FAFFF769FDFFF7CC
:10ECF40033FD03F0C9FF094800F0D4FA03E700BF6D
:10ED04008CAA002078A300200060034090AA002071
:10ED1400C4AA0020ACAA0020F8AC002031E901000C
:10ED240038B5154D95F8244024BB05F1380008F09A
:10ED340047F9022001F0D0F822460121E86136208B
:10ED4400FFF7C6F803F0A0FFFFF706FD044610B96D
:10ED5400012385F82430094B1B680BB1FFF760FCD5
:10ED6400074BD3F80034DB0702D50020FFF76EFD14
:10ED7400204638BD0024FBE78CAA0020CCA3002049
:10ED840000700340074B93F824203AB193F82530E0
:10ED9400002B14BF00206FF0120070476FF01200B8
:10EDA400704700BF8CAA002038B5104B044693F876
:10EDB4002430C3B105782846FFF73AFC10B96FF048
:10EDC400150038BD457223798372638843602078C7
:10EDD400618810F0080F02D14B1E0B42EFD107F0EF
:10EDE400F8F90020EDE76FF01200EAE78CAA0020A2
:10EDF40038B5124B054693F82420CAB193F8253050
:10EE0400B3B1FFF715FC0446A8B1837A012B12D0E5
:10EE140007D9023B012B07D900206369E060A36195
:10EE240038BD00F099FDF7E7284600F03BFDF3E715
:10EE34006FF01200F4E76FF01500F1E78CAA0020E0
:10EE440038B50E4B054693F8242082B193F825304B
:10EE54006BB1FFF7EDFB68B115F008040AD1284641
:10EE640000F042FD284600F00BFF204638BD6FF04D
:10EE74001200FBE76FF01500F8E700BF8CAA002032
:10EE840038B50C4B054693F824200C4662B193F830
:10EE940025304BB1FFF7CCFB48B144B1284600F014
:10EEA40009FD2070002038BD6FF01200FBE76FF001
:10EEB4001500F8E78CAA002070B5134E044696F8A6
:10EEC4002430C3B1FFF7B4FB0546B8B1230705D41A
:10EED400204600F009FD204600F0D2FE2B7A83B9CB
:10EEE40001232B7296F825300BB9002070BD204603
:10EEF40000F08EFEF9E76FF01200F7E76FF01500EF
:10EF0400F4E76FF07700F1E78CAA00202DE9F043D5
:10EF1400DFF8E4801E4698F82430074689461546F3
:10EF240085B0002B61D098F82530002B5DD0030606
:10EF34005ED5FFF77DFB0446002859D0037A002BE9
:10EF440056D04FF0FF334FF0FF3208F1380007F08E
:10EF5400F4F8A37F4BB108F1380007F0F0F86FF034
:10EF64000A04204605B0BDE8F083A37AC5B13BB3DB
:10EF740001234FF00008A377384601A9CDE9019594
:10EF8400CDF80C8000F0E4F91C4B984229D084F8A9
:10EF94001E801EBB6FF00404194807F0D0F8E0E7A8
:10EFA400E27F02B1E577002BE2D100F0DBFCB8424E
:10EFB400DED000F0CBFC124807F0C1F80024D0E703
:10EFC400B8F80A30AB42F0D96268B5FBF2F302FB41
:10EFD4001353002BE9D10123E377E6E7C6F8008059
:10EFE400D8E706B135600024D6E76FF01204B8E71D
:10EFF4006FF01504B5E700BF8CAA00200000AD0B2C
:10F00400C4AA00202DE9F0411D46204B174693F871
:10F0140024200E46002A33D093F8253083B3030608
:10F0240031D401B97FBBFFF703FB044658B3037A1D
:10F034004BB34FF0FF334FF0FF32154807F07DF824
:10F04400E368B8469F4228BF984646B93FB905B120
:10F054002B600F4807F073F80020BDE8F0814246AA
:10F064003046A16908F0BCFBA3694344A361E3688B
:10F07400A3EB0803E360002DEBD0C5F80080E8E7BC
:10F084006FF01200E9E76FF01500E6E78CAA0020A4
:10F09400C4AA002070B51E4D034695F8242082B3FF
:10F0A40095F825206AB31B062ED4FFF7C1FA04464F
:10F0B40050B3037A43B34FF0FF334FF0FF3205F1FF
:10F0C400380007F03AF8E368B3B901266369267794
:10F0D400A361637F83B1FFF781FB30B905F1380089
:10F0E40007F02DF86FF00B0070BD06748460067392
:10F0F400FFF790FAFFF794FA064807F020F800208B
:10F10400F2E76FF01200EFE76FF01500ECE700BFD5
:10F114008CAA0020C4AA002010B5084B0C4693F812
:10F1240024302BB1FFF784FA28B10460002010BD0D
:10F134006FF01200FBE76FF01500F8E78CAA0020CF
:10F14400014B1860704700BF8CAA002008B5074B1C
:10F1540093F8243023B1FFF76BFA20B1406808BD5F
:10F164006FF01200FBE76FF01500F8E78CAA00209F
:10F17400064B10F0800FA3F1D80208BF13461822E3
:10F1840000F00F0002FB0030704700BF34B40020D1
:10F194000023024A1360024A1370704714B500201A
:10F1A4006EB700204FF40062114BC3F80024012213
:10F1B400C3F80025D3F800241205FBD54FF40062F0
:10F1C400C3F800248022C3F81C250122C3F830258B
:10F1D40040F2FF12074B1A600023074A1360074AE4
:10F1E4001370074A13700222064B1A70704700BF4F
:10F1F4000060034010B500200CB500206AB7002061
:10F204006CB700206EB700200022094B10B51A70AD
:10F21400084A094B094C002808BF13463620C4F895
:10F224000033FEF725FE0123C4F8043510BD00BFEA
:10F234006DB70020FDFFDF01FDFFFF01006003400B
:10F24400034B1878012894BF00200120704700BFA9
:10F254006EB7002010B5EFF31181202383F31288D9
:10F26400BFF36F8F0D4B1B7803F0FF0083B10C4B82
:10F27400D3F8002412F400720AD10124C3F82C45F7
:10F28400D3F82C45D3F80044A40502D5C3F82C25A3
:10F29400002081F31188BFF36F8F10BD6DB700207C
:10F2A40000600340F8B51C4B1C7894BB1B4A40F229
:10F2B400FF171060012226461A7064F07F0514F0CF
:10F2C400080FEDB214BF39464021284606F081FFED
:10F2D4002846FFF74DFF0134092C86750673066135
:10F2E400EBD1002440F2FF17254614F0080FE6B2D4
:10F2F40014BF39464021304606F06BFF3046FFF715
:10F3040037FF0134092C857505730561EDD1044877
:10F31400F8BD0448FCE700BF6EB7002014B5002018
:10F324000000AD0B0500AD0B084B10F0800F14BFAF
:10F33400D3F81025D3F81425012300F00F018B40D6
:10F34400134214BF01200020704700BF0060034037
:10F3540002462DE9F843EFF31187202383F3128843
:10F36400BFF36F8F030703D1194B1B7883422AD154
:10F37400184B10461C684FF00109E44306F021FFC6
:10F38400154EA4B2356809FA00F82C4314EA0804AF
:10F394001BD11046FFF7ECFE034680F80C9007C91A
:10F3A40083E807004FF480021C619C750B4B45EA0F
:10F3B40008050B483560C3F8042187F31188BFF3AF
:10F3C4006F8FBDE8F8830748F7E70748F5E700BF04
:10F3D4006CB7002010B500200CB5002000E100E05F
:10F3E4000000AD0B0A00AD0B0B00AD0B10F0080FC5
:10F3F400074B06D0D3F8C00410F4803F18BF002098
:10F40400704700F00F0000F5947053F82000704727
:10F41400006003402DE9F04FA84B85B0D3F860415C
:10F4240034B10022C3F86021D3F86C44C3F86C44AF
:10F43400D3F828214AB10022C3F82821A04B187818
:10F4440006F0BFFE012383401C439E4F9E4E3D7831
:10F4540097F9008015F0080141D1B8F1000F05F0CB
:10F464000F032CDA994A52F8230010B342F8231000
:10F474001422534303F1804303F55833D3F8083679
:10F48400934A03F0010311784B401370914803F041
:10F4940039FF2846FFF76CFE837D032B37D12846BE
:10F4A40006F08FFE012303FA00F0336823EA000319
:10F4B40033600125DFF82092DFF820825FE0884A7C
:10F4C40052F823000028F4D042F8231014225343A6
:10F4D40003F1804303F55833D3F80837D0E7B8F184
:10F4E400000F764B09DBD3F85021002AE1D000222B
:10F4F400C3F85021D3F8A837C2E7D3F82C21002A47
:10F50400D7D00022C3F82C21D3F8A836B8E7037B60
:10F51400DBB9284606F055FE012303FA00F03368F0
:10F52400B8F1000F23EA0003336001DA882DC0D15B
:10F5340006238DF80C3000238DF80F30674B8DF8BF
:10F544000E501B6803A89847B3E7002DB1D10122E0
:10F554005A4BDA64ADE794FAA4F0B0FA80F0D9F823
:10F56400002005FA00F31A430F28C9F8002024EA02
:10F574000304326840F3B880134200F0C680002CC4
:10F58400E9D14E4BD3F800215AB1C3F80041554B91
:10F5940003A81C704A4B1C70012303934F4B1B6838
:10F5A4009847464BD3F85421EAB10022C3F85421BA
:10F5B400D3F80413890216D58DF80C20D3F820252E
:10F5C40003A8ADF80E20D3F8C034002B14BF4FF0BD
:10F5D40001224FF48072D9F800301343C9F8003087
:10F5E4003E4B1B689847354BD3F85821002A2ED040
:10F5F4000022C3F85821D3F80044C3F80044E305BB
:10F6040008D50122374B03A81A7002230393334B06
:10F614001B689847A50508D50022324B03A81A7029
:10F62400032303932D4B1B68984760050FD52D4B7F
:10F634001A7862B100221A700122204B03A8C3F881
:10F6440008259A6504230393244B1B6898471B4B96
:10F65400D3F85C310BB31F4B9B6813B93B78590645
:10F664001BD00022154B03A8C3F85C21D3F88034C7
:10F67400134A23F07F031370336823F001133360BC
:10F68400D9F8003023F4803343F00103C9F8003083
:10F6940005230393114B1B6898473268D9F800304F
:10F6A4001A4207D0002200230A4803F04FFE002824
:10F6B40000F0CE8005B0BDE8F08F00BF00600340CD
:10F6C4006CB700206BB700200CB500200861034024
:10F6D4006AB70020BCA3002010B5002014B5002098
:10F6E400306103406DB7002013407FF448AF062219
:10F6F40060F07F018DF80C208DF80E108DF80F301E
:10F70400D8F8003003A8984739E70623A0F1100180
:10F714008DF80C308DF80E108DF80F50F0E718F0BE
:10F72400012214BF92FAA2F898FAA8F8B8FA88F855
:10F73400B8F10F0F01931AD9A8F11005EDB22846BC
:10F74400FFF716FD04462846FFF750FE6268B4F83A
:10F7540014E09042D4F800C0019B59D800EB0C0B84
:10F76400121AC4F800B061468346626053E048F060
:10F7740080052846FFF7FCFC4368B0F814B0016824
:10F784009B4528BF9B4601F06043B3F1005F0446EC
:10F7940004D05A463F4808F023F83E49226863687B
:10F7A4005A442260A268A3EB0B03D20768B26360D9
:10F7B40005D5BBF1000F04D10023237301E0002B16
:10F7C400FAD0012202FA08F82AEA0803C9F800303C
:10F7D400236915F0080F5B4423613D702E4B4AD119
:10F7E40000284FF0140005F00F0500FB0530B5BFED
:10F7F40003EB85030A35C0F80016C0F80017B5BF3F
:10F80400C0F804B6C0F804B75A6043F8252051E79D
:10F8140061464FF0000B704527D1003A18BF012212
:10F82400BCF1000F23D0584521D9012202FA08F275
:10F8340023EA02033360062302218DF80C30174BB0
:10F84400A1751B688DF80E508DF80F1003A898470A
:10F854003368D9F800A013EA0A087FF460AF1048AF
:10F8640005B0BDE8F04F03F04DBD0022D8E768B203
:10F87400002AA6D1A0E70028B5BFC3F8A016C3F894
:10F88400A017C3F8A4B6C3F8A4B7B4BF5A629A6465
:10F8940010E700BF1CB300200060034014B5002033
:10F8A400BCA30020024B40F48070C3F818057047D5
:10F8B40000600340030713D400F00F0310F0800F1F
:10F8C400084A0BBF03F5887303F5847302EB8302C4
:10F8D40052F8230008BF5068003818BF0120704751
:10F8E4000020704700600340034BC3F80C0540F44C
:10F8F4008070C3F80C057047006003400023036068
:10F9040043600E4BD3F880240270D3F884244270F1
:10F91400D3F88824D3F88C1442EA01224280D3F825
:10F924009024D3F8941442EA01228280D3F89824D4
:10F93400D3F89C3442EA0323C38070470060034039
:10F944000122014BDA647047006003400122014B3D
:10F954001A657047006003400122014B5A657047E5
:10F9640000600340014B1878704700BF6CB700205B
:10F97400024610B5EFF31184202383F31288BFF3FA
:10F984006F8F06F01EFC01230A4903FA00F00B688E
:10F9940023EA00030B6012F0080101BF02F00F021A
:10F9A400054B02F5947243F8221084F31188BFF3D7
:10F9B4006F8F10BD10B5002000600340F7B50146FD
:10F9C400EFF31185202383F31288BFF36F8FFFF7C2
:10F9D400CFFB0646084606F0F4FB012211F0800F27
:10F9E40002FA00F22D4818D1036832EA03040AD05F
:10F9F4000846FFF7BDFF0323B37585F31188BFF3F2
:10FA04006F8F03B0F0BD264923EA020303600B683D
:10FA1400347323EA02030B60EDE70B0715D4802946
:10FA2400204B2FD001F00F0404F2DA346400C3F841
:10FA34000048D3F80448D3F80478E4B244F002044C
:10FA44003C43C3F80448D3F80438154F04683B68B2
:10FA540064EA030C1CEA020FCFD013433B6000237B
:10FA64003373032324EA02040622B3758DF80730A6
:10FA74000D4B04601B688DF804208DF8061001A856
:10FA84009847BAE740F2B474C3F80048D3F804487E
:10FA9400D3F80478E4B244F00404D1E70CB50020B0
:10FAA40010B500200060034014B5002038B50446AA
:10FAB400094D4FF0FF324FF0FF33284603F046FC68
:10FAC4002046FFF77BFF284603F01CFC4FF480021E
:10FAD400024BC3F8042138BDBCA3002000E100E0C0
:10FAE400F8B54FF0FF324FF0FF332A4803F02EFCF5
:10FAF4004FF48002284B3620C3F88421FEF7DAF94C
:10FB040098B10127254E264B34681B68240C240425
:10FB14001C4354BB40F2FF13224D33603620C5F81A
:10FB24000445FEF7B3F9C5F800431F4A13788BB1B7
:10FB340000211C4BC3F808110121C3F80026C3F8A7
:10FB440004165960D3F808110029FBD00021C3F82A
:10FB5400081111700022134BC3F800250D4803F05F
:10FB6400D1FB0122114B1A70F8BD94FAA4F5B5FA31
:10FB740085F528460F2DC6BFA5F11000C0B240F090
:10FB84008000030701D4FFF719FF07FA05F524EAFB
:10FB94000504BEE7BCA3002000E100E010B500208E
:10FBA4000CB50020006003406AB700206EB7002047
:10FBB40010B504464FF0FF324FF0FF33114803F005
:10FBC400C5FB2046FFF7FAFE012304F00F02934021
:10FBD400DB430D4A14F0800F15BFD2F81015D2F88C
:10FBE40014150B400B4014BFC2F81035C2F814357D
:10FBF400044803F087FB4FF48002044BC3F804214C
:10FC040010BD00BFBCA300200060034000E100E081
:10FC140070B50446FFF788FB68B9012504F00F02AC
:10FC240014F0800F144B05FA02F205D0D3F8101526
:10FC34000A43C3F8102570BDD3F814150A43C3F85A
:10FC44001425631E062BF6D8EFF31186202383F3C5
:10FC54001288BFF36F8F2046FFF78AFE204606F016
:10FC6400B0FA064A8540136823EA0503136086F355
:10FC74001188BFF36F8FDEE7006003400CB50020EE
:10FC8400030610B5044605D4FFF714FE10B1204650
:10FC9400FFF76EFE014BC3F8184510BD006003402A
:10FCA400084B70B5C31A0D4607499B1004465943C7
:10FCB4004022064806F0B1FA2B4601462046BDE82C
:10FCC400704018472CB50020B76DDBB6607A02008F
:10FCD400402373B50B4C0093041B0B460D460A4995
:10FCE400A41061430646094A094806F0C2FA011EF7
:10FCF40005DA30462B4602B0BDE87040184702B022
:10FD040070BD00BF2CB50020B76DDBB6E162020008
:10FD1400607A020010B5EFF31184202383F3128874
:10FD2400BFF36F8F074A136823F00201DB071160EA
:10FD340002D4012006F0BBFE84F31188BFF36F8F59
:10FD440010BD00BFCCB500202DE9F84300220121ED
:10FD540006460520FEF7BCF8114801F081FB114B63
:10FD6400984219D101F08CFB00244FF01C090C2798
:10FD7400DFF834803569414609FB045005F0D3FEB1
:10FD8400002807DB012307FB04551C44042CAB6744
:10FD9400F0D10020BDE8F8836FF00400FAE700BF5B
:10FDA400ADFE01000000AD0B748002001FB50022FF
:10FDB4000123CDE902236B46084ACDF800D0CDF8E3
:10FDC40004D006F084FA002805DB4FF480420023B7
:10FDD400684603F0BBFA05B05DF804FB1763020044
:10FDE4000C22104B014602FB0033002030B4D3E94F
:10FDF4001C521867EFF31180202484F31288BFF398
:10FE04006F8F9C6F04F0C00444F002049C6780F37D
:10FE14001188BFF36F8F1DB12B4630BC02481847C1
:10FE240030BC70472CB50020607A020010B4EFF3A8
:10FE34001182202383F31288BFF36F8F1748016860
:10FE440041F002040460C80707D482F31188BFF3A9
:10FE54006F8F012010BC01F02FBB1149D1F80C04A5
:10FE6400D1F80C14C907F0D5EFF3118083F312888D
:10FE7400BFF36F8F0B498B6F03F0C00343F0020392
:10FE84008B6780F31188BFF36F8F82F31188BFF300
:10FE94006F8F002010BCFFF7A3BF00BFCCB50020BC
:10FEA400005000402CB50020062812D8DFE800F0EE
:10FEB400040F1111110D0B00064B986F10F0070081
:10FEC40007D1FFF78DBF0220FBE70320F9E70120EC
:10FED400F7E770472CB50020C3B21C20014A03FB8E
:10FEE400002070472CB500202DE9F041012207467F
:10FEF4003449D1E8EF3FC1E8E02F0028F9D133B904
:10FF0400314932484B60CB608A6005F01FFE7B1E8E
:10FF1400012B28D8012F06D12D4BD3F81C3403F024
:10FF24000303022B1FD007F03EF90546E8B9294B1D
:10FF34001B78D3B102220646254BC3F80823244C70
:10FF4400DFF89480D4F81824D4F81834D20315D5E3
:10FF540003F00303022B01D0012F0FD16DB386F3FD
:10FF64001188BFF36F8FBDE8F081EFF31186202372
:10FF740083F31288BFF36F8F0125E0E7C5B13046E4
:10FF840006F045F8D4F81835DBB2012BDAD1D4F8F1
:10FF94000421002AD6D00022C4F80421D4F8042174
:10FFA4000222C4F818252022C8F88021A360C9E7DA
:10FFB4000021212003F05CFEE4E70222044BC3F895
:10FFC4000423D0E728B5002018B5002048B5002048
:10FFD40000500040A1B7002000E100E008B5074848
:10FFE40006F06EFF38B10648FEF706FA0448FCF73F
:0CFFF400CDFA002008BD6FF01200FBE702
:020000022000DC
:100000009C7A0200090002000A2838B50446074D10
:1000100004D1AB680D2128465B689847AB6803485C
:100020005B68E1B29847204638BD00BF9C7A020069
:10003000F0B5406801F01F04057B87B044EA451421
:100040000569002D63D0B2F5001F00F1100506D13F
:100050002146284606F0DFFD002007B0F0BD00274E
:10006000B2F5800F01AE0197776039D1B3F1007F0F
:1000700014BF052304238DF804300023CDE9046365
:100080000393836823FA01F111F001011AD1B2F14F
:10009000A07F17D104F01F03620903F180032AD067
:1000A000012A3AD11E4A52F82330DB070AD40DF157
:1000B000030632462146284601F062FE194B98425B
:1000C0001BD002962146284603AA01F0B9FC164B24
:1000D00098421FD101222146284601F0D1FEBBE7FC
:1000E000B3F1C06F05D0B3F1007F14BF0123022329
:1000F000C1E70323BFE70D4AD5E73146284601F0A3
:10010000B3FE094B9842DCD06FF00B00A5E76FF00F
:100110008500A2E76FF015009FE751F82330FFDE5E
:10012000002884400400AD0B0000AD0B0025844086
:1001300038B545682B69B3B11035284601F07AFE11
:10014000044680B90146284601F038FE084B984223
:100150000BD122462846074901F004FE224605211C
:100160002F20FDF7B7FE002038BD6FF00400FBE73D
:100170000000AD0B790102004209034670B502D0C0
:10018000012A17D070BD0D4E326951680029F9D08F
:10019000012503F01F030C689D400029F2D08A68F6
:1001A0002A4002D030464B6898472CB1236821463C
:1001B0001C46F2E7024EE7E72346F8E7887A02009A
:1001C000747A02002DE9F04340F206354668D00605
:1001D00048BF0320337B02EA050558BFC2F3401035
:1001E00087B001F01F07B5F5837F144647EA431730
:1001F0008DF8030043D00FD8062D18D007D8B5B11D
:10020000022D3ED06FF0150007B0BDE8F083B5F5C4
:10021000807FF7D101250AE040F20222954232D0D8
:10022000B5F5407F31D0B5F5007FEBD10225220333
:100230002DD5012372688B409360326982BB07F031
:100240001F037F092AD0012F77D13E4A02EB830298
:1002500084F48033D2F80012C3F30043C4F3404463
:1002600044EA430421F4706144EA800421F00F0160
:1002700044EA05230B43C2F800320020C4E70725F7
:10028000D5E70425D3E70525D1E70325CFE76303A9
:1002900041BF012372688B40D360CEE72A4AD5E77D
:1002A0001036394630460DF1020201F069FD14F4B2
:1002B000403F80460CD13946304606F0AAFC234B1D
:1002C0009845DAD130469DF8021001F0C1FDD4E71F
:1002D0004FF0000901AB3946304603AACDE9043995
:1002E000CDE90199CDF80C9001F0AAFB174B98428B
:1002F00088D114F4003315D09DF8033084F4803491
:10030000C4F300448DF80E3039464B46304603AAFC
:100310008DF80C508DF80D4001F088FC0B4B984285
:10032000CDD06FE7CDE9043339460DF103033046F4
:1003300003AA039301F084FBF0E7803352F82330E3
:10034000FFDE00BF00288440002584400000AD0B84
:10035000082230B50C4685B005460B490DEB02006E
:1003600005F0C0FE082C28BF0824039B22461BBAB8
:100370000093029B69461BBA2846019307F032FAA4
:10038000204605B030BD00BF0402FF0038B5446808
:100390000569E3699847206A06F02FF800280DDB0D
:1003A0002B462046074A04F1080102F09BF9064B50
:1003B000984204D1204602F0CFF9002038BD6FF0FA
:1003C0000400FBE7090402000000AD0B70B54468AF
:1003D00023682046D3F80855D3F80C6502F0CCF911
:1003E0003146284602F0C4FC0546206A06F005F8AE
:1003F000204602F0B1F9034B9D4214BF6FF00F008D
:10040000002070BD0000AD0B0378012B08D0022B3B
:1004100008D04BB9054B0B6201F1100002F074BF1C
:10042000034BF8E7034BF6E7034BF4E70000AD0B93
:100430000100AE0B0200AE0B0100AD0B2DE9F04F39
:10044000934614221D46D0F804A08BB00669BAF872
:10045000183080460C460DEB02000021D6F824909F
:10046000029307F0CCF98DF815504FF0FF324FF0A2
:10047000FF33304602F06CFF06F1100301930027B2
:100480000022002306F1100002F062FF3D465F45A6
:1004900001D3002460E0207A020700F18180013757
:1004A0005F4521680AD2830708D4237D80EA0302CE
:1004B00002F0010203F004031A4307D025B901F04A
:1004C0006043B3F1005F17D0002300E001236268AE
:1004D000DDF808E005EB020CF44564D8C00705D44C
:1004E00009EB0500039307F07DF9039B62682A443A
:1004F00095B2002B3FD1FDB90025236808936368AE
:10050000227A069302F001018DF81410BAF8241033
:1005100099424BD382F00202C2F34002504652018C
:1005200005A902F047F9234B984209D00B339842B2
:1005300010D16FF00F040FE02B46CDF82090DFE7CD
:100540004FF480420023019802F002FF58B1404668
:10055000FFF73CFF6FF00404304602F0D5FE204662
:100560000BB0BDE8F08F336A124A9342F2D1237A7E
:10057000DB0702D400250C3489E7089B9945F9D1A3
:10058000234608E0A91AD8688DB219FA81F10393BD
:1005900007F028F9039B5A680C3B9542F2D2E9E731
:1005A0006FF08504D8E76FF01B04D5E76FF01B04EC
:1005B000D5E700BF0000AD0B036803F01F025B0925
:1005C000026004D0012B034818BF00207047024886
:1005D000704700BF00288440002584402DE9F04F7B
:1005E0001546834640F2FF18DFF87491DFF874A1D6
:1005F00085B000EB8101594503D1002005B0BDE86D
:10060000F08FDBF80030C3F3C322082AC3F30804D9
:1006100000F2A0805B0C043B444508BF4FF0FF3460
:1006200019F802701E2B00F29880DFE803F0101713
:1006300026969696962D5A9696969696969696966F
:100640005D676A6D969696707685888B8E00601CC5
:10065000C5F808457CD10BF1040BCCE7621CC5F84A
:100660000C45F8D0012603A80394FFF7A5FF01224B
:10067000039B02FA03F3C3600FE0C5F81045631C47
:10068000E9D00026002208E0C5F80845002FF6D181
:10069000631CE0D0002606273246DBF800300394C6
:1006A00003F40040002818BF002203A818BF012649
:1006B00001930092FFF780FF039C019B00EB8400F5
:1006C000D0F80042C3F3412C009A3B0243EA8C036A
:1006D000134304EA0A04234343EA4603C0F8003202
:1006E000B9E7C5F80C45D1E7C5F86045661CDBF8ED
:1006F0000030B0D0C3F300439BB9B3E7C5F86445FD
:10070000F4E7C5F86845F1E7C5F86C45EEE7C5F8CC
:100710002445601C9FD00126B4E7C5F82845621C1B
:1007200099D0012603A80394FFF746FF039B3246A6
:1007300006FA03F38360B0E7C5F83045E9E7C5F88A
:100740003445E6E7C5F83845E3E7C5F83C45E6E754
:10075000002688E76FF0150050E76FF085004DE741
:1007600081850200F0F0FCFF38B570B14FF4004510
:100770000021064C0023E0FB0541054A2046FBF71B
:10078000E9FCBDE8384003F075BA38BD3F420F00C0
:1007900040420F002DE9FF4105690646D0F804806C
:1007A000A86C2B6D002835D1002B53D0B8F83840F9
:1007B0006A6C9C4228BF1C46EF6CEB6C53B1296DF0
:1007C00041B107F06041B1F1005F03D0082C28BFB0
:1007D00008246F6E00926A6CAC651AB1AA6C002A8C
:1007E00018BF2246CDE901271BB12B6D002B18BF86
:1007F0002346002269464046039301F06DFE184BE4
:10080000984229D06FF00401304604B0BDE8F041B1
:1008100006F043B8696CEF6C0A46B8F83840ABB1E3
:10082000834228BF03469C4228BF1C460029C4D0EF
:1008300001F06043B3F1005FBFD0082C28BF08244B
:10084000286E224606F0CEFF2A6EB6E7844228BF05
:100850000446EBE71946D7E704B0BDE8F08100BFD6
:100860000000AD0B2DE9F04F8FB00193436888462F
:1008700002938B88074699049146046900F124810C
:100880004FF0FF324FF0FF3304F1100002F060FD33
:10089000C4F80480D7F810A0D7F804B09AF85D30F7
:1008A000DBF808C023B1DAF80030984500F09180F9
:1008B000B8F804E01EF4006F40F03A811EF0090F12
:1008C00040F03381CEF34513082B40F02E81D8F849
:1008D00000300393039AAE4B9A4240F22681AD4B0F
:1008E0009C4506D9AC4AD2F8582512F0030F18BF20
:1008F0009C4604AD0BF10C060FCE0FC50FCE0FC5F5
:10090000039B96E80300634528BF63469C46A34BC0
:1009100085E803009C451BD29E4B9C4518D2A04BFA
:100920009C4515D29F4B9C4500F2D7809E4B9C4521
:1009300000F2D5809D4B9C4500F2D3809C4B9C459A
:1009400000F2D1809B499C4B9C4A8C4588BF134642
:100950001EF0020F09930EF0040300F0C680002B76
:1009600014BF032302238DF82830CEF300138DF833
:100970002930DBF800301EF0020FD3F80825CEF343
:1009800040014FEA521302F01F0240F0B480002BE6
:1009900000F0AF80012B40F0F5808949012393409E
:1009A000CB609AF85D302BB1584601F04DFD002325
:1009B0008AF85D303B465846824A04A901F010FD92
:1009C000814B984240F0A1800123CAF800808AF848
:1009D0005D30012384F85C30029B196C4A1C03D003
:1009E00003F1440005F0C3FFB9F1000F40F0A3800C
:1009F000C4F834900023A36304F1480204F13801E1
:100A000004F1340005F07DFE019B6064002B40F092
:100A10009B80E3630023236404F1500204F140014E
:100A200004F13C0005F06DFE002501212A46E0643A
:100A30002563204605F08CFE3846FFF7ABFE2A46BC
:100A40002B46A06B834240F0888000231946256C1A
:100A5000A94240F08980934238BF134626464FF49E
:100A6000FA524FF0000802FB03F556F8203B4FF412
:100A7000004C1B684146B5FBF3F540F2E730C83542
:100A80004FF47A720023E5FB0C01FBF763FB02468F
:100A90000B46304602F05CFC024618B9256B15F196
:100AA000740F68D10298C4F8588001F0CDFC6FF043
:100AB0007301384684F85D8005F0EFFE304602F0A1
:100AC0006DFC6FF0730522E0A369002B7FF4D8AEB4
:100AD000636898457FF4D4AEDCE63C4B38E73C4B8A
:100AE00036E73C4B34E73C4B32E7003B18BF012371
:100AF00039E73A4952E733B1012B45D13049012357
:100B000093408B604DE73549F9E76FF004052368A2
:100B10009B8813F4005304D1636004F1100002F0C9
:100B2000F3FB28460FB0BDE8F08F6FF01505EEE738
:100B30006FF08505EBE7D9F800306363002B3FF4D5
:100B400059AFD9F8043056E7019B1B68E363002BCB
:100B50003FF460AF019B5B685DE7616B01EBC30134
:100B6000496801330A446DE7E06B00EBC10040685F
:100B7000013103446CE7002DC9D00146386905F006
:100B8000E7FDC4E7C960FFDE00239B60FBE700BF11
:100B900047E801000024F400005000400048E8014C
:100BA00000127A00FF083D007F841E003F420F00C4
:100BB0001FA107008FD0030048E8010090D0030078
:100BC00000288440BD6802000000AD0B00093D0014
:100BD00080841E0040420F0020A1070000258440B1
:100BE00000F01F0240090DD001280DD1094B03EB85
:100BF0008203D3F80002084A024042EA8102C3F8A5
:100C000000227047054BF2E70023803253F8223070
:100C1000FFDE00BF00288440F0F0FCFF0025844088
:100C20000123F0B587B08DF80230022300248DF83F
:100C300004306B4403930F4601AB0DF103010493A1
:100C400005460291059401F00FF90C4B06469842B7
:100C50000FD13946284603AA00F0F2FEB0420BD06D
:100C600028469DF8031001F0F3F86FF0040007B078
:100C7000F0BD6FF01200FAE72046F8E70000AD0B78
:100C80000123834070B5DC430B4AD2E8EF1F01EA31
:100C90000405C2E8E65F002EF7D14FF480328240AF
:100CA0000648C0F80823BFF35F8FBFF36F8F0B4276
:100CB00014BF0120002070BD1CB600200050014070
:100CC00070B40E4922F07F46D1E90034D01AC3181F
:100CD00044F10004C1E90034A6F50013B3F5400F58
:100CE00009D2074B1B681A0A1B069C19054B42F1D7
:100CF0000005C3E9004570BC03F070B910A60020E0
:100D000020B6002018A60020D9B101230D4A834047
:100D1000D2E8EFCF4CEA030CC2E8E1CF0029F7D1CB
:100D20004FF48033084A8340C2F80433074BD3E8BA
:100D3000AF3FC340DB0742BF4FF40012044BC3F880
:100D4000002170471CB600200050014018B600205A
:100D500000E100E00D4B1868010A0006BFF35F8F49
:100D60000B4BD3F80435181841F10001B3F5801F7F
:100D70000AD2084BD3E90023904271EB030303D25C
:100D800010F1807041F10001704700BF20B60020D3
:100D90000050014018A600202DE9F04F85B01646FE
:100DA0001F4604469DF840A0FFF76AFF0190FFF739
:100DB000D1FFB04271EB070352D23B4B301A67EBC5
:100DC0000101984271F100014DD2384B03EB04133D
:100DD000D3E902239F4208BF964258D04FF480388F
:100DE000334908FA04F8204626F07F4BC1F84883BF
:100DF00005F0E5FD4FF00309584604F15005AD003C
:100E0000ADB205F1804504F5A87305F5A835029348
:100E1000029A20F07F4341F82230C1F84483D1F890
:100E20000435244AC01A033820F07F4090422ED95E
:100E3000286868B1D1F80435A3EB0B0020F07F409F
:100E4000B0F5000F039322D9204605F0B8FD039BAF
:100E5000BAF1000F07D109EB030009F10109D7E747
:100E6000BAF1000F09D06FF0150520460199FFF780
:100E70004BFF284605B0BDE8F08F01230E4AA34082
:100E8000D2E8EF0F1843C2E8E10F0029F8D1074973
:100E90000E982301C8500F9B01EB04120025C2E9F4
:100EA00002675360E1E700BF0100800000A6002058
:100EB00000500140FDFF7F0018B600207FB50025DF
:100EC0004FF0FF304FF0FF31194C1A4B0226C4F897
:100ED0000833C4F84833184BC4F80855C3E9020175
:100EE0004FF480334FF40012C4F80433134B012144
:100EF000C4F804631520C3F880212A46FCF7EAFFF2
:100F00001520FCF7B7FF01230D4AA360236013608F
:100F10000C4B0D4A009328460023CDE90155FFF7FD
:100F20003BFF3046FEF7E2FF284604B070BD00BF2D
:100F30000050014003000F0000A6002000E100E087
:100F40001CB60020C10C0200FFFF7F002DE9F74313
:100F50002E4BD3F8042390070BD5D3F8042142B1CC
:100F60000022C3F804212A4AD3F80431136801335C
:100F70001360264AD2F80433D90326D5254BD3E88B
:100F8000EF1F21F00100C3E8E40F002CF7D1CB07DD
:100F900002D4D2F84031C3B100251C4CC4F84051F2
:100FA000D4F84031FFF7D6FEEFF31182202383F30C
:100FB0001288BFF36F8F184BD3E90267B042B94173
:100FC00006D282F31188BFF36F8F03B0BDE8F083C0
:100FD0004FF0FF38D3E900104FF0FF391D60C3E92F
:100FE00002894FF48033C4F84833C4F84051D4F830
:100FF000403182F31188BFF36F8F0029E5D0009054
:1010000032463B4628468847DFE700BF0050014094
:1010100020B6002018B6002000A6002030B5431CE2
:10102000124C85B005D08442A8BF0446012CB8BF3D
:101030000124FFF78FFE0E4B0C4DD3E90013401A2D
:10104000B0F5000F0FD22218AA4228BF2A4600206E
:1010500052180849CDE90100009143F10003FFF760
:101060009BFE05B030BD2A46F1E700BFFFFF7F00C1
:1010700010A60020C10C020008B5FFF76BFE024B62
:101080001B68C01A08BD00BF10A600200149024815
:1010900005F0A5BC5911020024B600202C4A00F02E
:1010A0000800136F072B2BD0132B1CD0052B3AD124
:1010B000526D12F4805F14BF1723162312F4006FD1
:1010C00018BF182312F4007F1EBF224B9B6B1923FD
:1010D00012F4806F18BF1A2312F4807F25D112F406
:1010E000005F18BF1C23CA6968BBC2F3080020B99F
:1010F0006FEA52226FEA4222CA61184604F04EBFDC
:10110000D36DDA0713D49A0713D45A0713D41A07E6
:1011100013D4DA0613D49A0613D413F0800F14BF35
:101120002C232523DFE70023DDE71B23DBE7262332
:10113000D9E72723D7E72823D5E72923D3E72A238D
:10114000D1E72B23CFE722F4FF7222F00102D3E78D
:1011500024B6002000ED00E000B5104B89B05A6ABB
:10116000D86C00929A6A20F005000192DA6A69460A
:1011700002921A6B03925A6B04929A6B0592DA6B85
:1011800006921A6C1B6D07929B0748BF40F0040043
:10119000FFF784FF09B05DF804FB00BF24B6002010
:1011A0002DE9F0411F46164B044693F800800D468A
:1011B0001646A2B0B8F1000F15D1684604F0FFFE44
:1011C0003A4631462846289BA0470446684604F024
:1011D000F7FEB8F1000F02D00A4802F027F82046C7
:1011E00022B0BDE8F0814FF0FF324FF0FF330548E9
:1011F00001F0A4FF0028E0D06FF08304EFE700BF08
:10120000A1B7002094A30020002300B589B0CDE948
:10121000063303AB0493042303900593A9B10B6831
:1012200006934B6807930223111E18BF012108483B
:10123000CDE9002140F2F53104AA00F00BF80028B6
:10124000B8BF012009B05DF804FB0123ECE700BF43
:101250000501004010B4B1F5004F029C0ED2042BE2
:101260000CD8042C0AD8240444EA0364134644EA44
:101270000102014610BC0348FFF792BF6FF08000E7
:1012800010BC7047217C010030B50468ACB1B4FAE1
:1012900084F30122C3F11F03DBB29A4024EA020265
:1012A000D0E8EF5FA54204D1C0E8EC2FBCF1000FFD
:1012B000F6D1EAD102480B7030BD0248FCE700BF0E
:1012C0000000AD0B0200AD0B10B50368CB40DB078F
:1012D00010D401238B40026843EA0201D0E8EF4FAB
:1012E000944204D1C0E8EC1FBCF1000FF6D1F2D15A
:1012F000014810BD0148FCE70000AD0B0400AD0B38
:10130000014BC3F8040570470070014073B5032812
:1013100058D8DFE800F0021724310222504BC3F8FE
:1013200008230122DA600022C3F80421D3F8043133
:10133000002401238DF80730032843D8DFE800F0AC
:101340002944607C0122464B0DF10704C3F80823B1
:101350005A600022C3F80021D3F80031E9E74FF4C6
:1013600000723F4BC3F8082301225A620022C3F8DF
:101370002421D3F82431DBE74FF48072384BC3F8D3
:1013800008230122DA610022C3F82021D3F820319A
:10139000CEE742F21075324ED6F8183403F480339B
:1013A00034B97BB1012005F076FB013DF4D109E0B1
:1013B000D6F8182402F0030222701BB19DF8070032
:1013C0000128F0D002B070BD42F21075244ED6F85C
:1013D0000C3403F480333CB9002BF3D0012005F02A
:1013E0005AFB013DF3D1EDE7D6F80C2402F00102DF
:1013F0002270002BE6D09DF807000128EFD0E1E72E
:1014000042F21075164ED6F85C3403F480333CB9C2
:10141000002BD7D0012005F03EFB013DF3D1D1E7F1
:10142000D6F85C2402F001022270002BCAD09DF88D
:1014300007000128EFD0C5E742F21075084ED6F834
:101440005434DB03BED52CB9012005F024FB013D4B
:10145000F5D1B7E79DF807000128F6D0B2E700BF45
:1014600000500040044B1A7922B9012218601A7109
:10147000024870470248704798B600200000AD0B44
:101480000C00AD0B08B50A4B1B6833B10520FCF707
:1014900013FD10B90520FCF7EDFC0123054AC2F845
:1014A0001835C2F81435C2F88035034A137008BDE8
:1014B00098B60020005000409FB7002010B50328C8
:1014C00046D8DFE800F01B02565000224FF480732C
:1014D0000121002003F1804303F5A04318601C683C
:1014E000012402F1804202F5A0421460274A1268EA
:1014F000002A44D0264BC3F8041329E0244BD3F828
:101500001814D3F81824C90311D502F00303022BD1
:1015100005D0012B02D00020FFF7F8FE01231C4A62
:101520000221C2F8183508224FF48273D1E7D3F8AC
:101530001424D207F2D5D3F81C2402F00302013A96
:10154000012AE8D8114A12681AB10222C3F804230A
:1015500010BDD3F80421002AFBD00022C3F80421D7
:10156000D3F80431F4E718224FF490734FF48071EC
:10157000AFE720224FF492734FF40071A9E71A6885
:10158000002AFCD018601B68E2E700BF98B6002074
:101590000050004010B5284BD3F8002152B1002074
:1015A000C3F80001D3F800210122C3F80823234B1C
:1015B0001B689847204BD3F8042182B10022C3F85E
:1015C0000421D3F80421D3F81824D3F818240221D5
:1015D00002F00302012A26D1C3F818159A60164BAF
:1015E000D3F8202162B10022C3F82021D3F82021B2
:1015F0004FF48072C3F80823104B05201B689847EE
:101600000D4BD3F82421AAB10022C3F82421D3F82A
:1016100024214FF40072C3F80823084B0620BDE8CC
:1016200010401B681847C3F80813044B01201B68BF
:101630009847D4E710BD00BF0050004098B6002086
:1016400001460148FFF720BE18A20020036803F0FE
:101650001F025B09026004D0012B034818BF002061
:1016600070470248704700BF00288440002584402E
:10167000034A4309D35C00F01F001844C0B270470E
:10168000BF85020070B505460846FFF7F1FF42210D
:101690002A79174B01FB0202083233F81200C10508
:1016A00025D584240026C0F3432120F4F85023F8E4
:1016B00012002A7904FB02340E3434F8020F10F4BD
:1016C000807F03D0C0F34320814210D00136302EFA
:1016D000F3D184200024424302EBC1029C502A79BA
:1016E000BDE8704000FB02307830FFF7EDBD70BD03
:1016F0001CA20020034611F0010010B5CCB20BD1A2
:10170000A207C4F340000DD5074A106A5860106262
:10171000003818BF012005E004490A6A1A600A620D
:10172000002AEDD010BD00BF002884400025844071
:1017300010B504460846FFF79BFF422303FB040055
:10174000024B083033F81000400B10BD1CA20020E3
:1017500010B504460846FFF78BFF422303FB040045
:10176000034B083033F81000C0F3400010BD00BF39
:101770001CA2002010B504460846FFF779FF42235B
:1017800003FB0400034B083033F81000C0F3401093
:1017900010BD00BF1CA20020F0B5054600200126A8
:1017A000044607468C420BD1114BD3F87C2132B151
:1017B0000022C3F87C21D3F87C3140F00040F0BD1A
:1017C000E3B29B0003F580729B0806FA03F31D4207
:1017D0000BD002F1804202F53C32D2F800C0BCF1DD
:1017E000000F02D01760126818430134DAE700BF17
:1017F00000F002402DE9F04F0546644B296FD3F805
:10180000040387B0C0B240F00040FFF7C5FF061EDA
:101810002CDA0023E96F04A8CDE90433FFF76AFF4F
:10182000DFF86CA1DFF86CB10DF110091AF8013B7B
:1018300005EBD30292F87C2003F0070322FA03F3AE
:10184000DA0769D4544B09F1040953450BF1010B34
:10185000ECD1296F4FF00040FFF79EFFE96F04A81D
:10186000FFF748FF0028DBD126F000460124002EB8
:1018700073D107B0BDE8F08F91FAA1F1B1FA81F10F
:101880009BF8004041EA44142046FFF7F1FE08307F
:1018900035F81080C8084FEA98030193012319F81E
:1018A000002001F0070103FA01F122EA010209F820
:1018B000002003A80394FFF7C9FE039A019B80321E
:1018C00050F82220C8F382075B07B846C2F30142F2
:1018D00027D52846D7B22146424605F044F903A849
:1018E0000394FFF7B3FE039B803350F82330C3F318
:1018F00001439F4207D10021204605F025F93946D2
:10190000204605F021F903A80394FFF79FFE01226A
:10191000039B02FA03F30362D9F800100029ABD14C
:1019200090E7022A0DD10321204605F00DF907F0BA
:101930000503012BE7D142462146284605F013F95D
:10194000E1E702212046019205F0FEF8032FF2D0D4
:10195000019A032AD7D1022FECE796FAA6F3B3FA3D
:1019600083F304FA03F29B0003F1804303F53C3355
:10197000D3F8101526EA0206D3F810252846C2F33C
:101980000142C1F3052105F0EEF870E700F00240D6
:10199000CF850200CF850200D18502002DE9F743F3
:1019A00005460846FFF764FE42222B79204F02FBD2
:1019B0000303083337F813300E46DB07044635D5EA
:1019C000284605F001F995F8049031464846FFF79E
:1019D000D1FE60B14846FFF7ABFE0022D5F800808B
:1019E00000B208EB8003C3F81025C3F81025284681
:1019F0003146FFF747FE42222B7901A802FB034440
:101A00000023083427F814300196FFF71FFE019BCE
:101A100000EB8300D0F80022064B134043F0020392
:101A2000C0F80032044803B0BDE8F0830348FAE789
:101A30001CA20020F0F0FCFF0000AD0B0400AD0B79
:101A40002DE9FF47174604460846FFF711FE3E689A
:101A50008846054676B394F804904846FFF778FE2A
:101A600018B14846FFF786FEA0BB00234046CDE9EB
:101A700000338DF80E308DF80F300DF10F02334624
:101A80000DF10E0105F017F842202379644A00FB9E
:101A90000353083332F8131021F0020122F8131017
:101AA000237900FB0353083332F8131041F001018E
:101AB00022F813107B68002B45D02679414630462A
:101AC00093F80090D3F804A0FFF742FE20B1BAF1DA
