:10000000C03000203D0C000059710000290C000098
:10001000290C0000290C0000290C00000000000041
:10002000000000000000000000000000F10D0000D2
:10003000290C000000000000BD0D0000290C00008C
:10004000A50F0000A50F0000A50F0000A50F0000E0
:10005000A50F0000A50F0000A50F0000A50F0000D0
:10006000A50F0000A50F0000A50F0000A50F0000C0
:10007000A50F0000A50F0000A50F0000A50F0000B0
:10008000A50F0000A50F0000A50F0000A50F0000A0
:10009000A50F0000A50F0000A50F0000A50F000090
:1000A000A50F0000A50F0000A50F0000A50F000080
:1000B000A50F0000A50F0000A50F0000A50F000070
:1000C000A50F0000A50F0000A50F0000A50F000060
:1000D000A50F0000A50F0000A50F0000A50F000050
:1000E000A50F0000A50F0000A50F0000A50F000040
:1000F000A50F0000A50F0000A50F0000A50F000030
:1001000053B94AB9002908BF00281CBF4FF0FF317E
:100110004FF0FF3000F00CB8ADF1080C6DE904CEE3
:1001200000F008F8DDF804E0DDE9022304B07047D0
:10013000704700BF2DE9F04786468C460846089E6A
:10014000154674461946002B40F0C2808542B2FA2B
:1001500082F245D94AB1C2F1200300FA02FC2EFA1C
:1001600003F3954043EA0C0C94404FEA154EA8B2B5
:10017000BCFBFEF8230C0EFB18CC08FB00F943EA8D
:100180000C43994528D9EB1808F1FF3704D299455B
:1001900002D9A8F102072B44A3EB0903A4B2B3FBD5
:1001A000FEFC0EFB1C330CFB00F044EA0344A042AF
:1001B00014D92C190CF1FF3304D2A04202D9ACF1AE
:1001C00002032C44241A43EA07401EB1D440002302
:1001D00034607360BDE8F0874746DDE76346F1E7CA
:1001E00092BB431B01214FEA154EAFB2B3FBFEFC9D
:1001F000200C0EFB1C330CFB07F840EA0343984528
:1002000062D9EB180CF1FF3004D2984502D9ACF159
:1002100002002B44A3EB0803A4B2B3FBFEFC0EFBCD
:100220001C330CFB07F744EA0344A7424ED92C19B0
:100230000CF1FF3304D2A74202D9ACF102032C44E3
:10024000E41B43EA0040C0E7C2F1200320FA03F1B7
:10025000954090402EFA03F303434FEA154EAFB298
:10026000B1FBFEFC0EFB1C10190C0CFB07F841EA5D
:100270000041884504FA02F422D969180CF1FF30D4
:1002800004D2884502D9ACF102002944A1EB08014F
:100290009BB2B1FBFEFC0EFB1C110CFB07F743EA03
:1002A00001439F420ED9EB180CF1FF3104D29F425B
:1002B00002D9ACF102012B44DB1B41EA004192E779
:1002C0006046E3E76146F7E76046A3E76346B7E7C2
:1002D000834206D916B9002108467BE7C6E900E04B
:1002E000F9E7B3FA83F78FB9834201D3724508D88F
:1002F000BEEB020460EB030301209C461EB9002103
:1003000068E73846FAE7C6E9004CF8E7C7F1200C81
:10031000BB4022FA0CF41C432EFA0CF120FA0CF329
:10032000B84001434FEA14490EFA07F5B3FBF9F858
:100330001FFA84FE09FB18300B0C08FB0EFA43EA87
:1003400000439A4502FA07F240D9E31808F1FF305A
:1003500004D29A4502D9A8F102002344A3EB0A0370
:1003600089B2B3FBF9F809FB183308FB0EFE41EA2A
:1003700003418E452CD9611808F1FF3304D28E4514
:1003800002D9A8F10203214443EA0040A0FB0298ED
:10039000A1EB0E014145CE46434602D306D14D4561
:1003A00004D2B9EB020E68EB04030138002EA6D08C
:1003B000B5EB0E0261EB030101FA0CFC22FA07F324
:1003C0004CEA0303F940C6E9003198E74046C5E727
:1003D0004346D9E708B54FF0FF324FF0FF330648E8
:1003E00003F0AAF9054B06481A68013A1A60196821
:1003F000BDE8084006F0C0BDB001002000000020AC
:100400002C80000007B5094806F0B6FD0A24FFF766
:10041000E1FF04210DEB010000F07EFF019BB3FB27
:10042000F4F004FB103006F02CFDF0E75E800000D5
:1004300008B5064B06481A6801321A60196806F0BA
:100440009BFD0448BDE8084003F052B900000020BD
:1004500077800000B001002007B50A4806F08CFD47
:100460000A24FFF7E5FF04210DEB010000F054FF23
:100470000198B0FBF4F304FB130000F5FA7006F0EA
:1004800000FDEEE7A9800000014B1B68184700BF84
:100490000400002030B585B004460D46102200212E
:1004A000684607F0DAFA02238DF802302A46044B38
:1004B00001932146684606F087FA05B030BD00BFBB
:1004C00089040000014B1860704700BF0400002041
:1004D00080B505460E461746984603F03FFC034696
:1004E00007F0C4FADFF81890044649F80030424695
:1004F00030463946A84754F8090000F00DFC00BF0B
:10050000080000002DE9F047058B044628079046B7
:1005100011D4022905F0070540F0CC80204606F0F2
:1005200038FD78B10138218B042811D8DFE800F0BC
:10053000C2106D85950001290CBF45F0100545F0EE
:100540002005258388F31188BFF36F8FBDE8F087FE
:1005500001F0070AAA4500F0A5800027B9463E46EB
:10056000A368002B00F0BC8041F00801218388F3D0
:100570001188BFF36F8FA168002900F0BA800D6861
:10058000002900F0B680D1F8048033465246204658
:10059000C047002D76D02B6829461D46F0E701F0B4
:1005A00007035A1F012A1BD8002221F00701062B3E
:1005B000276889B2C4E9002209D13B4603E0628B77
:1005C000013262831B68002BF9D141F002012183C3
:1005D000204606F0DEFC00287AD041F0200176E0CB
:1005E000042B0AD121F0070189B22183204606F0AD
:1005F000D0FC10B141F020012183218B01F0070ACA
:10060000AA454FD00027B946AAE7236921F0070180
:1006100041F00601062DD3F8009021832DD1B9F1C8
:10062000000F3FD041F00801218388F31188BFF308
:100630006F8F3A492046C84729E021F00701236916
:1006400041F0040189B2042DD3F804902183E6D04F
:1006500000273E464FF0040A82E721F00701236994
:1006600041F0050189B2052DD3F808902183D6D039
:1006700000273E464FF0050A72E700273E464FF03E
:10068000060A6DE72B4687E7B9F1000FD1D1EFF3EA
:100690001188202383F31288BFF36F8F238B23F0FD
:1006A00008032383258BEA062ED525F01003238328
:1006B00005F007056669218B002EBFF670AF002399
:1006C0002768C4E9003321F0070141F001012183CB
:1006D000218B01F0070AAA454FF000097FF440AFD3
:1006E000002F9CD041F00801218388F31188BFF3CB
:1006F0006F8F002FC8D03D6839463346524620469A
:1007000006F073FC2F46F4E7AB067FF51BAF25F030
:100710002003238305F0070500E700BF17700000E2
:10072000014B036000207047587D000008B5044865
:1007300006F022FCBDE80840024806F01DBC00BFE0
:10074000DA8000000F810000014803F03BBD00BFCC
:10075000587D000038B5044618B90F4B0F485B6848
:1007600098476168B1F5683F10D0B1F5680F0DD0BA
:100770000B4DA9420AD011F46861206807D00146E8
:10078000084806F0ABFF00232360656038BD1422E3
:1007900007F063F9F9E700BFE40000203D810000A5
:1007A0002C5F5CA98009002008B520B34368B3F52D
:1007B000683F10D101220368BFF35B8F53E8001F2D
:1007C000002903D143E800200028F7D1BFF35B8F55
:1007D0000DD1002008BD094A93420AD000684FF0AD
:1007E000FF324FF0FF3302F0CFFE0028F1D0044873
:1007F000F0E70448EEE76FF4E040EBE72C5F5CA91C
:10080000E98FFFFFEA8FFFFF08B5D8B14368B3F562
:10081000683F10D100220368BFF35B8F53E8001FCD
:10082000012903D143E800200028F7D1BFF35B8FF3
:100830000BD1002008BD074A934208D0006802F09F
:100840001BFFF6E76FF4E040F4E70348F2E70348E4
:10085000F0E700BF2C5F5CA9E98FFFFFEA8FFFFF85
:1008600010B5044618B91D4B1D485B68984763686E
:10087000B3F5683F2FD0B3F5680F2CD0194A9342D7
:1008800019D1236803BB18484FF0FF324FF0FF33F4
:10089000214602F04BFE08B923681BB90F4B1348E1
:1008A0005B68984720681422002107F0D6F84FF4BF
:1008B0006863636008E0B3F5683F0DD83A2B03D056
:1008C00040F6BA629342DED1206806F03FFF6368CB
:1008D00043F03A03636010BD054AF3E7E4000020EB
:1008E0003D8100002C5F5CA980090020638100002D
:1008F0003A00003A08B5064906484023142206F09B
:10090000DFFEBDE808400449044803F01FBD00BFF6
:100910008004002080090020607D0000747D0000BC
:1009200030BFFFF7FDBF00BF2DE9F0410B4EDFF8F0
:10093000308006EB0807CC1B0546324609492046A5
:1009400007F063F8A01942460021083C07F085F83B
:100950002C6707F10800BDE8F08100BF000000002F
:1009600004000000487D0000074A936893F90E10C8
:10097000002907DB526993421FBF044A536843F0C2
:1009800080535360704700BF3C0B002000ED00E037
:1009900070B5264B15469A6A12F0100F9A6A14BF6A
:1009A0001124102412F0080F9A6A18BF122492071B
:1009B00006460AD5586B9A6A140634D519B19A6A54
:1009C00022F080029A62132401E06FF01500174BA9
:1009D0009A6A12F0010F9A6A18BF142412F0200FBD
:1009E0009A6A18BF1524D20602D49B6A9B070AD5BF
:1009F0000E4B5B68190506D5314600F089FA10B137
:100A000080F309880224094B9A6A920642BF5A6A07
:100A100022F400525A629A6A42F0FF029A6200235C
:100A20002B70204670BD6FF01500CCE700ED00E0A4
:100A3000134B9A6A12F0007F9A6A14BF1E201D2081
:100A400012F0807F9A6A18BF1F2012F4002F9A6A52
:100A500018BF212012F4802F9A6A18BF222012F4A6
:100A6000003F9A6A18BF232012F4803F9A6A6FEA07
:100A700002426FEA12429A6218BF2420704700BFF8
:100A800000ED00E010B5194B0246986A9C6A10F41C
:100A9000805F14BF1720162014F4006F9C6A18BFE3
:100AA0001820A40509D5986B986A000404D51AB1DA
:100AB0009A6A22F400429A6219200C4B9A6A12F444
:100AC000806F9A6A18BF1A20D2050CD49B6A13F45F
:100AD000005F18BF1C20054A936A43F47F4393626A
:100AE00000230B7010BD1B20F5E700BF00ED00E0F8
:100AF000F0B5484B5B688BB00446C3F30803002590
:100B000085F31188BFF36F8F02F07F40B0F17F4F04
:100B100011D102F00C0008280DD010074CBF0C4674
:100B200001250022033B8DF80720032B05D8DFE8C1
:100B300003F0246367602C46F3E700239DF8072049
:100B4000CAB902AE04F1200720686168324603C2C8
:100B50000834BC421646F7D1099A002D54D0C2F38E
:100B6000080121B96FEA52226FEA4222099202A9D2
:100B7000184606F0E7FA0BB0F0BD264BDA6A91078B
:100B8000DBD4DA6A002AD8DBDA6A5200D5D55A6992
:100B9000A16942F480725A61BFF34F8FBFF36F8F28
:100BA0005A6931F8021C22F480725A61BFF34F8FE8
:100BB000BFF36F8F4DF6027291420AD09A6AD2B299
:100BC0004AB10DF1070201212046FFF7E1FE03467D
:100BD000B4E72368B2E79A6A12F47F4F05D00DF1AB
:100BE00007010120FFF74EFFF1E79B6AB3F5803F55
:100BF000A3D3FFF71DFFEAE70DF107020021E3E7AA
:100C00000DF107010020EDE722F4FF7222F001024E
:100C1000ACE700BF00ED00E0024A536943F0100367
:100C20005361704700ED00E0EFF30880EFF30981B6
:100C300001B57246FFF75CFF01BD00BF002080F3E5
:100C40001488BFF36F8F01F0C1FC00200D490860CC
:100C5000BFF34F8F0C4880F3088800F02BF820205A
:100C600080F3118809484FF40461401880F3098823
:100C7000EFF314800221084380F31488BFF36F8FD1
:100C800000F00EF994ED00E0C0300020001F0020BD
:100C90000749D1F890200023C2F307221846934257
:100CA00000DB7047C1F89830C1F8A0000133F6E7C7
:100CB00000ED00E008B572B6002383F31388FFF758
:100CC000E7FF144B4FF0FF32C3F88020C3F88420B5
:100CD000C3F88820C3F88C20C3F89020C3F8942070
:100CE000C3F89820C3F89C20C3F88021C3F884215E
:100CF000C3F88821C3F88C21C3F89021C3F894214C
:100D0000C3F89821C3F89C2162B6BFF34F8FBFF39D
:100D10006F8F08BD00E100E0084B9B6883420BD158
:100D2000EFF3058343B1064B5A6842F080525A6094
:100D30005A6A22F400425A6206F0C6BD3C0B0020FB
:100D400000ED00E0094A93686FF00A0199670849CD
:100D500058674B6843F080534B60002383F311883E
:100D6000BFF36F8F9368986F704700BF3C0B0020F4
:100D700000ED00E010B50446EFF31183202383F368
:100D80001288BFF36F8F0A4B58699860094B4FF078
:100D900000625A60084B026F1A600022436F42677C
:100DA00083F31188BFF36F8F00F01AF9204610BD4E
:100DB0003C0B002000ED00E09C0900200B498A68F4
:100DC0004FF030001044EFF3098C80E8F01F7446B8
:100DD0007046FFF7CFFFA64604498A6802F130004B
:100DE00090E8F01F8CF30988704700003C0B00204E
:100DF0001EF0040F0CBFEFF30880EFF30980816948
:100E000011F8021C0229FFD001B506F0A1F901BDBD
:100E100040B2002807DB044A4109012300F01F000B
:100E2000834042F82130704700E100E040B20028E2
:100E30000CDB4309064900F01F00203301228240E9
:100E400041F82320BFF34F8FBFF36F8F704700BF70
:100E500000E100E0054B420900F01F0053F822209A
:100E6000012303FA00F01040704700BF00E100E0EA
:100E700040B20028A8BF00F1604001F10101B8BFF5
:100E8000064B4FEA4111ACBF00F5614000F00F0086
:100E9000C9B2B4BF195480F80013704714ED00E0D4
:100EA0000B4A08B50B4B22F07F029A60BFF34F8FBD
:100EB000BFF36F8FD3F8882022F47002C3F8882024
:100EC00002F070FA02F0D6FF00F060F802F0AEFA1D
:100ED0000000000000ED00E042F8203C009B42F8DA
:100EE0001C3C0A49019B42F8183C029B42F8143C06
:100EF00021F001014FF0807342F8043C42F8081CD5
:100F00000023203A02654367704700BFD104000008
:100F1000094A0346906870B113F1160F006E05D0B0
:100F2000A0F140029A4205D8834203D2814228BFF1
:100F300000207047002070473C0B002008B5154684
:100F40000B4A0C4B9060026F1A600E4600F048F896
:100F50002C4686F309884FF00000074B984720463F
:100F60004FF000014FF000024FF00003034C204708
:100F70003C0B00209C0900206F710000D104000090
:100F8000014B10221A61704700ED00E00448002375
:100F90002021C2180133302B82F80013F9D1704799
:100FA00000E100E008B5EFF30583064A103B02EBD1
:100FB000C30152F8330049688847BDE80840FFF78D
:100FC000D3BC00BF687B0000024B034A03480121E9
:100FD00000F076B80000042000000020847D0000AE
:100FE000026E054B403A1A60044A4021C3E90112DF
:100FF0001846012100F06EB8A009002000000B1572
:10100000084AC2F898000B6823F01F03034343F01B
:101010001003C2F89C308B6843F00103C2F8A03083
:10102000704700BF00ED00E02DE9F043DFF860807D
:1010300085B00E461F4604464FF00009B14523DA3D
:101040006068D8B13FB1411E08421BD11F2819D991
:101050002368194216D12368019306F0ABF8A36800
:1010600003430393D8F89050C5F30725D0B2013D50
:10107000A84207D801A9FFF7C3FF421C09F10109E3
:101080000C34DBE76FF01502104605B0BDE8F083C5
:1010900000ED00E0044B0522C3F89420BFF34F8F0E
:1010A000BFF36F8F704700BF00ED00E0BFF35F8FAD
:1010B000024B0022C3F89420704700BF00ED00E00F
:1010C00010B5034C01232278FFF7AEFF207010BD4E
:1010D0003416002008B50B4A00231278FFF7A4FF4E
:1010E00010F1160F07D0084A0021D2F89030C3F350
:1010F0000723984200DB08BDC2F89800C2F8A01090
:101100000130F2E73416002000ED00E02DE9F04355
:10111000534B544CD3F890302568C3F307239D42BA
:1011200085B000F29A80FFF7C1FF00200C268542AF
:101130001AD14D4C4D4F25706846FFF7F1FADFF894
:101140002081DFF82C9106460025AE4213D123788A
:1011500043490020D1F89020C2F30722934276DB66
:10116000FFF798FF002042E0616806FB0011FFF7DF
:1011700047FF0130DBE7009800EB05114FEA051C43
:10118000CB683B40B3F5000F48D00AD8B3F5001F39
:1011900030D0B3F5800F36D0B3F5801F10D00135B5
:1011A000D3E7B3F1807F42D0B3F1007FF7D150F89D
:1011B0000C3088684A6805F0FDFF40F4802009E0A3
:1011C00050F80C3088684A6805F0F4FF40F0885009
:1011D00040F43020CDE901230390D8F890302078F6
:1011E000C3F30723013B98422AD96FF0150005B0DD
:1011F000BDE8F08350F80C3088684A6805F0DAFFE3
:1012000040EA0900E6E750F80C3088684A6805F0C3
:10121000D1FF40F0E06040F40030DBE750F80C30E4
:1012200088684A6805F0C6FF40F08270D2E750F83F
:101230000C3088684A6805F0BDFF40F08870C9E747
:1012400001A9FFF7DDFE237801332370A7E7C1F87A
:101250009830C1F8A00001337CE74FF0FF30C6E7BB
:1012600000ED00E0907D0000341600200000F0FF4B
:101270000000081108B5024B1B689847002008BD04
:10128000AC090020034B044A1860937843F0020332
:1012900093707047AC0900202800002008B506496B
:1012A000064821F00701C1F1005202F5802205F045
:1012B00024FE002008BD00BF07310020B009002037
:1012C0000E4A0123C2F840354FF080424FF0805162
:1012D000C2F87835D1F83001082808D1D1F8341196
:1012E000052904D80648415C09B1C2F838364FF0E8
:1012F00080430122C3F880250020704700E00140B0
:101300009F81000020B1034B800143F00103184787
:10131000704700BF507D0000F7B506460D460D48EA
:1013200083688AB21B6831469847002810DA002487
:101330000CE02F1B042F28BF042706F0CFF83A46F5
:10134000019001A9301906F060FB3C44A542F0D899
:1013500003B0F0BD407B0000084B70B5C31A0D46CA
:1013600007499B10044659430648402205F040FFB8
:101370002B4601462046BDE870401847D0090020A2
:10138000B76DDBB6F07A000073B50C4C0C4A402305
:10139000041B00930D460B460A49A4106143064600
:1013A000094805F051FF011E05DA30462B4602B010
:1013B000BDE87040184702B070BD00BFD0090020E2
:1013C000B3720000B76DDBB6F07A000010B5EFF332
:1013D0001184202383F31288BFF36F8F074A1368A9
:1013E00023F00201DB07116002D4012006F092F81D
:1013F00084F31188BFF36F8F10BD00BF200A002057
:10140000002270B5012104461046FFF731FD0F4858
:1014100001F066FA0E4B984215D101F071FA266977
:101420000C49304605F004FE00280BDB012535642D
:101430002469084904F11C0005F0FAFD002801DBCD
:10144000E564002070BD6FF00400FBE7511500005B
:101450000000AD0BB07D00001FB500220123CDE9D7
:101460000223094ACDF800D06B46CDF804D005F030
:1014700019FF002805DB4FF480420023684602F084
:101480005BF905B05DF804FBD172000030B4104B7D
:101490000C2202FB003301460020D3E90E52986370
:1014A000EFF31180202484F31288BFF36F8F1C6C3C
:1014B00004F0C00444F002041C6480F31188BFF3FC
:1014C0006F8F1DB12B46034830BC184730BC7047A6
:1014D000D0090020F07A000010B4EFF3118220232D
:1014E00083F31288BFF36F8F1748016841F002043D
:1014F0000460C80707D482F31188BFF36F8F0120FF
:1015000010BC01F00FBA4FF08041D1F80C04D1F8B3
:101510000C14C907EFD5EFF3118083F31288BFF3E2
:101520006F8F0A490B6C03F0C00343F002030B6496
:1015300080F31188BFF36F8F82F31188BFF36F8F31
:10154000002010BCFFF7A2BF200A0020D009002015
:1015500010B1012804D07047034B1B6C5B0701D10D
:10156000FFF794BF704700BFD00900202DE9F0417C
:101570003849BFF35B8F0746012251E8003F41E83D
:1015800000200028F9D1BFF35B8F33B932493348CB
:101590004B60CB608A6005F05EFD7B1E012B2BD873
:1015A000012F07D14FF08043D3F81C3403F003031D
:1015B000012B21D006F0DDF80546F8B9284B1B7841
:1015C000E3B14FF080430222C3F808230646DFF858
:1015D00094804FF08044D4F81824D4F81834D203FF
:1015E00015D503F00303012B01D0012F0FD155B303
:1015F00086F31188BFF36F8FBDE8F081EFF311869A
:10160000202383F31288BFF36F8F0125DFE7ADB18D
:10161000304605F0C0FDD4F81835002BDBD1D4F8E6
:101620000421002AD7D0C4F80431D4F804310123AE
:10163000C4F81835C8F88031A360CCE70021212018
:1016400002F06EFBE7E74FF080430222C3F8042369
:10165000D2E700BFCC090020BC090020EC09002023
:10166000471A002000E100E008B5074805F0E0FF58
:1016700038B10648FFF706FE0448FEF723FF0020B6
:1016800008BD6FF01200FBE7547B000091160000CC
:101690000A2838B5074D044604D1AB680D215B68B4
:1016A00028469847AB6803485B68E1B298472046F4
:1016B00038BD00BF547B0000EFF31182202383F379
:1016C0001288BFF36F8F0A4BD3F8001161B100216C
:1016D000D3F80805C3F80011D3F80031C0B282F383
:1016E0001188BFF36F8F70476FF00A00F7E700BFF4
:1016F00000D00040F0B5034610469C7893F803C034
:10170000EFF31182202585F31288BFF36F8F1F78C6
:1017100093F801E0E41B04EA0C04A04288BFA0B2E5
:101720003E180CEA06063D461E7082F31188BFF390
:101730006F8F0A188A4216D177450CD1EFF31182C8
:10174000202181F31288BFF36F8F1978597082F3CB
:101750001188BFF36F8F1B79241AA34222BF064B57
:1017600001221A60F0BD5E190135767901F8016B2E
:1017700005EA0C05DEE700BF00D00040DB432DE9A1
:10178000F04713F001050E46144604D02248FFF737
:10179000B1FFBDE8F0879AB3EFF31188202383F3FC
:1017A0001288BFF36F8F0D20FFF754FB07460D2003
:1017B000FFF73CFB88F31188BFF36F8FDFF85CA065
:1017C000DFF85C80CAF80051DAF800314FF40059B4
:1017D0000123CAF800302546C8F88091DAF80031B4
:1017E00083B1FFF769FF031EC8F88091F6DB013D66
:1017F000ADB27355002DF1D117B10D20FFF708FBE5
:101800002046C6E7EFF31180202383F31288BFF34D
:101810006F8F05F0C0FCE1E7440A002000D00040D3
:1018200000E100E02DE9F041124F0D46144607F1AA
:10183000350814B92046BDE8F0814FF0FF334FF072
:10184000FF32384601F078FF224629464046FFF72E
:1018500051FF0646384601F04BFF3EB94FF0FF32CC
:101860004FF0FF33044801F067FFE6E7A41BA4B282
:101870003544DEE7240A0020340A002038B5184C2D
:1018800001221146204605F068FF0122002104F1E3
:10189000100005F062FF40F2074323874FF07063AA
:1018A00023620C2384F8243000250E4B84F8355035
:1018B000E586D3F8042522F00102C3F804250121AE
:1018C000C3F80051D3F80021C3F804132A46196065
:1018D0000D20FFF7CDFA0D20FFF79AFA284638BD04
:1018E000240A002000D0004010B5FFF7E5FE0028D4
:1018F00020DB174B93F8222093F8214093F8231014
:10190000141B31EA0404C0B20DD193F8372093F8C8
:10191000364093F83810141B31EA04040BD10D4BF8
:1019200001225A600EE09C180132114084F8250013
:1019300083F8221010BD9C180132114084F83A003F
:1019400083F837100448BDE8104001F0D1BE00BF55
:10195000240A002000D00040340A0020F0B540687E
:10196000057B01F01F0444EA4514056987B0002D8A
:1019700064D0B2F5001F00F1100506D121462846BB
:1019800005F048FE002007B0F0BD01AE0027B2F51B
:10199000800F0197776039D1B3F1007F14BF052321
:1019A00004238DF804300023CDE904630393836896
:1019B00023FA01F111F001011AD1B2F1A07F17D180
:1019C00004F01F03620903F5E0732AD0012A3BD11A
:1019D0001F4A52F82330DB070AD40DF103063246C2
:1019E0002146284601F07CFA1A4B98421CD00296F8
:1019F00003AA2146284601F035F9174B984220D119
:101A000001222146284601F0CFFABBE7B3F1C06FAF
:101A100005D0B3F1007F14BF01230223C1E70323E4
:101A2000BFE74FF0A042D4E73146284601F0B6FAAE
:101A3000094B9842DBD06FF00B00A4E76FF08500F4
:101A4000A1E76FF015009EE751F82330FFDE00BFDD
:101A5000000300500400AD0B0000AD0B38B5456825
:101A60002B69B3B11035284601F088FA044680B9D5
:101A70000146284601F04EFA084B98420BD108491E
:101A80002246284601F026FA224605210620FFF7C5
:101A9000EFF9002038BD6FF00400FBE70000AD0B4C
:101AA000A51A0000420970B5034602D0012A17D0DA
:101AB00070BD0D4E326951680029F9D003F01F0343
:101AC00001250C689D400029F2D08A682A4002D086
:101AD0004B68304698472CB1236821461C46F2E7F4
:101AE000024EE7E72346F8E7187B0000047B00007E
:101AF0002DE9F043466840F20635D006337B87B0C7
:101B000002EA050554BFC2F34010032001F01F078D
:101B1000B5F5837F144647EA43178DF8030044D098
:101B20000FD8062D18D007D8B5B1022D3FD06FF0D1
:101B3000150007B0BDE8F083B5F5807FF7D101252A
:101B40000AE040F20222954233D0B5F5407F32D010
:101B5000B5F5007FEBD1022522032ED57268012353
:101B60008B40C2F80835326992BB07F01F037F092A
:101B70002BD0012F79D13F4A02EB830284F48033CA
:101B8000D2F80017C3F30043C4F3404444EA4304CB
:101B900021F4E16144EA800421F0070144EA0523CD
:101BA0000B43C2F800370020C3E70725D4E704251C
:101BB000D2E70525D0E70325CEE7630341BF012324
:101BC00072688B40C2F80C35CDE74FF0A042D3E7E6
:101BD00010360DF102023946304601F081F914F455
:101BE000403F80460CD13946304605F011FD224B6E
:101BF0009845D8D19DF80210304601F0C9F9D2E7D6
:101C000001AB4FF0000903AA39463046CDE904394B
:101C1000CDE90199CDF80C9001F024F8164B9842CB
:101C200085D114F4003315D09DF803308DF80E30B3
:101C300084F48034C4F300444B4603AA394630464A
:101C40008DF80C508DF80D4001F0C6F80A4B984203
:101C5000CDD06CE7CDE9043303AA0DF10303394677
:101C60003046039300F0FEFFF0E703F5E07352F80F
:101C70002330FFDE000300500000AD0B036803F0CB
:101C80001F025B09026004D0012B034818BF00202B
:101C900070474FF0A0407047000300502DE9F04F0F
:101CA000DFF89491DFF894A185B01546834600EBE8
:101CB000810140F2FF18594503D1002005B0BDE86D
:101CC000F08FDBF800305E04C3F3C322C3F30804D3
:101CD00000F1AC805B0C19F80270444508BF4FF06E
:101CE000FF34222B00F2A580DFE803F012191F2237
:101CF000252B22A3A3A3A33B68A3A3A3A3A3A3A3CE
:101D0000A3A36B818487A3A3A38A9194979A9D0030
:101D1000C5F80C45601C5ED10BF1040BCBE7C5F890
:101D20001445621CF8D000265FE0C5F80845F1E7CD
:101D3000C5F81045F5E7631CC5F80845ECD000264A
:101D400004E0661CC5F80C45E6D0012603A8039400
:101D5000FFF794FF039B012202FA03F3C0F80C354E
:101D600008E0C5F80845002FDBD1631CD4D000265D
:101D700032460627DBF80030019303F400400028C8
:101D800018BF002203A8009218BF01260394FFF792
:101D900075FF039C019B009A00EB8400C3F3412C68
:101DA000D0F800473B0243EA8C03134304EA0A04D9
:101DB000234343EA4603C0F80037ADE7C5F80C45B6
:101DC000D1E7C5F86045601CDBF80030A4D0C3F350
:101DD0000043002BB9D003A80394FFF74FFF039BE8
:101DE000012606FA03F3C0F808353246C2E7C5F803
:101DF0006445E8E7C5F86845E5E7C5F86C45E2E7FE
:101E0000C5F82445621C87D000220126B2E7C5F838
:101E100028457FE7C5F83045F4E7C5F83445F1E7D4
:101E2000C5F83845EEE7C5F83C4573E76FF0150097
:101E300044E76FF0850041E7F0810000F0F8FCFF17
:101E40002DE9F7430646002201210220FFF710F892
:101E50000220FEF7DDFF776835693C684FF0000827
:101E6000C4F800852E60D7F80C9001AA4146484678
:101E700005F0B3FA002839DB019BD9F80020197965
:101E80001868FFF70BFF002830DB6B7AD6F810C01C
:101E9000012B03D0032B27D14FF01008AB7A032B73
:101EA00022D1E97A09B101291ED12A7A12B1022A76
:101EB0001AD10E226B687068B3F5164F006800F0F7
:101EC000B28034D8B3F5165F00F0B0801AD8B3F5FD
:101ED000966F00F0AD800CD8B3F5967F00F0AB8024
:101EE000B3F5167F00F0AA806FF0850003B0BDE85F
:101EF000F083B3F5166F00F0A480B3F5965FF3D1CD
:101F00005C4B43E0B3F5E14F00F09E8008D8B3F599
:101F1000615F00F09B80B3F5964FE5D1564B35E0FD
:101F200047F6122E7345DFD14FF400032EE0B3F5D0
:101F3000613F00F08D8015D8B3F5963F00F08B809F
:101F40000AD84DF6C02E734500F08780B3F5614F77
:101F5000CAD14FF46B0319E0B3F5E13FC4D14FF0A0
:101F6000EB7313E0B3F5612F7AD009D8DFF80CE1F9
:101F7000734578D0B3F5E12FB6D14FF0E86305E0B3
:101F8000DFF8FCE07345AFD14FF08053C0F8243543
:101F9000736841EA08011B680A43C3F86C25D5E958
:101FA00001010CF1040383E803007B68990712D553
:101FB00005F1180001F02EF9324B984256D1287ED7
:101FC00004F10C0204F5907105F09AFA2B7E0120C1
:101FD000984000F01DFC0823C4F800353B7A53B943
:101FE000C4F81031D4F810316B69C4F834350123CA
:101FF000C4F8383523607B689A075CBF4FF4807360
:10200000C4F804337B68DB0644BF4FF48003C4F894
:1020100004332B69C4F8443500200123C4F8480573
:10202000A360E36062E74FF41D03AFE7164BADE733
:102030004FF49E23AAE74FF4A033A7E74FF41C33D5
:10204000A4E74FF41D23A1E7104B9FE7104B9DE73A
:102050004FF06C739AE70F4B98E74FF4650395E7E1
:102060004FF0706392E74FF080638FE76FF00400EA
:102070003CE700BF00B0130000A04E0090D003006A
:1020800040420F000000AD0B0050270000C075005B
:1020900000F03A0000903A012DE9F041044607694A
:1020A0000D4605F066FB4FF02008B0B92C4B1B78AD
:1020B0009BB16426606805F0BEF9F0B9012005F017
:1020C0001DFA013EF6D10021212001F029FEF0E7A2
:1020D00086F31188BFF36F8FF5E7EFF31186314672
:1020E00088F31288BFF36F8F606805F0A4F980B998
:1020F00086F31188BFF36F8FEFE7EFF31186314658
:1021000088F31288BFF36F8F606805F094F9002898
:10211000DED03B691D70626838691368C3F84405F6
:102120000120C3F848050020C3F82001D3F820514E
:10213000C3F858015268D3F85801D20608D562682E
:1021400012680820C2F800054FF48002C3F8042387
:1021500001229A6081F31188BFF36F8FBDE8F0818F
:10216000471A002070B5012383400E4ABFF35B8FEE
:10217000DC4352E8001F01EA040542E80056002E45
:10218000F7D1BFF35B8F4FF4803282400648C0F82E
:102190000823BFF35F8FBFF36F8F0B4214BF012083
:1021A000002070BD840A00200010014070B40E4968
:1021B000D1E90034D01AC31844F1000422F07F465C
:1021C000C1E90034A6F50013B3F5400F09D2074B5F
:1021D0001B681A0A1B069C19054B42F10005C3E94E
:1021E000004570BC01F020BFD0020020880A00200A
:1021F000D802002011B3BFF35B8F0123104A834044
:1022000052E800CF4CEA030C42E800C10029F7D1A4
:10221000BFF35B8F0B4A4FF480338340C2F8043323
:10222000094BBFF35B8F1B68BFF35B8FC340DB07BA
:1022300042BF064B4FF40032C3F80021704700BF85
:10224000840A002000100140800A002000E100E024
:102250000D4B1868010A0006BFF35F8F0B4BD3F8D4
:102260000435181841F10001B3F5801F0AD2084B5C
:10227000D3E90023904271EB030303D210F1807085
:1022800041F10001704700BF880A002000100140A2
:10229000D80200202DE9F04F85B016461F469DF864
:1022A00040A00446FFF75EFF0190FFF7D1FFB04268
:1022B00071EB070354D23E4B301A67EB0101984291
:1022C00071F100014FD23B4B03EB0413D3E902231E
:1022D0009F4208BF96425ED037494FF4803804F1E0
:1022E000500508FA04F8AD00C1F848832046ADB2A5
:1022F00005F0E8F826F07F4B05F1804504F5A8735A
:1023000005F58835DC464FF003090293029A2CF05C
:102310007F4341F82230C1F84483D1F80435274A7D
:102320006FF00200C01A604420F07F40904232D922
:10233000286868B1D1F804350393A3EB0B0020F0B3
:102340007F40B0F5000F26D9204605F0BBF8039B6F
:10235000BAF1000F07D109EB030C09F10109D5E728
:10236000BAF1000F09D06FF0150520460199FFF76B
:1023700041FF284605B0BDE8F08F0123104ABFF3A6
:102380005B8FA34052E8000F184342E80001002988
:10239000F8D1BFF35B8F07490E98230101EB0412BC
:1023A000C8500F9B5360C2E902670025DDE700BFFC
:1023B00001008000C002002000100140FDFF7F00EE
:1023C000800A00207FB51C4C1C4BC4F80833C4F8AD
:1023D00048331B4B00254FF0FF304FF0FF31C4F85E
:1023E0000855C3E902014FF48033C4F80433154B98
:1023F00002264FF400320121C4F804631120C3F80F
:1024000080212A46FEF734FD1120FEF701FD0E4A19
:102410000123A360236013600C4B0D4A0093CDE9A8
:10242000015500232846FFF735FF3046FFF79EF899
:10243000284604B070BD00BF0010014003000F002B
:10244000C002002000E100E0840A0020AD2100006D
:10245000FFFF7F002DE9F7432F4CD4F80433990791
:102460000BD5D4F8043143B12C4A0023C4F804310D
:10247000D4F80431136801331360D4F80433DA0359
:1024800029D5BFF35B8F264B53E8002F22F00101C3
:1024900043E800100028F7D1BFF35B8FD30702D4C5
:1024A000D4F84031BBB10025C4F84051D4F84031D4
:1024B000FFF7CEFEEFF31182202383F31288BFF3E0
:1024C0006F8F184BD3E90267B042B94106D282F34D
:1024D0001188BFF36F8F03B0BDE8F0834FF0FF3872
:1024E0004FF0FF39C3E90289D3E900101D604FF4B2
:1024F0008033C4F84833C4F84051D4F8403182F3F3
:102500001188BFF36F8F0029E5D0009032463B461B
:1025100028468847DFE700BF00100140880A0020F6
:10252000800A0020C002002030B5431C124C85B048
:1025300005D08442A8BF0446012CB8BF0124FFF790
:1025400087FE0E4B0C4DD3E90013401AB0F5000F77
:1025500010D22218AA4228BF2A4652184FF0000073
:1025600007490091CDE9010043F10003FFF792FE16
:1025700005B030BD2A46F0E7FFFF7F00D002002003
:10258000AD21000008B5FFF763FE024B1B68C01ABF
:1025900008BD00BFD00200204FF08053D3F8302197
:1025A000082A06D1D3F83431052B02D8024AD05C70
:1025B00070470020704700BF0C820000024AD2F82A
:1025C0000034002BFBD0704700E0014010B54FF005
:1025D0008053D3F83021082A4ED14FF08042002199
:1025E000C2F80C11C2F81011C2F8381502F54042B9
:1025F000D3F80414C2F82015D3F80814C2F824152F
:10260000D3F80C14C2F82815D3F81014C2F82C15FE
:10261000D3F81414C2F83015D3F81814C2F83415CE
:10262000D3F81C14C2F84015D3F82014C2F844158E
:10263000D3F82414C2F84815D3F82814C2F84C155E
:10264000D3F82C14C2F85015D3F83014C2F854152E
:10265000D3F83414C2F86015D3F83814C2F86415EE
:10266000D3F83C14C2F86815D3F84014C2F86C15BE
:10267000D3F84434C2F87035FFF78EFF18B13A4BE7
:102680003A4AC3F88C26FFF787FF18B1384BFB2274
:10269000C3F81825FFF780FF70B14FF080414FF06D
:1026A0008053D1F8E42ED3F8583222F00F0203F011
:1026B0000F031343C1F8E43EFFF76EFF20B12D4B2B
:1026C0004FF40072C3F840264FF08053D3F83031F6
:1026D000082B1AD14FF08043D3F80024D20744BF0F
:1026E0006FF00102C3F800244FF08053D3F8343167
:1026F000052B02D8204AD35C3BB14FF01023D3F80E
:1027000008224FF08043C3F858254FF01023D3F828
:102710000022002A03DBD3F80432002B22DA174907
:1027200001234FF01020C1F804351224FFF746FFB3
:10273000C0F80042FFF742FFC0F80442FFF73EFF37
:102740000023C1F80435FFF739FFBFF34F8F0C4961
:102750000C4BCA6802F4E0621343CB60BFF34F8FA7
:1027600000BFFDE710BD00BF0050004048810300DE
:1027700000F00040009002400682000000E00140AE
:1027800000ED00E00400FA0530B50468CCB1BFF3F9
:102790005B8FB4FA84F3C3F11F03DBB201229A40CA
:1027A00024EA020250E8005FA54204D140E8002C70
:1027B000BCF1000FF6D1BFF35B8FE6D102480B707E
:1027C00030BD0248FCE700BF0000AD0B0200AD0BBE
:1027D00010B50368CB40DB0714D401238B4002689B
:1027E000BFF35B8F43EA020150E8004F944204D1EB
:1027F00040E8001CBCF1000FF6D1BFF35B8FEED1B7
:10280000014810BD0148FCE70000AD0B0400AD0B12
:10281000014BC3F80405704700F00140F7B50446CA
:1028200018B1012823D003B0F0BD4FF0804302223D
:10283000C3F808230122DA60C3F80401D3F8043195
:10284000064601238DF8073042F210754FF080479D
:10285000D4B1012CE7D1D7F80C3403F48033AEBBEC
:1028600083B3012004F04AFE013DF4D12AE04FF089
:1028700080430022C3F808035860C3F80021D3F84E
:1028800000310DF10706DCE7D7F8183403F4803384
:102890003EB9002BC7D0012004F030FE013DF3D13A
:1028A000C1E7D7F8182402F003023260002BBAD037
:1028B0009DF80700012803D104F020FE013DC7D197
:1028C000012CB0D1054B00225A71ACE7D7F80C248B
:1028D00002F001023270002BEAD1F3E78C0A0020EB
:1028E000044B1A7922B9012218609A800248704775
:1028F000024870478C0A00200000AD0B0C00AD0BA5
:1029000008B5074B1B682BB10020FEF7A3FA08B9E6
:10291000FEF77EFA4FF080430022C3F8182508BD69
:102920008C0A002010B510B1012843D010BD4FF023
:102930008043D3F81814D3F81824C80321D502F023
:102940000303012B04D013B10020FFF767FF00231E
:102950004FF080420220C2F8183508224FF48273EB
:1029600003F180430021196002F180421C680124B8
:102970001460154A12680AB34FF08043C3F8040389
:10298000D4E7D3F81424D107E1D5D3F81C24920757
:10299000DAD40D4A12681AB10222C3F80423C5E73B
:1029A000D3F80421002AFBD00022C3F80421D3F875
:1029B0000431BBE700224FF48073D1E71A68002A84
:1029C000FCD019601B68B1E78C0A002010B54FF0ED
:1029D0008043D3F800216AB10022C3F80021D3F864
:1029E00000210122C3F80823114B587910B95A71FC
:1029F0001B6898474FF08043D3F8042172B100223E
:102A0000C3F80421D3F80421D3F81824D3F81824E8
:102A1000920704D10122C3F818259A6010BD022242
:102A2000C3F80823024BBDE810401B68012018477B
:102A30008C0A0020036803F01F025B09026004D0C7
:102A4000012B034818BF002070474FF0A04070478B
:102A500000030050034A430900F01F00D35C1844F0
:102A6000C0B270471282000070B50546FFF7F2FF52
:102A70000C4C08300E4634F81030DA0508D5C3F394
:102A8000432304EBC302284654F833305268984776
:102A9000A3682BB1E26831462846BDE8704018476C
:102AA00070BD00BF5400002008B5FFF7D3FF034BF3
:102AB000083033F81000400B08BD00BF5400002060
:102AC00008B5FFF7C7FF034B083033F81000C0F319
:102AD000400008BD5400002008B5FFF7BBFF034BC2
:102AE000083033F81000C0F3401008BD5400002037
:102AF000034611F0010010B5CCB20DD1A207C4F30A
:102B0000400012D5094AD2F820055860C2F82005C5
:102B1000003818BF012008E04FF0A041D1F820256F
:102B20001A60C1F82025002AE8D010BD000300502B
:102B300010B5FFF78FFF124A083032F81030D90570
:102B40001CD5C3F3432123F4F85322F8103002F1CB
:102B50000E04002034F8023F13F4807F03D0C3F347
:102B6000432399420AD001303028F3D1002342F8A0
:102B700031300448BDE81040FFF72ABE10BD00BF49
:102B800054000020CC000020F0B50546002004468B
:102B9000012607468C420BD1114BD3F87C2132B170
:102BA0000022C3F87C21D3F87C3140F00040F0BD16
:102BB000E3B29B0003F580729B0806FA03F31D4203
:102BC0000BD002F1804202F5C042D2F800C0BCF145
:102BD000000F02D01760126818430134DAE700BF13
:102BE00000600040F7B506460846FFF733FF194F6F
:102BF00000F108050C4637F81530DB0727D53046BD
:102C000004F0E2FC2046FFF767FF40B12046FFF7E3
:102C10004BFF316800F5A270002341F820302046B8
:102C2000FFF786FF002301A827F815300194FFF76E
:102C300001FF019B00EB8300074BD0F800271340F6
:102C400043F00203C0F80037044803B0F0BD044865
:102C5000FBE700BF54000020F0F8FCFF0000AD0BC4
:102C60000400AD0B2DE9FF41164680460846FFF7EC
:102C7000F1FE0D463168044609B32846FFF720FFF0
:102C800018B12846FFF728FF10BB0023CDE9003319
:102C90008DF80E308DF80F300DF10F020B462846DF
:102CA0000DF10E0104F038FC474A04F1080132F836
:102CB000113023F0020343F0010322F8113073684E
:102CC00063B328461F785968FFF7FAFE10B1D1B1F7
:102CD0003E4826E03C4A04F1080032F8103023F068
:102CE0002003DB04DB0C22F8103061B1032FEFD896
:102CF0007168496891F800C0D8F80010A7B90CF5C0
:102D0000A27C41F82C70304A04F1080132F81130ED
:102D100023F01C0343EA870322F81130B3684BBB4E
:102D20002B4804B0BDE8F08101EB8C0143EA4C3341
:102D3000D1F810E52EF0030EC1F810E5D8F8001018
:102D400001EB8C0E43F02003DEF8101522F8103052
:102D500021F44F3121F44071CEF810152902DEF82C
:102D6000108501F47C5141EA074141EA0801CEF89F
:102D70001015C8E7D3E900672846FFF7D9FE002EF3
:102D8000CED0114DD5E90023964203D19F4201D107
:102D9000002209E00F480DF10F01FFF7F5FC0C4B85
:102DA0009842BED19DF80F2045F8326005EBC20372
:102DB00008345F6035F8143043EA422343F48073EB
:102DC00025F81430ACE700BF540000200400AD0B20
:102DD0000000AD0BCC0000202DE9F0430C4685B07F
:102DE0008046204611461E46FFF734FE054629B3AD
:102DF0002046FFF765FE18B92046FFF76DFE18BBA9
:102E0000314F05F1080937F8193013F01C0F02D0C3
:102E10004B78012B18D001238DF80F300023CDE91A
:102E200000134A1C8B1C20460DF10F0104F074FBAB
:102E300037F8193043F0030327F81930002E41D03A
:102E40002046FFF73DFE18B9204805B0BDE8F083E5
:102E500096F800C0D8F800301B4F0CF5A272002184
:102E600043F8221005F1080237F8121021F0200172
:102E7000C904C90C27F8121075781DB3D8F80000E2
:102E8000B67800EB8C002D04D0F8103523F499139C
:102E900023F4F853C0F81035230203F47C5305F4EF
:102EA00040353605D0F810E52B4306F4801641EA8C
:102EB0004C31334341F0200143EA0E0327F812104E
:102EC000C0F810350248C0E7540000200400AD0BE4
:102ED0000000AD0B014BC3E9021270475400002003
:102EE00010B508461446FFF7F7FD50B10846FFF746
:102EF000B1FD054B083033F8103004485B0B2370EC
:102F000010BD0348FCE700BF540000200000AD0BDB
:102F10000400AD0B70B5164D95F8804006462CBBED
:102F20002146602205F1100004F097FD30682E6FF5
:102F300021468E420ED10023C0F87C31D0F87C317E
:102F400040F30730FDF764FF01230A4885F880301D
:102F5000AB6770BDCBB29B0003F580727C2B08BFC2
:102F6000845001F1010108BF8358E2E70248F0E70D
:102F7000540000200000AD0B0C00AD0B034B93F888
:102F80008000003818BF0120704700BF54000020A7
:102F90000148FFF71DBC00BFC80000200148FFF733
:102FA000F3BB00BFC800002073B503681646D3F812
:102FB0000423002AA8BF4FF000420546A8BFC3F86B
:102FC000042308460C46FFF787FD00B30846FFF7C9
:102FD00077FD0146D8B92046FFF766FD04B2A4008C
:102FE00004F580720346286881502968825821447C
:102FF000D1F8102542F00102C1F810252EB1296840
:10300000012202FA03F3C1F8043302B070BD204676
:10301000FFF720FD0F4B083033F81030C3F3820365
:10302000042B12D0052B12D001A80194FFF702FD4A
:10303000019AD0F81035D34003F00103991C2046C3
:1030400002B0BDE8704004F0B0BA0321F7E70221F6
:10305000F5E700BF540000202DE9F04F694BDFF881
:10306000A881D3F80403D8F87010C0B289B040F03A
:103070000040FFF789FD051E2FDAC24600235AF8EB
:103080007C1F06A8CDE90633FFF732FD5F4B0193A5
:103090000DF118094FF0000B019A12F8013B019253
:1030A000DA0803F007031AF8022022FA03F3DA071A
:1030B0001CD409F10409BBF1000F14D0D8F870102A
:1030C0004FF00040FFF760FDD8F87C1006A8FFF72E
:1030D0000FFD0028DAD125F000450124002D79D11B
:1030E00009B0BDE8F08F4FF0010BD5E7484B5B44CA
:1030F0000293D9F800100029DBD0029B91FAA1F1CC
:103100001C78B1FA81F141EA44142046FFF7A2FC91
:103110000830059438F81070C808BB0819F800206A
:10312000039301F00701012303FA01F122EA0102EE
:1031300009F8002005A8FFF77DFC059A039B02F51E
:10314000E072C7F3820650F822205B073746C2F3CD
:10315000014224D520463946D6B2FFF785FC05A8A2
:103160000594FFF767FC059B03F5E07350F82330E7
:10317000C3F301439E4207D10021204604F015FA13
:103180003146204604F011FA05A80594FFF752FCD9
:10319000059B012202FA03F3C0F82035A9E7022AB1
:1031A0000CD10321204604F000FA06F00503012BA0
:1031B000EAD139462046FFF757FCE5E702212046D1
:1031C000039204F0F2F9032EF3D0039A032ADBD121
:1031D000022EEDE795FAA5F3B3FA83F304FA03F2AE
:1031E0009B0003F1804303F5C04325EA0205D3F8B1
:1031F0001005D3F81015C0F30520C1F30141FFF706
:1032000033FC6BE700600040540000202282000085
:103210002282000001460148FFF7B6BAD80000201C
:1032200008B5144BA8220021184604F016FC03220E
:10323000026111494261114A8161C2614FF48062A9
:103240000262002282624262C26201660C494166E9
:103250001021816603460267C2664267BFF35F8F33
:10326000084911F8010D98540132102AF9D1BFF321
:103270005F8F08BD940A00202482000047160020BA
:10328000371600203D82000038B5EFF3118520236A
:1032900083F31288BFF36F8F064B9C6804F0DBF951
:1032A00085F31188BFF36F8F2046BDE83840FDF7E6
:1032B00033BD00BF3C0B002038B5094B53F820400C
:1032C000013053F82050A54200D838BD636823B1BF
:1032D000204604F0C3F90834F5E723689847FAE775
:1032E0008C7E000070B52A4B2A4C2B4D012286B0F3
:1032F00003201A70FFF7E0FFFDF718FA0420FFF72C
:10330000DBFF2646AE4204F1300410D300F04AFC45
:10331000204C224EAC4226D300F058FC04F00FFBA8
:103320001F4A137B23F00103137306B070BD54F8DA
:103330000C3C059354F8103C049354F8143C03934C
:1033400054F8183C029354F81C3C019354F8203C68
:10335000009354E90A2354E90C0100F013FA54F8DD
:10336000303C5E65CDE7D4E90A23B3F1FF3F08BFE7
:10337000B2F1FF3F05D052EA0301206803D104F007
:10338000FEF93034C6E73146183000F0D3FDF8E7D7
:10339000471A0020E87C0000487D00008B78000080
:1033A0006003002008B50348034A0021121A04F004
:1033B0006DF908BDC00100204C1A002070B5002333
:1033C00086B00122CDE90423134E144D01930F2240
:1033D000CDE902321249142303FB005506EBC01657
:1033E00004464FF4C07000FB04110E4B00954FF4DF
:1033F000A072304600F0C6F9737B0B4AEE6023F0F2
:10340000040373734FF4046304FB033313442C74F9
:103410006B6006B070BD00BFE00200203C0B0020D6
:103420004027002027770000001F0020BFB50020A4
:10343000FFF742FF2C4B83F308882C4D2C4E6B6911
:103440002C4F43F400736B610024E02385F8223095
:10345000EC772C766C76AC7685F820406B6A43F47A
:10346000E0236B6285F82340FDF7D6FBFDF788FD6E
:103470004FF0FF33AB62EB62FDF748FEFDF7A4FDB2
:103480001D4BB36040F201129A81C3E91844DC6617
:1034900004F0CDF80120FFF70FFF0220174DFFF7D2
:1034A0000BFF00F0B3FB164B756105930123154923
:1034B0000094CDE903434FF400623B46CDE901445B
:1034C000284600F05FF96A7B064622F0040228468F
:1034D0006A7304F090F92046FFF770FF3A463146D0
:1034E0002846FDF72BFD00BF4027002000ED00E03F
:1034F0003C0B0020E5320000E003002060030020C8
:103500003E820000C028002038B5064C064D002041
:10351000AC4200D338BD204604F0BCF80028F9DBEB
:103520001C34F5E7600100206001002073B50C46F3
:10353000EFF31181202585F31288BFF36F8FC568E3
:103540005DB125602B68C36083690133836100200E
:1035500081F31188BFF36F8F11E052EA030603D1A4
:1035600025606FF00B00F3E7CDE900230246083039
:1035700000F064FA18B9034B9B685B69236002B0E2
:1035800070BD00BF3C0B00202DE9F34104461746F7
:103590001E46EFF31188202383F31288BFF36F8F49
:1035A000C368334A7BB180689168884219D057EA72
:1035B000060318D188F31188BFF36F8F6FF00F00E7
:1035C00002B0BDE8F081916891F90E1021610133DC
:1035D000E3609368A36088F31188BFF36F8F0020C6
:1035E000EEE72169F2E791F90E1090F90E30994259
:1035F000A8BF19466FF07E029142B8BF11468B42B8
:103600002DDD04F09BF80546CDE9007619482246E9
:10361000414600F013FA0028E1D0EFF31186202391
:1036200083F31288BFF36F8FA068D0B1236821693C
:103630009C420AD04BB193F90E309942A8BF19466B
:103640006FF07E039942B8BF194604F077F840B195
:103650000848314600F062FA6FF00A00B0E7002532
:10366000D2E7002DF4D186F31188BFF36F8FF3E713
:103670003C0B0020481A002038B58368044663B329
:10368000194A926893422BD1C368012B03D9013B9D
:10369000C360002038BDEFF31185202383F3128827
:1036A000BFF36F8F0169806804F048F8204604F08A
:1036B000F0F8A06058B190F90E20226100228267D4
:1036C00004F099F80948294600F028FAE1E7E0609B
:1036D00085F31188BFF36F8FDBE76FF01500D9E733
:1036E0004FF0FF30D6E700BF3C0B0020481A002007
:1036F00038B50446EFF31185202383F31288BFF316
:103700006F8F04F0C6F848B10022826704F073F8A6
:1037100029460848BDE8384000F000BAD4E9023232
:103720009A4218BF0133A36085F31188BFF36F8FEE
:1037300038BD00BF481A002013B5EFF311812024D3
:1037400084F31288BFF36F8F846844B1013C8460B6
:1037500081F31188BFF36F8F002002B010BD52EAD1
:10376000030406D181F31188BFF36F8F6FF00F0050
:10377000F3E7CDE900230246014800F05FF9ECE7EA
:10378000481A00202DE9F043073285B022F00702E5
:103790000E461F461099017300F158037F32C0E9AD
:1037A00016330446002322F03F0204218360417354
:1037B0003F2A0F98A073C4E90633E37306F140096A
:1037C000A2F1400805D883F31188BFF36F8F084634
:1037D00002DFB51829462046FDF7A6F807300E9BF4
:1037E00020F00700A066C4E9189802930D9B01938E
:1037F0002D1A0C9B00932A463B4631462046FDF786
:103800006BFB00236365044B9B6803B1DB6EE366CF
:10381000284605B0BDE8F0833C0B002038B50D4DBF
:103820002B4653F8184F9C4200D004B9EC68AB68A3
:1038300038B95A7BD20604D1A26912B9DA897F2A33
:1038400005D89C4202D0204600F0BCFA23466B61AA
:1038500038BD00BF3C0B002008B590F90D20437B1C
:10386000002A014604DA03F07F03437303F089FF63
:10387000044B9868431A58425841BDE80840FFF786
:10388000CDBF00BF3C0B002070B490F90D30427BDF
:10389000002B29DBD30627D183692BBB134962F0A8
:1038A0007F0242730A4652F8184F944218BF2346CB
:1038B000CC6923B9C0E900242060C8610CE090F90C
:1038C0000E5093F90E60B5420AD0AE4208DD5A6838
:1038D000C0E900321060586070BC0020FFF79EBF46
:1038E0009C42E7D01B68E4E770BC70473C0B0020AB
:1038F0002DE9F041002A427B0E460CBF1021082121
:10390000114204460FD141EA0203D20918D1437390
:1039100008291BD00120FFF781FFBFF35F8F637B76
:1039200023F060036373264B9B68A34241D1EFF3FE
:103930000583002B3DD13046BDE8F041FDF702BACA
:1039400003F07F03437303F01CFFE1E7A36813B1A7
:10395000204603F01EFF04F1180003F0D7FF04F126
:1039600058074FF00008A56DBD4200D0A5B9144D11
:10397000AB689C42CED1EFF30583002BCAD0012067
:10398000FFF74CFF0F4BAB6040F201129A8100220F
:10399000C3E91822DA66C0E7284603F0FAFE05F10B
:1039A000180003F0B3FFC5F878802846FFF76CFFD6
:1039B000D9E786F31188BFF36F8FBDE8F08100BFB0
:1039C0003C0B0020E003002070B590F90D20437BF4
:1039D000002A014604DA03F07F03437303F0D1FEAB
:1039E0004B7B154A63F07F0310464B7350F8183F2A
:1039F000D469834208BF002323B9C1E900042160D0
:103A0000D1610CE091F90E5093F90E60B5420ED0E1
:103A1000AE420CDD5868C1E9003001605960906821
:103A2000431A5842BDE870405841FFF7F7BE9C4228
:103A3000E3D01B68E0E700BF3C0B0020F8B5124B59
:103A40000C461146114A98681060DDE90676EFF3DE
:103A50001182202282F31288BFF36F8F9D6828465F
:103A600003F0A1FEB6F1FF3F08BFB7F1FF3F06D05C
:103A700007493A46334605F1180000F05BFA204644
:103A8000BDE8F840FDF75EB93C0B00205C0B002060
:103A90008B780000F8B50446EFF31186202383F3FA
:103AA0001288BFF36F8F437BDA0649B219D185695B
:103AB000BDB903F07F03437303F063FE437B164AF3
:103AC000817363F07F034373134653F8180F9842D2
:103AD00018BF0546D0695DB9C4E900300460D461FF
:103AE00011E0A173002086F31188BFF36F8FF8BD3A
:103AF00095F90E70B9420BD08F4209DD6B68C4E9AD
:103B000000531C606C600120FFF788FE0120EAE78B
:103B1000A842E1D02D68DEE73C0B002049B9EFF365
:103B2000058030B9054B5A699B689A4201D0FDF770
:103B300009B981F31188BFF36F8F70473C0B0020E8
:103B400010B5EFF31184202282F31288BFF36F8F38
:103B5000427B510704D484F31188BFF36F8F10BDEB
:103B600022F004024273FFF78FFE21460248BDE8AF
:103B70001040FFF7D3BF00BF481A0020034648B9E2
:103B8000EFF3058232B9064A51699268914201D039
:103B9000FDF7D8B883F31188BFF36F8F704700BF6C
:103BA0003C0B0020EFF31181202383F31288BFF335
:103BB0006F8F054B9A68D37B013BD37381F31188D8
:103BC000BFF36F8F704700BF3C0B002038B5EFF399
:103BD0001185202484F31288BFF36F8F0A4B9A68F3
:103BE000D37B0133D3730020FFF718FE85F31188D0
:103BF000BFF36F8FEFF3118084F31288BFF36F8FE1
:103C0000BDE83840FFF7BABF3C0B0020024B03F180
:103C10001802C3E9062270473C0B0020F8B5EFF309
:103C20001185202383F31288BFF36F8F19498868A9
:103C3000437B03F07F03437303F0A3FD8B685A7B40
:103C4000084662F07F025A7350F8182FCC698242FE
:103C500008BF002222B9C3E900042360CB610CE055
:103C600093F90E6092F90E70BE420ED0B7420CDD91
:103C70005168C3E900210B6053600120FFF7CEFDBE
:103C80002846BDE8F840FDF75DB8A242E3D01268CF
:103C9000E0E700BF3C0B002050EA01032DE9F041B2
:103CA00005460E4603D1FFF7B9FF00202BE0831C29
:103CB00071F1FF3329DB03F03EFE2C18EFF311887E
:103CC000202383F31288BFF36F8F124F124BB86813
:103CD0001860FFF7C1FDB86810492A46334618300E
:103CE00000F028F9BA68537B43F010035373404641
:103CF000FDF728F803F01FFE201A63EB03030128E9
:103D000073F10003D1DBBDE8F0816FF00104241AE8
:103D1000D4E700BF3C0B00205C0B00208B78000038
:103D2000B1F1FF3F08BFB0F1FF3F08B506D10A4B24
:103D3000986803F06FFD4FF0FF3008BDFFF7ACFF50
:103D40004FF47A7147F6FF730022C0FB0132D80BA3
:103D500040EA4240F1E700BF3C0B0020014B98686D
:103D6000704700BF3C0B0020044BC01A044BC0102E
:103D70005843044B01221A54704700BF60040020CE
:103D8000ABAAAAAA481A0020C3897F2B12D80A4BD3
:103D90001B6863B1094B90F90E201B689A4209DB3E
:103DA000437BDB0606D1064BC31A18BF012303F081
:103DB000010070470023FAE7640B0020600B00202D
:103DC000E002002070B50E4B0E4C1E7C06EB460345
:103DD00004EBC3040546204603F098FD0A4B00227D
:103DE00028469A55FFF7D0FF48B1084B08491A6892
:103DF000013A2046D317BDE8704000F09BB870BD73
:103E00003C0B002060040020481A0020640B0020B6
:103E1000693D000038B5EFF31185202383F3128844
:103E2000BFF36F8F104B114A9C681068A04206D1F7
:103E3000FFF7C8FF85F31188BFF36F8F38BD0021EE
:103E40001B7C11600A4AD35C002BF3D02046FFF79D
:103E50009BFF0028EED0637BDB0602D12046FFF7F4
:103E6000B3FD2046E4E700BF3C0B00205C0B0020C4
:103E7000481A002008B50648064A0749121A03F0F6
:103E800007FCBDE80840054A0549064803F000BCA8
:103E900000000020C001002054820000000000004B
:103EA0005482000000000020034B1B680BB9FEF792
:103EB00069BB0020704700BF680B002030B570B1AF
:103EC0000B4B5B6898420AD0036843B1D3E90421E5
:103ED000D0E90445121941EB0501C3E90421D0E9F9
:103EE000003213605A600023C0E9003330BD00BFC8
:103EF000DC00002010B50E4B1C689C4204D1FFF77B
:103F0000D3FF6FF0004010BDFFF7CEFF002CF8D0BC
:103F1000D4E904321B1A62EBE072B3F1004F72F184
:103F20000001EEDA002AACBF18460020EBE700BF24
:103F3000DC000020B3F1FF3F08BFB2F1FF3FF8B54E
:103F400004461D4616465ED08160EFF3118720239C
:103F500083F31288BFF36F8F013275F1FF3324DAD8
:103F60002E49D1E900206FF001039B1A4FF0FF3278
:103F700062EB00009E1B60EB0500012E70F1000358
:103F800001DA01260020C4E90460254ED6F800C0FD
:103F90007568B44508BF4FF0000CBCF1000F0DD19F
:103FA000C4E900652C6074601CE0FFF77DFF0136FA
:103FB00045F10005361845EBE070E4E7DCE9042044
:103FC000D4E90431934271EB000E1DDAD21ADCF809
:103FD000043060EB0100CCE90420C4E900C31C609C
:103FE000CCF804403368B34209D09C4207D10D4B52
:103FF0001C6824B9FFF77EFF2146FEF795FA87F388
:104000001188BFF36F8FF8BD9B1A61EB0001AC45BF
:10401000C4E90431C4D0DCF800C0BEE77804002055
:10402000DC000020680B00202DE9F84FEFF3118C25
:10403000202383F31288BFF36F8FDFF8B0A0DFF87F
:10404000B0902C4FC9F80000DAF800000024504569
:1040500008BF00200025D7E90021D9F80030E0464C
:1040600078B3D0E9046C4FEAE37EB3427EEB0C0BED
:1040700005DAF61A6CEB0E04C0E9046421E0B2180C
:1040800041EBE671C0E90445C7E90021FFF716FFDF
:1040900088F31188BFF36F8F83689847EFF3118817
:1040A000202383F31288BFF36F8FD9F80030DAF83A
:1040B00000009B1B5045C446C9F80030CBD1D7E95E
:1040C00000219A1841EBE3730024C7E90023C9F8E3
:1040D0000040FFF70FFF2146FEF726FA88F311880C
:1040E000BFF36F8FBDE8F84FFFF794BEDC000020F0
:1040F000680B00207804002010B5EFF31184202312
:1041000083F31288BFF36F8FFFF7CEFE054A034695
:10411000D2E90001181841EBE37184F31188BFF371
:104120006F8F10BD7804002010B50C4C236813B1BC
:104130000B4B1B682BB900F029FE30B9084B01224C
:104140001A6001232360002010BD0138062801D920
:10415000044810BD044B53F8200010BD700B002024
:104160006C0B0020FE8FFFFFA47E0000BFF34F8F7B
:104170000549064BCA6802F4E0621343CB60BFF303
:104180004F8F00BFFDE700BF00ED00E00400FA051F
:1041900010B4094B09490A4C4FF0FE32C3F8002411
:1041A0004968C3F80424C3F80824C3F80C24002386
:1041B000C4F8003510BC084700B00250E4000020ED
:1041C00000A00250D0E90012014BC3E90012704771
:1041D000E40000202DE9F043134B144E002814BFD7
:1041E00004461C4683B02368B34219D00D462046CE
:1041F0004FF4E07104F10409174604F58E7800F0DD
:10420000E9F8484600F0ACFC404600F0DBFA08490B
:1042100000972B464A46404600F0EAFA08B9266065
:10422000002003B0BDE8F083740B0020A5BCC95A80
:10423000E94B000070B51D460C4B002818BF034623
:104240000B481E68864282B00DD1002603F58E70A1
:1042500000963346144600F017FB002818BF34467A
:104260002C6002B070BD0348FBE700BF740B002058
:10427000A5BCC95AE88FFFFF10B5044650B163686A
:1042800013F0685F05D0064A934202D000232360F2
:10429000626010BD034B04485B689847EFE700BFBE
:1042A0002C5F5CA9E4000020C07E0000C8B1436818
:1042B0000D4A934213D013F0685F0ED0012350E8EB
:1042C000002F194640E8001C9CF0000FF7D1012A8E
:1042D000F5D0BFF35F8F0020704704487047044853
:1042E00070476FF4E04070472C5F5CA9E98FFFFFD7
:1042F000EA8FFFFF80B14368094A93420AD013F066
:10430000685F05D0BFF35F8F0023036018467047D6
:1043100004487047044870476FF4E040704700BF9E
:104320002C5F5CA9E98FFFFFEA8FFFFF10B5044601
:1043300020B1044B63600022226010BD0248FFF7E9
:1043400027FFF6E73A00003AE87E000070B5D0E9B2
:104350000023174C174D6360D0E90230C4E90230E6
:1043600022604868D1F800C0134BC3E900C0D5F8FB
:104370001801D1F808C0C3F808C010F0685FD1F880
:104380000CC00969C3F80CC0196110D00B49C5F8FD
:10439000BC110023C5E9453105F58A70C5F8B8316F
:1043A0009047236805F5DC70BDE87040184770BD84
:1043B00000010020740B0020EC0000202C5F5CA9A1
:1043C00038B131B1014400220346013081421A70F4
:1043D000FAD1704738B131B10144002203460130AF
:1043E00088421A70FAD170472DE9F04FB2F5C07FBC
:1043F000B5B000F2D780DFF8B49114460D464FF403
:10440000D07200210DF15C080746484603F025FBF9
:10441000404601F051F9002309F11806A9F81030BF
:1044200063BA29462246A9F812303046202389F87B
:10443000173003F0EAFA5E4B079303F1043380224E
:10444000089303F104330993325503F1043307A9A8
:1044500040460A9301F046F9824600287FD104F1D4
:1044600019030BAE0FAC02930397019604940198C5
:10447000DFF840B11022002103F0EFFADDF808A0C8
:1044800005940E9B5BF8044C5BF80C7C0B995BF875
:10449000100C5BF8085CDDE90C625C40019B7E401F
:1044A000554081EA00071A4601214046CDE90B76C6
:1044B000CDE90D5401F030F9BAF1100F94BFAAEB19
:1044C0000A0AAAF1100A0BF1100B002865D1BAF103
:1044D000000FD6D1059C01992046102203F095FAD1
:1044E00099F8033010340133A04589F80330BED168
:1044F000049C039F019E80222146404601F0F2F871
:10450000824670BB07F120093D4613AB1A460121D4
:10451000404601F001F91022824613A928461544AD
:10452000BAF1000F1DD103F070FA4D45EDD14046B0
:1045300001F0D2F81D484FF4D071FFF74BFF204631
:104540002021FFF747FF07A81021FFF743FF304660
:104550001021FFF73FFF504635B0BDE8F08F0FAC9C
:104560000BAE404601F0B8F810484FF4D071FFF799
:1045700031FF20462021FFF72DFF07A81021FFF76C
:1045800029FF10213046FFF725FF20213846FFF78D
:1045900021FF504635B0BDE8F08F039F019E049C7B
:1045A0008246DEE76FF0370AF3E700BF440D0020D4
:1045B00000010203540D00202DE9F04188B00446AB
:1045C0000D4620220021684603F047FA04F1200638
:1045D0006F46E27B0132D2B2E273002A4DD1A27B58
:1045E0000132D2B2A273002A47D1637B0133DBB21E
:1045F0006373002B41D1237B0133DBB22373002B88
:104600003BD1E37A0133DBB2E372002B35D1A37ADD
:104610000133DBB2A372002B2FD1637A0133DBB2FB
:10462000637253BB237A0133DBB223722BBBE37972
:104630000133DBB2E37103BBA3790133DBB2A371B6
:10464000DBB963790133DBB26371B3B92379013329
:10465000DBB223718BB9E3780133DBB2E37063B96A
:10466000A3780133DBB2A3703BB963780133DBB2CB
:10467000637013B92378013323703B46224601212E
:10468000304601F049F8804650BB103708AB9F42D6
:104690009FD1029AAB68039F07995340029330461B
:1046A000EE68009B7E400396049F2E697E40049630
:1046B0006E69059F7E400596069FAE697E40069610
:1046C000EE697140079129684B40009301996B682E
:1046D00080224B406946019301F004F8804638B1CE
:1046E00068462021FFF776FE404608B0BDE8F0811D
:1046F00010220DEB0201204603F087F9F0E700BF1E
:104700002DE9F84304468069B0F5C07F52D81D46B4
:10471000C0F5C073AB424DD3C5F5C0731B1A9342AD
:10472000164647D3DFF898904FF4C0720F464846BC
:10473000002103F092F9D4F89430A269D4F89800DB
:1047400049469847002838D1D4F818803DB1D4E9BB
:1047500025302A4609EB0801984770BBA84407B1E9
:10476000C6B9174942460846FFF73EFE054638B12E
:1047700013484FF4C071FFF72DFE2846BDE8F883BB
:104780000F492046FFF718FF05460028F0D1012306
:104790002361EDE709EB08003946324603F035F9AD
:1047A0000749B04442460846FFF71EFE054600286A
:1047B000DED1E5E76FF03705DFE76FF03305DCE7C3
:1047C000E40E002010B5A4220446002103F045F9B0
:1047D000064B4FF0FF314FF6F0722161E26104F1B8
:1047E0009C001B68BDE81040184700BF5001002026
:1047F0002DE9F04385B005460F46164600211022EC
:104800006846994603F029F91D4B05F19C081B6881
:104810004046984720B10446204605B0BDE8F083E5
:1048200005F12004204600F047FFAA69C5E9257676
:104830002E69E2B92022002EAA611FDB20466946BC
:10484000802200F04FFF044630B90C9A33464946A7
:104850002846FFF755FF04460A4B40461B68984719
:10486000002818BF0446204605B0BDE8F083002E9E
:10487000E4DA172A02D801325608DFE70026DDE71E
:104880004C010020480100202DE9F04F8DB0B2F519
:10489000806F169F00F2E380B7F5807F00F2DC8026
:1048A000044615460E462022002104A8984603F02F
:1048B000D4F86C4B04F19C091B6848469847834622
:1048C000002840F092802269E3699A4200F39180C7
:1048D0006369002B40F08D80002F40F0A980DFF845
:1048E00088A16F46002D00F0988004F120086F46E3
:1048F0000EE0102DAB4628BF4FF0100B30465A4645
:10490000394603F082F8B5EB0B055E4400F0858074
:10491000E37B0133DBB2E373002B4DD1A37B013387
:10492000DBB2A373002B47D1637B0133DBB263732C
:10493000002B41D1237B0133DBB22373002B3BD10E
:10494000E37A0133DBB2E372002B35D1A37A013372
:10495000DBB2A372002B2FD1637A0133DBB2637217
:1049600053BB237A0133DBB223722BBBE3790133D0
:10497000DBB2E37103BBA3790133DBB2A371DBB913
:1049800063790133DBB26371B3B923790133DBB2ED
:1049900023718BB9E3780133DBB2E37063B9A37899
:1049A0000133DBB2A3703BB963780133DBB26370D0
:1049B00013B92378013323703B4622460121404638
:1049C00000F0AAFE8346002893D0DAF8003048466B
:1049D00098472021034604A8002B18BF9B46FFF7E9
:1049E000F9FC10213846FFF7F5FC58460DB0BDE83C
:1049F000F08F3A46414600232046FFF781FEDFF85C
:104A000068A000283FF46DAFDAF8003048469847B8
:104A1000834600283FF465AFE7E704A92046FFF787
:104A2000CBFD83460028D0D1236901332361CCE735
:104A30003A46414604A8FFF7D7FC834618B1DFF891
:104A400028A06F46C1E704A92046FFF7B5FD8346BD
:104A500000283FF444AFF2E76FF0370BC5E76FF083
:104A6000350BC2E74C010020480100202DE9F0433E
:104A7000202B8BB01D4606468846914626D8DBB2D1
:104A800002AF8DF80480B0468DF8053058F8041B4D
:104A900021B9404600F084FE044640B9012333604A
:104AA000022201A9404600F08FFE044638B1384684
:104AB0002021FFF78FFC20460BB0BDE8F0832A468B
:104AC0004946404600F080FE0446F0E702AF194632
:104AD000104600233A4600F0FDFF04460028E6D1C8
:104AE0002023B9461D46CCE7F0B5D0F8F830A7B082
:104AF000002BD8BF02AE2CDDD0F80C4105460023B8
:104B000002AE0193A4F10107D0F80001D5F8FC40F2
:104B100001AB90223146A047B7FA87F77F090446D8
:104B200010B9019B3BB9A7B130469021FFF752FC69
:104B3000204627B0F0BD014632462846FFF796FFD3
:104B400050B9D5F80431019A1344C5F80431002F47
:104B5000EAD16FF03C04E7E70446204627B0F0BDF9
:104B600070B50025044604F5887614222946C0F85D
:104B7000F850FC3002F071FF08222946304602F05E
:104B80006CFF154B30461B689847204640F8045B85
:104B900000F0ECFD114B30461B689847D8B9D4F8AB
:104BA000F830AB4211DC03EB830204EB82022021DC
:104BB000C2F808110121C2F80C1101330849C2F8EA
:104BC0000001C2F8FC10C4F8F830064B30461B68F0
:104BD000BDE87040184770BD500100204C01002016
:104BE000BD550000480100202DE9F047202A88B07B
:104BF00079D83E4B00F588791B680446484617462D
:104C0000884698470546F8B9D4F8F83040F20116BE
:104C1000002B64D02046FFF767FF054638B9D4F86B
:104C2000F830002B14DC013EF2D16FF03B056E46EC
:104C300020213046FFF7CEFB2D4B48461B68984796
:104C4000002818BF6FF01D05284608B0BDE8F087A2
:104C5000D4E94132934203D3D4F80C21012A02D083
:104C6000013ED7D1E1E71F2BFAD96E46014620223B
:104C7000304604F1040A02F0F0FE3146504600F0DE
:104C8000CDFD05460028D3D1504600F083FD5046A7
:104C900000F06CFD2946504600F082FD05460028D4
:104CA000C6D150462022314600F08EFD0546002830
:104CB000BED1034632462021304600F00BFF0546A8
:104CC0000028B5D1D4F8F830002BC4BF0023C4F8B5
:104CD00004313A464046314602F097FEA8E76FF0AD
:104CE0003F056E46A4E76FF03B05ADE74C010020A1
:104CF0004801002030B58DB00021282202A8019182
:104D000002F0ABFE02A800F00DFF044610B12046F1
:104D10000DB030BD174D4FF0FF31286800F044F959
:104D2000044620B11448FFF733FA012C18D00020B4
:104D300000F06AF9D0B9114A02A901A800F030FCCC
:104D40000446012000F060F960B9286800F034F9E9
:104D50000028DCD00A48FFF71BFA20460DB030BD12
:104D60000524F2E70748FFF713FAEEE70648FFF7D6
:104D70000FFAE0E7340100200C7F000064100020EF
:104D8000647F0000447F0000247F000030B583B0C2
:104D900000F05CF828B100F0ABF80324204603B023
:104DA00030BD00F077F8D8B900F02EF9E0B9224C08
:104DB000D4F828391B0EF02B0AD1D4F8242A1F4B23
:104DC0009A4231D000F044F8072400F091F8E5E76A
:104DD00000F03EF800F08CF80624204603B030BD09
:104DE0000424204603B030BD00F032F800F080F813
:104DF000FFF780FF044698B9114D2B68002BCDD1E9
:104E000002460146FFF7E6F950B90E4901AB6822A8
:104E1000FFF710FA20B90C4B2B60204603B030BDD1
:104E20000524204603B030BD012000F0EDF8002835
:104E3000DAD1C4F80C0ADBE700B002500000E02031
:104E400084120020881200205AEA5A5A0020704723
:104E500000207047430504D5044B4FF0FF32C3F8E0
:104E60000821024BC3F8080A704700BF00B0025087
:104E7000014BC3F8040A704700B0025008B100F0BB
:104E80006BB84FF47500704708B100F04FB84FF49D
:104E90007500704710B5114800F072F800B110BDF0
:104EA0000F4800F06DF80028F9D10E4C204600F0B4
:104EB00067F80028F3D10C4B0C481C6000F060F838
:104EC00001460028EBD100F02DF8044608B1204639
:104ED00010BD00F07BF82046FAE700BF4401002037
:104EE000400100203C010020340100203801002056
:104EF00008B5084800F04EF8074800F04BF807489E
:104F000000F048F8064800F045F8BDE8084000F019
:104F10000BB800BF44010020400100203C010020EC
:104F20003801002000207047704700BF10B4094CC2
:104F30000246D4F8003A1342FBD021B1D4F8043130
:104F40000B60C4F80831034BC3F8082A002010BCDA
:104F5000704700BF00B00250044AD2F8003A18422D
:104F6000FBD0C2F8080A0020704700BF00B0025012
:104F700002F059BD02F071BD0A46002102F06DBD7C
:104F800008B5034B02681B6810689847002008BDED
:104F90000001002008B5034B02685B681068984761
:104FA000002008BD00010020024B02689B681068C9
:104FB000184700BF0001002008B5034B0268DB68FA
:104FC00010689847002008BD0001002070B5094C0A
:104FD000094D2069AB68984718B1084B08485B68D1
:104FE0009847084AEB68206900211160BDE87040CD
:104FF000184700BFEC00002000010020E400002062
:105000007C7F0000F0120020F8B51A4D1A4E0446BD
:10501000B26828699047E8B9184F3B684CB1A3B112
:10502000012B19D0013B3B602869F36898470020A9
:10503000F8BD43B9124A0121C2F800151149D1F84F
:105040001029002AFBD101333B60F3682869984797
:105050000020F8BD0C48F8BD0A4AD2F81039002BE0
:10506000FBD1074A6FF07E40C2F80035FFF700FF22
:105070003B68D7E7EC00002000010020F012002080
:1050800000A0025000B00250E98FFFFF014B1B68E7
:10509000184700BF00010020014B9B68184700BF64
:1050A00000010020014BDB68184700BF0001002011
:1050B0002DE9F047002878D00C46002975D01D4610
:1050C000002B72D007461AB1012200232A60036028
:1050D0002B68002B64D02946204600F0DBFD80467B
:1050E00000285FD12868214600F0BAFD80460028DC
:1050F00058D12B68082B6CD0042B6DD0A3F102097A
:10510000B9FA89F94FEA5919354E0121C6F8C41187
:10511000C6F84011C6F8C411636AC6F83031D6F833
:1051200030219342F6D14FF0000A4FF0FF30C6F81D
:105130002CA1FFF78FFE6FF01B03C6F8003150461D
:10514000FFF796FEC6F80C91D6F8040A40F480608A
:10515000FFF78EFE0A23C6F83831089B012B29D0B1
:105160002369204AA2FB03231B09626A02FB03F3A3
:1051700003EB43031A4ADB039B09C2F8D83101232E
:10518000C2F82C313B682A6823F07F4343EA02636C
:105190003B602A6843EA02233B604046BDE8F08753
:1051A000DFF844804046BDE8F087DFF840804046A5
:1051B000BDE8F0874FF08053D3F80C2C013206D0B5
:1051C000D3F80C3C074AA2FB03231B09CDE71623A7
:1051D000CBE74FF0030997E74FF0020994E700BFD0
:1051E00000B00250ABAAAAAA310CF100350CF100B4
:1051F00050B34B1EB3F5047F26D24FF0000C30B5F0
:10520000CD00E6466446630904F01F0150F82330E0
:105210001F2923FA01F306D003F001031CB901246E
:105220009E46A446EFE79E4504F1010406D09E4643
:105230004FF0010CAC42E6D1002030BD0CF1010C66
:105240009445F7D1014830BD00487047360CF10055
:10525000C8B32DE9F0434C1EB4F5047F1CD2DBB17A
:10526000D2B14FF0000ECF007646F046754603F1FE
:10527000FF396C0905F01F0150F824401F2924FA5A
:1052800001FC0CD00CF0010C4DB90126E04635466E
:10529000B646EEE7964218D90D48BDE8F08373454F
:1052A0000CD0C44508BF0136F145F3D00EF1010E14
:1052B0000135BD42DDD10020BDE8F0834FF0010E85
:1052C000E0467646F4E7024870479E46F0E700BFA6
:1052D000370CF1002DE9F04F91B00D46DDE91B418F
:1052E000824600296ED1286906901A981C60002316
:1052F0000360002A00F02E819C4B6A6AD3F83811B3
:10530000D3F830319A4269D10A2967D19AF803302B
:10531000089304F1080306990793954B934CA3FB5C
:1053200001239B0803EB4303A1EB430303930423F3
:1053300005931A9B069E1E60002E00F0E980002750
:1053400000F0B8FC0997BAF1000F00F0D580DDF845
:105350001C804FF00109002D00F0CE80089B002B2F
:105360003ED008A9284600F095FC00283AD0814B91
:10537000984220D0089B082B00F0E4805B000022BC
:105380000893009208AB29465046FFF791FE7A4BEE
:10539000984200F0D38070B9DAF80020130A03F4C1
:1053A0007F03134323F07F43CAF80030059B013B82
:1053B0000593BED10020039000F07CFC039811B04F
:1053C000BDE8F08F4FF08050D0F80C6C013614BF60
:1053D000D0F80C0C4FF40470069086E76748EAE7B3
:1053E0006548C4E70898294600F03AFC0028BED179
:1053F000089B082B00F0A880042B00F0A880A3F1E4
:105400000203B3FA83F35B090493C4F8C491C4F8AC
:105410004091C4F8C4916B6AC4F83031D4F830219B
:105420009342F6D14FF0000BC4F82CB14FF0FF308F
:10543000FFF710FD6FF01B035846C4F80031FFF76B
:1054400017FD049BC4F80C31D4F8040A40F48060C2
:10545000FFF70EFD0A23C4F838312B69ABF1553B39
:10546000ABFB03236A6A1B0902FB03F303EB430351
:10547000DB039B09C4F8D831C4F82C91DAF800306A
:10548000089923F07F420B0243EA01631343CAF8F1
:10549000003009A800F0D4FB099B03F01A03034372
:1054A0007FF468AFABFB063BD4F814310A93D4F811
:1054B00018310B93D4F81C310C93D4F820310D9390
:1054C000D4F824310E93D4F828310F93B7EB9B0F07
:1054D00001D1039B93B9404618220AA9183EFFF751
:1054E00047FD08F11808013796B100F0E3FB0023EF
:1054F0000993002D7FF432AF214838E74046F61A71
:105500001A460AA998440137FFF732FD002EECD164
:10551000069F079E6A6939463046FFF769FEAA6909
:1055200040B94FF4806339463046FFF791FE0028BA
:105530003FF440AF1A9A0023136018E72B6A002B40
:105540003FF439AF0F4836E7032304935DE70223A6
:1055500004935AE7009108AB012229465046FFF711
:10556000A7FD00283FF4D5AE25E700BF00B00250EC
:10557000ABAAAAAA020CF100310CF100300CF10028
:10558000350CF100320CF10010B4DDE90134019466
:10559000039C02940024039410BCFFF79BBE00BF41
:1055A00010B586B005AB0124CDE90124009300229B
:1055B00004ABFFF78FFE06B010BD00BFF0B587B09B
:1055C000002966D01E46002B63D01446002A60D006
:1055D000314F0D4638684FF0FF31FFF7E5FC0028EA
:1055E0004DD10020FFF710FD002844D12B4800F0DA
:1055F00099FA0346D8B101204FF0FF35FFF704FDBB
:10560000002834D126484FF40871FEF7D9FE25480A
:105610000421FEF7D5FE21482821FEF7D1FE386887
:10562000FFF7CAFC00282ED1284607B0F0BD1C4A5F
:10563000029205AA019204AA039000921749194800
:105640001A46FFF7A1FF03460028D4D128461D467D
:10565000059B04999C42224628BF1A4632600831B5
:10566000FFF786FC0120FFF7CFFC0028CAD00E48C8
:10567000FEF78EFDC6E70D48FEF78AFDB6E70C483B
:10568000FEF786FDADE70B48FEF782FD284607B022
:10569000F0BD4FF0FF35C7E734010020F8120020BD
:1056A00020130020F4120020447F0000247F00001B
:1056B0000C7F00009C7F000010B5044630B1002232
:1056C00001236265A265E365236610BD0148FEF70C
:1056D0005FFDF4E7B47F000018B174220021FFF7EA
:1056E00049BC704790B1A1B110B5802A4FF00004B9
:1056F000846380F83C4006D1102204631044FFF715
:1057000037FC204610BD6FF01F0010BD6FF0210068
:1057100070476FF01F00704728B322B31BB30129F5
:1057200021D870B50446816B86B017D0012917D1F6
:10573000102500210DEB05066163104600950196CA
:1057400002AA294600F0C2FA50B92B46324602A9F5
:10575000204600F043FD18B906B070BD0029E7D01F
:105760006FF02100F8E76FF02100704710B5044694
:1057700028B12046F421BDE81040FFF7FDBB0448E6
:10578000FEF706FD2046F421BDE81040FFF7F4BB0C
:10579000C87F000010B1F421FEF712BE704700BFB1
:1057A00008B521B1012908D06FF0360008BD0121EC
:1057B00000F058F80028F7D108BD022100F052F897
:1057C0000028F9D0F0E700BF30B505468818B0F5DD
:1057D000801FA1B00B46144601D8802A0CD9B3F51E
:1057E000801F17D922461946284600F07DF8044646
:1057F00084B9204621B030BD6846FFF7B9FB224688
:105800006946284600F070F8802104466846FFF794
:10581000B3FBEDE76FF03604EBE700BF70B5E8B11E
:105820000E46D9B1044600F031F80546B0B92368F8
:10583000012B0BD0022B01D0284670BD1C2204F195
:1058400008013046FFF794FB284670BD202204F182
:1058500008013046FFF78CFB284670BD6FF0360517
:10586000EAE700BF78B138B504460D46F021FFF7EE
:1058700083FB40232560E365204600F05BFA003897
:1058800018BF012038BD0120704700BF70B5056EFC
:10589000A4B0044604AEE5B901220023626030469C
:1058A000CDE9003302AA294600F010FA10B1012018
:1058B00024B070BD2A4602A9204600F063FA0028F1
:1058C000F5D1204600F074FB0028F0D1206624B00A
:1058D00070BD802D2A4600F1640128BF8022304629
:1058E000FFF746FB256ED7E7002800F0AE802DE9D4
:1058F000F04F1446A5B0002A3DD00F46002949D0EC
:10590000B2F5803F0546006E20D34FF6FF7805F1D3
:10591000640AEB6D1A1AB2FBF3F103FB1122002AA1
:1059200065D18342B9464FF6FF7672D0B6FBF3FBE2
:1059300003FB0BFBBBF1000F30D1002E45D1A4F5CA
:105940007F44FF3CB4F5803F4744E2D2EA6D161A2B
:10595000B6FBF2F302FB1366A64228BF2646002ED2
:1059600075D1824200F08D80B4FBF2F602FB06F6A0
:105970002EB9002C79D1002025B0BDE8F08F00238E
:10598000CDE9003302AA3146384600F09FF90028DD
:1059900000F09580012025B0BDE8F08F0023CDE90F
:1059A000003302AA5946484600F090F90028F1D188
:1059B00002A95A46284600F0E5F90028EAD1A6EBEC
:1059C0000B06286ED944002EB9D01930494605EB94
:1059D00080003246FFF7CCFAA4F57F44286EFF3CE6
:1059E0003044B4F5803F4744286692D2AEE7424542
:1059F00028BF4246504439461646FFF7B9FA286E8A
:105A0000EB6D3044834207EB06092866A8EB0606D7
:105A10008CD1802B28BF80231A46514604A8FFF75B
:105A2000A7FA0023CDE9003302AAE96D04A800F02B
:105A30004DF90028AED1EA6D02A9284600F0A2F97E
:105A40000028A7D1EB6D286670E70120704705F1AB
:105A50006403394632461844FFF78AFA286EEA6D25
:105A60003044A41B374428667BE72B6E193305EBC3
:105A7000830022463946FFF77BFA2B6E23442B66C0
:105A800079E7802A28BF802205F1640104A8FFF786
:105A90006FFA0023CDE9003304A8E96D02AA00F0F3
:105AA00015F900287FF476AFEA6D02A9284600F0C8
:105AB00069F900287FF46EAFEA6D286654E702A901
:105AC0003246284600F05EF900287FF463AF374481
:105AD000A41B4EE7F8B51C46054611480E4617466E
